{
	"contracts/LiquidationManager.sol": {
		"LiquidationManager": {
			"abi": [
				{
					"inputs": [
						{
							"internalType": "uint256",
							"name": "_liquidationBonus",
							"type": "uint256"
						}
					],
					"stateMutability": "nonpayable",
					"type": "constructor"
				},
				{
					"inputs": [
						{
							"internalType": "address",
							"name": "borrower",
							"type": "address"
						},
						{
							"internalType": "address",
							"name": "collateralToken",
							"type": "address"
						},
						{
							"internalType": "address",
							"name": "borrowedToken",
							"type": "address"
						},
						{
							"internalType": "uint256",
							"name": "borrowedAmount",
							"type": "uint256"
						}
					],
					"name": "liquidatePosition",
					"outputs": [],
					"stateMutability": "nonpayable",
					"type": "function"
				},
				{
					"inputs": [],
					"name": "liquidationBonus",
					"outputs": [
						{
							"internalType": "uint256",
							"name": "",
							"type": "uint256"
						}
					],
					"stateMutability": "view",
					"type": "function"
				},
				{
					"inputs": [],
					"name": "owner",
					"outputs": [
						{
							"internalType": "address",
							"name": "",
							"type": "address"
						}
					],
					"stateMutability": "view",
					"type": "function"
				},
				{
					"inputs": [
						{
							"internalType": "uint256",
							"name": "_liquidationBonus",
							"type": "uint256"
						}
					],
					"name": "setLiquidationBonus",
					"outputs": [],
					"stateMutability": "nonpayable",
					"type": "function"
				}
			],
			"devdoc": {
				"kind": "dev",
				"methods": {},
				"version": 1
			},
			"evm": {
				"assembly": "    /* \"contracts/LiquidationManager.sol\":115:1482  contract LiquidationManager {... */\n  mstore(0x40, 0x80)\n    /* \"contracts/LiquidationManager.sol\":263:383  constructor(uint256 _liquidationBonus) {... */\n  callvalue\n  dup1\n  iszero\n  tag_1\n  jumpi\n  0x00\n  dup1\n  revert\ntag_1:\n  pop\n  mload(0x40)\n  sub(codesize, bytecodeSize)\n  dup1\n  bytecodeSize\n  dup4\n  codecopy\n  dup2\n  dup2\n  add\n  0x40\n  mstore\n  dup2\n  add\n  swap1\n  tag_2\n  swap2\n  swap1\n  tag_3\n  jump\t// in\ntag_2:\n    /* \"contracts/LiquidationManager.sol\":320:330  msg.sender */\n  caller\n    /* \"contracts/LiquidationManager.sol\":312:317  owner */\n  0x00\n  dup1\n    /* \"contracts/LiquidationManager.sol\":312:330  owner = msg.sender */\n  0x0100\n  exp\n  dup2\n  sload\n  dup2\n  0xffffffffffffffffffffffffffffffffffffffff\n  mul\n  not\n  and\n  swap1\n  dup4\n  0xffffffffffffffffffffffffffffffffffffffff\n  and\n  mul\n  or\n  swap1\n  sstore\n  pop\n    /* \"contracts/LiquidationManager.sol\":359:376  _liquidationBonus */\n  dup1\n    /* \"contracts/LiquidationManager.sol\":340:356  liquidationBonus */\n  0x01\n    /* \"contracts/LiquidationManager.sol\":340:376  liquidationBonus = _liquidationBonus */\n  dup2\n  swap1\n  sstore\n  pop\n    /* \"contracts/LiquidationManager.sol\":263:383  constructor(uint256 _liquidationBonus) {... */\n  pop\n    /* \"contracts/LiquidationManager.sol\":115:1482  contract LiquidationManager {... */\n  jump(tag_6)\n    /* \"#utility.yul\":88:205   */\ntag_8:\n    /* \"#utility.yul\":197:198   */\n  0x00\n    /* \"#utility.yul\":194:195   */\n  dup1\n    /* \"#utility.yul\":187:199   */\n  revert\n    /* \"#utility.yul\":334:411   */\ntag_10:\n    /* \"#utility.yul\":371:378   */\n  0x00\n    /* \"#utility.yul\":400:405   */\n  dup2\n    /* \"#utility.yul\":389:405   */\n  swap1\n  pop\n    /* \"#utility.yul\":334:411   */\n  swap2\n  swap1\n  pop\n  jump\t// out\n    /* \"#utility.yul\":417:539   */\ntag_11:\n    /* \"#utility.yul\":490:514   */\n  tag_19\n    /* \"#utility.yul\":508:513   */\n  dup2\n    /* \"#utility.yul\":490:514   */\n  tag_10\n  jump\t// in\ntag_19:\n    /* \"#utility.yul\":483:488   */\n  dup2\n    /* \"#utility.yul\":480:515   */\n  eq\n    /* \"#utility.yul\":470:533   */\n  tag_20\n  jumpi\n    /* \"#utility.yul\":529:530   */\n  0x00\n    /* \"#utility.yul\":526:527   */\n  dup1\n    /* \"#utility.yul\":519:531   */\n  revert\n    /* \"#utility.yul\":470:533   */\ntag_20:\n    /* \"#utility.yul\":417:539   */\n  pop\n  jump\t// out\n    /* \"#utility.yul\":545:688   */\ntag_12:\n    /* \"#utility.yul\":602:607   */\n  0x00\n    /* \"#utility.yul\":633:639   */\n  dup2\n    /* \"#utility.yul\":627:640   */\n  mload\n    /* \"#utility.yul\":618:640   */\n  swap1\n  pop\n    /* \"#utility.yul\":649:682   */\n  tag_22\n    /* \"#utility.yul\":676:681   */\n  dup2\n    /* \"#utility.yul\":649:682   */\n  tag_11\n  jump\t// in\ntag_22:\n    /* \"#utility.yul\":545:688   */\n  swap3\n  swap2\n  pop\n  pop\n  jump\t// out\n    /* \"#utility.yul\":694:1045   */\ntag_3:\n    /* \"#utility.yul\":764:770   */\n  0x00\n    /* \"#utility.yul\":813:815   */\n  0x20\n    /* \"#utility.yul\":801:810   */\n  dup3\n    /* \"#utility.yul\":792:799   */\n  dup5\n    /* \"#utility.yul\":788:811   */\n  sub\n    /* \"#utility.yul\":784:816   */\n  slt\n    /* \"#utility.yul\":781:900   */\n  iszero\n  tag_24\n  jumpi\n    /* \"#utility.yul\":819:898   */\n  tag_25\n  tag_8\n  jump\t// in\ntag_25:\n    /* \"#utility.yul\":781:900   */\ntag_24:\n    /* \"#utility.yul\":939:940   */\n  0x00\n    /* \"#utility.yul\":964:1028   */\n  tag_26\n    /* \"#utility.yul\":1020:1027   */\n  dup5\n    /* \"#utility.yul\":1011:1017   */\n  dup3\n    /* \"#utility.yul\":1000:1009   */\n  dup6\n    /* \"#utility.yul\":996:1018   */\n  add\n    /* \"#utility.yul\":964:1028   */\n  tag_12\n  jump\t// in\ntag_26:\n    /* \"#utility.yul\":954:1028   */\n  swap2\n  pop\n    /* \"#utility.yul\":910:1038   */\n  pop\n    /* \"#utility.yul\":694:1045   */\n  swap3\n  swap2\n  pop\n  pop\n  jump\t// out\n    /* \"contracts/LiquidationManager.sol\":115:1482  contract LiquidationManager {... */\ntag_6:\n  dataSize(sub_0)\n  dup1\n  dataOffset(sub_0)\n  0x00\n  codecopy\n  0x00\n  return\nstop\n\nsub_0: assembly {\n        /* \"contracts/LiquidationManager.sol\":115:1482  contract LiquidationManager {... */\n      mstore(0x40, 0x80)\n      callvalue\n      dup1\n      iszero\n      tag_1\n      jumpi\n      0x00\n      dup1\n      revert\n    tag_1:\n      pop\n      jumpi(tag_2, lt(calldatasize, 0x04))\n      shr(0xe0, calldataload(0x00))\n      dup1\n      0x28842d4f\n      eq\n      tag_3\n      jumpi\n      dup1\n      0x7b7c1f4c\n      eq\n      tag_4\n      jumpi\n      dup1\n      0x80ec2eea\n      eq\n      tag_5\n      jumpi\n      dup1\n      0x8da5cb5b\n      eq\n      tag_6\n      jumpi\n    tag_2:\n      0x00\n      dup1\n      revert\n        /* \"contracts/LiquidationManager.sol\":389:585  function setLiquidationBonus(uint256 _liquidationBonus) external {... */\n    tag_3:\n      tag_7\n      0x04\n      dup1\n      calldatasize\n      sub\n      dup2\n      add\n      swap1\n      tag_8\n      swap2\n      swap1\n      tag_9\n      jump\t// in\n    tag_8:\n      tag_10\n      jump\t// in\n    tag_7:\n      stop\n        /* \"contracts/LiquidationManager.sol\":175:206  uint256 public liquidationBonus */\n    tag_4:\n      tag_11\n      tag_12\n      jump\t// in\n    tag_11:\n      mload(0x40)\n      tag_13\n      swap2\n      swap1\n      tag_14\n      jump\t// in\n    tag_13:\n      mload(0x40)\n      dup1\n      swap2\n      sub\n      swap1\n      return\n        /* \"contracts/LiquidationManager.sol\":591:1480  function liquidatePosition(address borrower, address collateralToken, address borrowedToken, uint256 borrowedAmount) external {... */\n    tag_5:\n      tag_15\n      0x04\n      dup1\n      calldatasize\n      sub\n      dup2\n      add\n      swap1\n      tag_16\n      swap2\n      swap1\n      tag_17\n      jump\t// in\n    tag_16:\n      tag_18\n      jump\t// in\n    tag_15:\n      stop\n        /* \"contracts/LiquidationManager.sol\":149:169  address public owner */\n    tag_6:\n      tag_19\n      tag_20\n      jump\t// in\n    tag_19:\n      mload(0x40)\n      tag_21\n      swap2\n      swap1\n      tag_22\n      jump\t// in\n    tag_21:\n      mload(0x40)\n      dup1\n      swap2\n      sub\n      swap1\n      return\n        /* \"contracts/LiquidationManager.sol\":389:585  function setLiquidationBonus(uint256 _liquidationBonus) external {... */\n    tag_10:\n        /* \"contracts/LiquidationManager.sol\":486:491  owner */\n      0x00\n      dup1\n      sload\n      swap1\n      0x0100\n      exp\n      swap1\n      div\n      0xffffffffffffffffffffffffffffffffffffffff\n      and\n        /* \"contracts/LiquidationManager.sol\":472:491  msg.sender == owner */\n      0xffffffffffffffffffffffffffffffffffffffff\n      and\n        /* \"contracts/LiquidationManager.sol\":472:482  msg.sender */\n      caller\n        /* \"contracts/LiquidationManager.sol\":472:491  msg.sender == owner */\n      0xffffffffffffffffffffffffffffffffffffffff\n      and\n      eq\n        /* \"contracts/LiquidationManager.sol\":464:532  require(msg.sender == owner, \"Only owner can set liquidation bonus\") */\n      tag_24\n      jumpi\n      mload(0x40)\n      0x08c379a000000000000000000000000000000000000000000000000000000000\n      dup2\n      mstore\n      0x04\n      add\n      tag_25\n      swap1\n      tag_26\n      jump\t// in\n    tag_25:\n      mload(0x40)\n      dup1\n      swap2\n      sub\n      swap1\n      revert\n    tag_24:\n        /* \"contracts/LiquidationManager.sol\":561:578  _liquidationBonus */\n      dup1\n        /* \"contracts/LiquidationManager.sol\":542:558  liquidationBonus */\n      0x01\n        /* \"contracts/LiquidationManager.sol\":542:578  liquidationBonus = _liquidationBonus */\n      dup2\n      swap1\n      sstore\n      pop\n        /* \"contracts/LiquidationManager.sol\":389:585  function setLiquidationBonus(uint256 _liquidationBonus) external {... */\n      pop\n      jump\t// out\n        /* \"contracts/LiquidationManager.sol\":175:206  uint256 public liquidationBonus */\n    tag_12:\n      sload(0x01)\n      dup2\n      jump\t// out\n        /* \"contracts/LiquidationManager.sol\":591:1480  function liquidatePosition(address borrower, address collateralToken, address borrowedToken, uint256 borrowedAmount) external {... */\n    tag_18:\n        /* \"contracts/LiquidationManager.sol\":904:929  uint256 liquidationAmount */\n      0x00\n        /* \"contracts/LiquidationManager.sol\":976:979  1e4 */\n      0x2710\n        /* \"contracts/LiquidationManager.sol\":956:972  liquidationBonus */\n      sload(0x01)\n        /* \"contracts/LiquidationManager.sol\":950:953  1e4 */\n      0x2710\n        /* \"contracts/LiquidationManager.sol\":950:972  1e4 + liquidationBonus */\n      tag_28\n      swap2\n      swap1\n      tag_29\n      jump\t// in\n    tag_28:\n        /* \"contracts/LiquidationManager.sol\":932:946  borrowedAmount */\n      dup4\n        /* \"contracts/LiquidationManager.sol\":932:973  borrowedAmount * (1e4 + liquidationBonus) */\n      tag_30\n      swap2\n      swap1\n      tag_31\n      jump\t// in\n    tag_30:\n        /* \"contracts/LiquidationManager.sol\":932:979  borrowedAmount * (1e4 + liquidationBonus) / 1e4 */\n      tag_32\n      swap2\n      swap1\n      tag_33\n      jump\t// in\n    tag_32:\n        /* \"contracts/LiquidationManager.sol\":904:979  uint256 liquidationAmount = borrowedAmount * (1e4 + liquidationBonus) / 1e4 */\n      swap1\n      pop\n        /* \"contracts/LiquidationManager.sol\":1049:1064  collateralToken */\n      dup4\n        /* \"contracts/LiquidationManager.sol\":1042:1074  IERC20(collateralToken).transfer */\n      0xffffffffffffffffffffffffffffffffffffffff\n      and\n      0xa9059cbb\n        /* \"contracts/LiquidationManager.sol\":1075:1085  msg.sender */\n      caller\n        /* \"contracts/LiquidationManager.sol\":1087:1104  liquidationAmount */\n      dup4\n        /* \"contracts/LiquidationManager.sol\":1042:1105  IERC20(collateralToken).transfer(msg.sender, liquidationAmount) */\n      mload(0x40)\n      dup4\n      0xffffffff\n      and\n      0xe0\n      shl\n      dup2\n      mstore\n      0x04\n      add\n      tag_34\n      swap3\n      swap2\n      swap1\n      tag_35\n      jump\t// in\n    tag_34:\n      0x20\n      mload(0x40)\n      dup1\n      dup4\n      sub\n      dup2\n      0x00\n      dup8\n      gas\n      call\n      iszero\n      dup1\n      iszero\n      tag_37\n      jumpi\n      returndatasize\n      0x00\n      dup1\n      returndatacopy\n      revert(0x00, returndatasize)\n    tag_37:\n      pop\n      pop\n      pop\n      pop\n      mload(0x40)\n      returndatasize\n      not(0x1f)\n      0x1f\n      dup3\n      add\n      and\n      dup3\n      add\n      dup1\n      0x40\n      mstore\n      pop\n      dup2\n      add\n      swap1\n      tag_38\n      swap2\n      swap1\n      tag_39\n      jump\t// in\n    tag_38:\n      pop\n        /* \"contracts/LiquidationManager.sol\":1187:1200  borrowedToken */\n      dup3\n        /* \"contracts/LiquidationManager.sol\":1180:1214  IERC20(borrowedToken).transferFrom */\n      0xffffffffffffffffffffffffffffffffffffffff\n      and\n      0x23b872dd\n        /* \"contracts/LiquidationManager.sol\":1215:1225  msg.sender */\n      caller\n        /* \"contracts/LiquidationManager.sol\":1227:1235  borrower */\n      dup8\n        /* \"contracts/LiquidationManager.sol\":1237:1251  borrowedAmount */\n      dup6\n        /* \"contracts/LiquidationManager.sol\":1180:1252  IERC20(borrowedToken).transferFrom(msg.sender, borrower, borrowedAmount) */\n      mload(0x40)\n      dup5\n      0xffffffff\n      and\n      0xe0\n      shl\n      dup2\n      mstore\n      0x04\n      add\n      tag_40\n      swap4\n      swap3\n      swap2\n      swap1\n      tag_41\n      jump\t// in\n    tag_40:\n      0x20\n      mload(0x40)\n      dup1\n      dup4\n      sub\n      dup2\n      0x00\n      dup8\n      gas\n      call\n      iszero\n      dup1\n      iszero\n      tag_43\n      jumpi\n      returndatasize\n      0x00\n      dup1\n      returndatacopy\n      revert(0x00, returndatasize)\n    tag_43:\n      pop\n      pop\n      pop\n      pop\n      mload(0x40)\n      returndatasize\n      not(0x1f)\n      0x1f\n      dup3\n      add\n      and\n      dup3\n      add\n      dup1\n      0x40\n      mstore\n      pop\n      dup2\n      add\n      swap1\n      tag_44\n      swap2\n      swap1\n      tag_39\n      jump\t// in\n    tag_44:\n      pop\n        /* \"contracts/LiquidationManager.sol\":717:1480  {... */\n      pop\n        /* \"contracts/LiquidationManager.sol\":591:1480  function liquidatePosition(address borrower, address collateralToken, address borrowedToken, uint256 borrowedAmount) external {... */\n      pop\n      pop\n      pop\n      pop\n      jump\t// out\n        /* \"contracts/LiquidationManager.sol\":149:169  address public owner */\n    tag_20:\n      0x00\n      dup1\n      sload\n      swap1\n      0x0100\n      exp\n      swap1\n      div\n      0xffffffffffffffffffffffffffffffffffffffff\n      and\n      dup2\n      jump\t// out\n        /* \"#utility.yul\":88:205   */\n    tag_46:\n        /* \"#utility.yul\":197:198   */\n      0x00\n        /* \"#utility.yul\":194:195   */\n      dup1\n        /* \"#utility.yul\":187:199   */\n      revert\n        /* \"#utility.yul\":334:411   */\n    tag_48:\n        /* \"#utility.yul\":371:378   */\n      0x00\n        /* \"#utility.yul\":400:405   */\n      dup2\n        /* \"#utility.yul\":389:405   */\n      swap1\n      pop\n        /* \"#utility.yul\":334:411   */\n      swap2\n      swap1\n      pop\n      jump\t// out\n        /* \"#utility.yul\":417:539   */\n    tag_49:\n        /* \"#utility.yul\":490:514   */\n      tag_71\n        /* \"#utility.yul\":508:513   */\n      dup2\n        /* \"#utility.yul\":490:514   */\n      tag_48\n      jump\t// in\n    tag_71:\n        /* \"#utility.yul\":483:488   */\n      dup2\n        /* \"#utility.yul\":480:515   */\n      eq\n        /* \"#utility.yul\":470:533   */\n      tag_72\n      jumpi\n        /* \"#utility.yul\":529:530   */\n      0x00\n        /* \"#utility.yul\":526:527   */\n      dup1\n        /* \"#utility.yul\":519:531   */\n      revert\n        /* \"#utility.yul\":470:533   */\n    tag_72:\n        /* \"#utility.yul\":417:539   */\n      pop\n      jump\t// out\n        /* \"#utility.yul\":545:684   */\n    tag_50:\n        /* \"#utility.yul\":591:596   */\n      0x00\n        /* \"#utility.yul\":629:635   */\n      dup2\n        /* \"#utility.yul\":616:636   */\n      calldataload\n        /* \"#utility.yul\":607:636   */\n      swap1\n      pop\n        /* \"#utility.yul\":645:678   */\n      tag_74\n        /* \"#utility.yul\":672:677   */\n      dup2\n        /* \"#utility.yul\":645:678   */\n      tag_49\n      jump\t// in\n    tag_74:\n        /* \"#utility.yul\":545:684   */\n      swap3\n      swap2\n      pop\n      pop\n      jump\t// out\n        /* \"#utility.yul\":690:1019   */\n    tag_9:\n        /* \"#utility.yul\":749:755   */\n      0x00\n        /* \"#utility.yul\":798:800   */\n      0x20\n        /* \"#utility.yul\":786:795   */\n      dup3\n        /* \"#utility.yul\":777:784   */\n      dup5\n        /* \"#utility.yul\":773:796   */\n      sub\n        /* \"#utility.yul\":769:801   */\n      slt\n        /* \"#utility.yul\":766:885   */\n      iszero\n      tag_76\n      jumpi\n        /* \"#utility.yul\":804:883   */\n      tag_77\n      tag_46\n      jump\t// in\n    tag_77:\n        /* \"#utility.yul\":766:885   */\n    tag_76:\n        /* \"#utility.yul\":924:925   */\n      0x00\n        /* \"#utility.yul\":949:1002   */\n      tag_78\n        /* \"#utility.yul\":994:1001   */\n      dup5\n        /* \"#utility.yul\":985:991   */\n      dup3\n        /* \"#utility.yul\":974:983   */\n      dup6\n        /* \"#utility.yul\":970:992   */\n      add\n        /* \"#utility.yul\":949:1002   */\n      tag_50\n      jump\t// in\n    tag_78:\n        /* \"#utility.yul\":939:1002   */\n      swap2\n      pop\n        /* \"#utility.yul\":895:1012   */\n      pop\n        /* \"#utility.yul\":690:1019   */\n      swap3\n      swap2\n      pop\n      pop\n      jump\t// out\n        /* \"#utility.yul\":1025:1143   */\n    tag_51:\n        /* \"#utility.yul\":1112:1136   */\n      tag_80\n        /* \"#utility.yul\":1130:1135   */\n      dup2\n        /* \"#utility.yul\":1112:1136   */\n      tag_48\n      jump\t// in\n    tag_80:\n        /* \"#utility.yul\":1107:1110   */\n      dup3\n        /* \"#utility.yul\":1100:1137   */\n      mstore\n        /* \"#utility.yul\":1025:1143   */\n      pop\n      pop\n      jump\t// out\n        /* \"#utility.yul\":1149:1371   */\n    tag_14:\n        /* \"#utility.yul\":1242:1246   */\n      0x00\n        /* \"#utility.yul\":1280:1282   */\n      0x20\n        /* \"#utility.yul\":1269:1278   */\n      dup3\n        /* \"#utility.yul\":1265:1283   */\n      add\n        /* \"#utility.yul\":1257:1283   */\n      swap1\n      pop\n        /* \"#utility.yul\":1293:1364   */\n      tag_82\n        /* \"#utility.yul\":1361:1362   */\n      0x00\n        /* \"#utility.yul\":1350:1359   */\n      dup4\n        /* \"#utility.yul\":1346:1363   */\n      add\n        /* \"#utility.yul\":1337:1343   */\n      dup5\n        /* \"#utility.yul\":1293:1364   */\n      tag_51\n      jump\t// in\n    tag_82:\n        /* \"#utility.yul\":1149:1371   */\n      swap3\n      swap2\n      pop\n      pop\n      jump\t// out\n        /* \"#utility.yul\":1377:1503   */\n    tag_52:\n        /* \"#utility.yul\":1414:1421   */\n      0x00\n        /* \"#utility.yul\":1454:1496   */\n      0xffffffffffffffffffffffffffffffffffffffff\n        /* \"#utility.yul\":1447:1452   */\n      dup3\n        /* \"#utility.yul\":1443:1497   */\n      and\n        /* \"#utility.yul\":1432:1497   */\n      swap1\n      pop\n        /* \"#utility.yul\":1377:1503   */\n      swap2\n      swap1\n      pop\n      jump\t// out\n        /* \"#utility.yul\":1509:1605   */\n    tag_53:\n        /* \"#utility.yul\":1546:1553   */\n      0x00\n        /* \"#utility.yul\":1575:1599   */\n      tag_85\n        /* \"#utility.yul\":1593:1598   */\n      dup3\n        /* \"#utility.yul\":1575:1599   */\n      tag_52\n      jump\t// in\n    tag_85:\n        /* \"#utility.yul\":1564:1599   */\n      swap1\n      pop\n        /* \"#utility.yul\":1509:1605   */\n      swap2\n      swap1\n      pop\n      jump\t// out\n        /* \"#utility.yul\":1611:1733   */\n    tag_54:\n        /* \"#utility.yul\":1684:1708   */\n      tag_87\n        /* \"#utility.yul\":1702:1707   */\n      dup2\n        /* \"#utility.yul\":1684:1708   */\n      tag_53\n      jump\t// in\n    tag_87:\n        /* \"#utility.yul\":1677:1682   */\n      dup2\n        /* \"#utility.yul\":1674:1709   */\n      eq\n        /* \"#utility.yul\":1664:1727   */\n      tag_88\n      jumpi\n        /* \"#utility.yul\":1723:1724   */\n      0x00\n        /* \"#utility.yul\":1720:1721   */\n      dup1\n        /* \"#utility.yul\":1713:1725   */\n      revert\n        /* \"#utility.yul\":1664:1727   */\n    tag_88:\n        /* \"#utility.yul\":1611:1733   */\n      pop\n      jump\t// out\n        /* \"#utility.yul\":1739:1878   */\n    tag_55:\n        /* \"#utility.yul\":1785:1790   */\n      0x00\n        /* \"#utility.yul\":1823:1829   */\n      dup2\n        /* \"#utility.yul\":1810:1830   */\n      calldataload\n        /* \"#utility.yul\":1801:1830   */\n      swap1\n      pop\n        /* \"#utility.yul\":1839:1872   */\n      tag_90\n        /* \"#utility.yul\":1866:1871   */\n      dup2\n        /* \"#utility.yul\":1839:1872   */\n      tag_54\n      jump\t// in\n    tag_90:\n        /* \"#utility.yul\":1739:1878   */\n      swap3\n      swap2\n      pop\n      pop\n      jump\t// out\n        /* \"#utility.yul\":1884:2649   */\n    tag_17:\n        /* \"#utility.yul\":1970:1976   */\n      0x00\n        /* \"#utility.yul\":1978:1984   */\n      dup1\n        /* \"#utility.yul\":1986:1992   */\n      0x00\n        /* \"#utility.yul\":1994:2000   */\n      dup1\n        /* \"#utility.yul\":2043:2046   */\n      0x80\n        /* \"#utility.yul\":2031:2040   */\n      dup6\n        /* \"#utility.yul\":2022:2029   */\n      dup8\n        /* \"#utility.yul\":2018:2041   */\n      sub\n        /* \"#utility.yul\":2014:2047   */\n      slt\n        /* \"#utility.yul\":2011:2131   */\n      iszero\n      tag_92\n      jumpi\n        /* \"#utility.yul\":2050:2129   */\n      tag_93\n      tag_46\n      jump\t// in\n    tag_93:\n        /* \"#utility.yul\":2011:2131   */\n    tag_92:\n        /* \"#utility.yul\":2170:2171   */\n      0x00\n        /* \"#utility.yul\":2195:2248   */\n      tag_94\n        /* \"#utility.yul\":2240:2247   */\n      dup8\n        /* \"#utility.yul\":2231:2237   */\n      dup3\n        /* \"#utility.yul\":2220:2229   */\n      dup9\n        /* \"#utility.yul\":2216:2238   */\n      add\n        /* \"#utility.yul\":2195:2248   */\n      tag_55\n      jump\t// in\n    tag_94:\n        /* \"#utility.yul\":2185:2248   */\n      swap5\n      pop\n        /* \"#utility.yul\":2141:2258   */\n      pop\n        /* \"#utility.yul\":2297:2299   */\n      0x20\n        /* \"#utility.yul\":2323:2376   */\n      tag_95\n        /* \"#utility.yul\":2368:2375   */\n      dup8\n        /* \"#utility.yul\":2359:2365   */\n      dup3\n        /* \"#utility.yul\":2348:2357   */\n      dup9\n        /* \"#utility.yul\":2344:2366   */\n      add\n        /* \"#utility.yul\":2323:2376   */\n      tag_55\n      jump\t// in\n    tag_95:\n        /* \"#utility.yul\":2313:2376   */\n      swap4\n      pop\n        /* \"#utility.yul\":2268:2386   */\n      pop\n        /* \"#utility.yul\":2425:2427   */\n      0x40\n        /* \"#utility.yul\":2451:2504   */\n      tag_96\n        /* \"#utility.yul\":2496:2503   */\n      dup8\n        /* \"#utility.yul\":2487:2493   */\n      dup3\n        /* \"#utility.yul\":2476:2485   */\n      dup9\n        /* \"#utility.yul\":2472:2494   */\n      add\n        /* \"#utility.yul\":2451:2504   */\n      tag_55\n      jump\t// in\n    tag_96:\n        /* \"#utility.yul\":2441:2504   */\n      swap3\n      pop\n        /* \"#utility.yul\":2396:2514   */\n      pop\n        /* \"#utility.yul\":2553:2555   */\n      0x60\n        /* \"#utility.yul\":2579:2632   */\n      tag_97\n        /* \"#utility.yul\":2624:2631   */\n      dup8\n        /* \"#utility.yul\":2615:2621   */\n      dup3\n        /* \"#utility.yul\":2604:2613   */\n      dup9\n        /* \"#utility.yul\":2600:2622   */\n      add\n        /* \"#utility.yul\":2579:2632   */\n      tag_50\n      jump\t// in\n    tag_97:\n        /* \"#utility.yul\":2569:2632   */\n      swap2\n      pop\n        /* \"#utility.yul\":2524:2642   */\n      pop\n        /* \"#utility.yul\":1884:2649   */\n      swap3\n      swap6\n      swap2\n      swap5\n      pop\n      swap3\n      pop\n      jump\t// out\n        /* \"#utility.yul\":2655:2773   */\n    tag_56:\n        /* \"#utility.yul\":2742:2766   */\n      tag_99\n        /* \"#utility.yul\":2760:2765   */\n      dup2\n        /* \"#utility.yul\":2742:2766   */\n      tag_53\n      jump\t// in\n    tag_99:\n        /* \"#utility.yul\":2737:2740   */\n      dup3\n        /* \"#utility.yul\":2730:2767   */\n      mstore\n        /* \"#utility.yul\":2655:2773   */\n      pop\n      pop\n      jump\t// out\n        /* \"#utility.yul\":2779:3001   */\n    tag_22:\n        /* \"#utility.yul\":2872:2876   */\n      0x00\n        /* \"#utility.yul\":2910:2912   */\n      0x20\n        /* \"#utility.yul\":2899:2908   */\n      dup3\n        /* \"#utility.yul\":2895:2913   */\n      add\n        /* \"#utility.yul\":2887:2913   */\n      swap1\n      pop\n        /* \"#utility.yul\":2923:2994   */\n      tag_101\n        /* \"#utility.yul\":2991:2992   */\n      0x00\n        /* \"#utility.yul\":2980:2989   */\n      dup4\n        /* \"#utility.yul\":2976:2993   */\n      add\n        /* \"#utility.yul\":2967:2973   */\n      dup5\n        /* \"#utility.yul\":2923:2994   */\n      tag_56\n      jump\t// in\n    tag_101:\n        /* \"#utility.yul\":2779:3001   */\n      swap3\n      swap2\n      pop\n      pop\n      jump\t// out\n        /* \"#utility.yul\":3007:3176   */\n    tag_57:\n        /* \"#utility.yul\":3091:3102   */\n      0x00\n        /* \"#utility.yul\":3125:3131   */\n      dup3\n        /* \"#utility.yul\":3120:3123   */\n      dup3\n        /* \"#utility.yul\":3113:3132   */\n      mstore\n        /* \"#utility.yul\":3165:3169   */\n      0x20\n        /* \"#utility.yul\":3160:3163   */\n      dup3\n        /* \"#utility.yul\":3156:3170   */\n      add\n        /* \"#utility.yul\":3141:3170   */\n      swap1\n      pop\n        /* \"#utility.yul\":3007:3176   */\n      swap3\n      swap2\n      pop\n      pop\n      jump\t// out\n        /* \"#utility.yul\":3182:3405   */\n    tag_58:\n        /* \"#utility.yul\":3322:3356   */\n      0x4f6e6c79206f776e65722063616e20736574206c69717569646174696f6e2062\n        /* \"#utility.yul\":3318:3319   */\n      0x00\n        /* \"#utility.yul\":3310:3316   */\n      dup3\n        /* \"#utility.yul\":3306:3320   */\n      add\n        /* \"#utility.yul\":3299:3357   */\n      mstore\n        /* \"#utility.yul\":3391:3397   */\n      0x6f6e757300000000000000000000000000000000000000000000000000000000\n        /* \"#utility.yul\":3386:3388   */\n      0x20\n        /* \"#utility.yul\":3378:3384   */\n      dup3\n        /* \"#utility.yul\":3374:3389   */\n      add\n        /* \"#utility.yul\":3367:3398   */\n      mstore\n        /* \"#utility.yul\":3182:3405   */\n      pop\n      jump\t// out\n        /* \"#utility.yul\":3411:3777   */\n    tag_59:\n        /* \"#utility.yul\":3553:3556   */\n      0x00\n        /* \"#utility.yul\":3574:3641   */\n      tag_105\n        /* \"#utility.yul\":3638:3640   */\n      0x24\n        /* \"#utility.yul\":3633:3636   */\n      dup4\n        /* \"#utility.yul\":3574:3641   */\n      tag_57\n      jump\t// in\n    tag_105:\n        /* \"#utility.yul\":3567:3641   */\n      swap2\n      pop\n        /* \"#utility.yul\":3650:3743   */\n      tag_106\n        /* \"#utility.yul\":3739:3742   */\n      dup3\n        /* \"#utility.yul\":3650:3743   */\n      tag_58\n      jump\t// in\n    tag_106:\n        /* \"#utility.yul\":3768:3770   */\n      0x40\n        /* \"#utility.yul\":3763:3766   */\n      dup3\n        /* \"#utility.yul\":3759:3771   */\n      add\n        /* \"#utility.yul\":3752:3771   */\n      swap1\n      pop\n        /* \"#utility.yul\":3411:3777   */\n      swap2\n      swap1\n      pop\n      jump\t// out\n        /* \"#utility.yul\":3783:4202   */\n    tag_26:\n        /* \"#utility.yul\":3949:3953   */\n      0x00\n        /* \"#utility.yul\":3987:3989   */\n      0x20\n        /* \"#utility.yul\":3976:3985   */\n      dup3\n        /* \"#utility.yul\":3972:3990   */\n      add\n        /* \"#utility.yul\":3964:3990   */\n      swap1\n      pop\n        /* \"#utility.yul\":4036:4045   */\n      dup2\n        /* \"#utility.yul\":4030:4034   */\n      dup2\n        /* \"#utility.yul\":4026:4046   */\n      sub\n        /* \"#utility.yul\":4022:4023   */\n      0x00\n        /* \"#utility.yul\":4011:4020   */\n      dup4\n        /* \"#utility.yul\":4007:4024   */\n      add\n        /* \"#utility.yul\":4000:4047   */\n      mstore\n        /* \"#utility.yul\":4064:4195   */\n      tag_108\n        /* \"#utility.yul\":4190:4194   */\n      dup2\n        /* \"#utility.yul\":4064:4195   */\n      tag_59\n      jump\t// in\n    tag_108:\n        /* \"#utility.yul\":4056:4195   */\n      swap1\n      pop\n        /* \"#utility.yul\":3783:4202   */\n      swap2\n      swap1\n      pop\n      jump\t// out\n        /* \"#utility.yul\":4208:4388   */\n    tag_60:\n        /* \"#utility.yul\":4256:4333   */\n      0x4e487b7100000000000000000000000000000000000000000000000000000000\n        /* \"#utility.yul\":4253:4254   */\n      0x00\n        /* \"#utility.yul\":4246:4334   */\n      mstore\n        /* \"#utility.yul\":4353:4357   */\n      0x11\n        /* \"#utility.yul\":4350:4351   */\n      0x04\n        /* \"#utility.yul\":4343:4358   */\n      mstore\n        /* \"#utility.yul\":4377:4381   */\n      0x24\n        /* \"#utility.yul\":4374:4375   */\n      0x00\n        /* \"#utility.yul\":4367:4382   */\n      revert\n        /* \"#utility.yul\":4394:4585   */\n    tag_29:\n        /* \"#utility.yul\":4434:4437   */\n      0x00\n        /* \"#utility.yul\":4453:4473   */\n      tag_111\n        /* \"#utility.yul\":4471:4472   */\n      dup3\n        /* \"#utility.yul\":4453:4473   */\n      tag_48\n      jump\t// in\n    tag_111:\n        /* \"#utility.yul\":4448:4473   */\n      swap2\n      pop\n        /* \"#utility.yul\":4487:4507   */\n      tag_112\n        /* \"#utility.yul\":4505:4506   */\n      dup4\n        /* \"#utility.yul\":4487:4507   */\n      tag_48\n      jump\t// in\n    tag_112:\n        /* \"#utility.yul\":4482:4507   */\n      swap3\n      pop\n        /* \"#utility.yul\":4530:4531   */\n      dup3\n        /* \"#utility.yul\":4527:4528   */\n      dup3\n        /* \"#utility.yul\":4523:4532   */\n      add\n        /* \"#utility.yul\":4516:4532   */\n      swap1\n      pop\n        /* \"#utility.yul\":4551:4554   */\n      dup1\n        /* \"#utility.yul\":4548:4549   */\n      dup3\n        /* \"#utility.yul\":4545:4555   */\n      gt\n        /* \"#utility.yul\":4542:4578   */\n      iszero\n      tag_113\n      jumpi\n        /* \"#utility.yul\":4558:4576   */\n      tag_114\n      tag_60\n      jump\t// in\n    tag_114:\n        /* \"#utility.yul\":4542:4578   */\n    tag_113:\n        /* \"#utility.yul\":4394:4585   */\n      swap3\n      swap2\n      pop\n      pop\n      jump\t// out\n        /* \"#utility.yul\":4591:5001   */\n    tag_31:\n        /* \"#utility.yul\":4631:4638   */\n      0x00\n        /* \"#utility.yul\":4654:4674   */\n      tag_116\n        /* \"#utility.yul\":4672:4673   */\n      dup3\n        /* \"#utility.yul\":4654:4674   */\n      tag_48\n      jump\t// in\n    tag_116:\n        /* \"#utility.yul\":4649:4674   */\n      swap2\n      pop\n        /* \"#utility.yul\":4688:4708   */\n      tag_117\n        /* \"#utility.yul\":4706:4707   */\n      dup4\n        /* \"#utility.yul\":4688:4708   */\n      tag_48\n      jump\t// in\n    tag_117:\n        /* \"#utility.yul\":4683:4708   */\n      swap3\n      pop\n        /* \"#utility.yul\":4743:4744   */\n      dup3\n        /* \"#utility.yul\":4740:4741   */\n      dup3\n        /* \"#utility.yul\":4736:4745   */\n      mul\n        /* \"#utility.yul\":4765:4795   */\n      tag_118\n        /* \"#utility.yul\":4783:4794   */\n      dup2\n        /* \"#utility.yul\":4765:4795   */\n      tag_48\n      jump\t// in\n    tag_118:\n        /* \"#utility.yul\":4754:4795   */\n      swap2\n      pop\n        /* \"#utility.yul\":4944:4945   */\n      dup3\n        /* \"#utility.yul\":4935:4942   */\n      dup3\n        /* \"#utility.yul\":4931:4946   */\n      div\n        /* \"#utility.yul\":4928:4929   */\n      dup5\n        /* \"#utility.yul\":4925:4947   */\n      eq\n        /* \"#utility.yul\":4905:4906   */\n      dup4\n        /* \"#utility.yul\":4898:4907   */\n      iszero\n        /* \"#utility.yul\":4878:4961   */\n      or\n        /* \"#utility.yul\":4855:4994   */\n      tag_119\n      jumpi\n        /* \"#utility.yul\":4974:4992   */\n      tag_120\n      tag_60\n      jump\t// in\n    tag_120:\n        /* \"#utility.yul\":4855:4994   */\n    tag_119:\n        /* \"#utility.yul\":4639:5001   */\n      pop\n        /* \"#utility.yul\":4591:5001   */\n      swap3\n      swap2\n      pop\n      pop\n      jump\t// out\n        /* \"#utility.yul\":5007:5187   */\n    tag_61:\n        /* \"#utility.yul\":5055:5132   */\n      0x4e487b7100000000000000000000000000000000000000000000000000000000\n        /* \"#utility.yul\":5052:5053   */\n      0x00\n        /* \"#utility.yul\":5045:5133   */\n      mstore\n        /* \"#utility.yul\":5152:5156   */\n      0x12\n        /* \"#utility.yul\":5149:5150   */\n      0x04\n        /* \"#utility.yul\":5142:5157   */\n      mstore\n        /* \"#utility.yul\":5176:5180   */\n      0x24\n        /* \"#utility.yul\":5173:5174   */\n      0x00\n        /* \"#utility.yul\":5166:5181   */\n      revert\n        /* \"#utility.yul\":5193:5378   */\n    tag_33:\n        /* \"#utility.yul\":5233:5234   */\n      0x00\n        /* \"#utility.yul\":5250:5270   */\n      tag_123\n        /* \"#utility.yul\":5268:5269   */\n      dup3\n        /* \"#utility.yul\":5250:5270   */\n      tag_48\n      jump\t// in\n    tag_123:\n        /* \"#utility.yul\":5245:5270   */\n      swap2\n      pop\n        /* \"#utility.yul\":5284:5304   */\n      tag_124\n        /* \"#utility.yul\":5302:5303   */\n      dup4\n        /* \"#utility.yul\":5284:5304   */\n      tag_48\n      jump\t// in\n    tag_124:\n        /* \"#utility.yul\":5279:5304   */\n      swap3\n      pop\n        /* \"#utility.yul\":5323:5324   */\n      dup3\n        /* \"#utility.yul\":5313:5348   */\n      tag_125\n      jumpi\n        /* \"#utility.yul\":5328:5346   */\n      tag_126\n      tag_61\n      jump\t// in\n    tag_126:\n        /* \"#utility.yul\":5313:5348   */\n    tag_125:\n        /* \"#utility.yul\":5370:5371   */\n      dup3\n        /* \"#utility.yul\":5367:5368   */\n      dup3\n        /* \"#utility.yul\":5363:5372   */\n      div\n        /* \"#utility.yul\":5358:5372   */\n      swap1\n      pop\n        /* \"#utility.yul\":5193:5378   */\n      swap3\n      swap2\n      pop\n      pop\n      jump\t// out\n        /* \"#utility.yul\":5384:5716   */\n    tag_35:\n        /* \"#utility.yul\":5505:5509   */\n      0x00\n        /* \"#utility.yul\":5543:5545   */\n      0x40\n        /* \"#utility.yul\":5532:5541   */\n      dup3\n        /* \"#utility.yul\":5528:5546   */\n      add\n        /* \"#utility.yul\":5520:5546   */\n      swap1\n      pop\n        /* \"#utility.yul\":5556:5627   */\n      tag_128\n        /* \"#utility.yul\":5624:5625   */\n      0x00\n        /* \"#utility.yul\":5613:5622   */\n      dup4\n        /* \"#utility.yul\":5609:5626   */\n      add\n        /* \"#utility.yul\":5600:5606   */\n      dup6\n        /* \"#utility.yul\":5556:5627   */\n      tag_56\n      jump\t// in\n    tag_128:\n        /* \"#utility.yul\":5637:5709   */\n      tag_129\n        /* \"#utility.yul\":5705:5707   */\n      0x20\n        /* \"#utility.yul\":5694:5703   */\n      dup4\n        /* \"#utility.yul\":5690:5708   */\n      add\n        /* \"#utility.yul\":5681:5687   */\n      dup5\n        /* \"#utility.yul\":5637:5709   */\n      tag_51\n      jump\t// in\n    tag_129:\n        /* \"#utility.yul\":5384:5716   */\n      swap4\n      swap3\n      pop\n      pop\n      pop\n      jump\t// out\n        /* \"#utility.yul\":5722:5812   */\n    tag_62:\n        /* \"#utility.yul\":5756:5763   */\n      0x00\n        /* \"#utility.yul\":5799:5804   */\n      dup2\n        /* \"#utility.yul\":5792:5805   */\n      iszero\n        /* \"#utility.yul\":5785:5806   */\n      iszero\n        /* \"#utility.yul\":5774:5806   */\n      swap1\n      pop\n        /* \"#utility.yul\":5722:5812   */\n      swap2\n      swap1\n      pop\n      jump\t// out\n        /* \"#utility.yul\":5818:5934   */\n    tag_63:\n        /* \"#utility.yul\":5888:5909   */\n      tag_132\n        /* \"#utility.yul\":5903:5908   */\n      dup2\n        /* \"#utility.yul\":5888:5909   */\n      tag_62\n      jump\t// in\n    tag_132:\n        /* \"#utility.yul\":5881:5886   */\n      dup2\n        /* \"#utility.yul\":5878:5910   */\n      eq\n        /* \"#utility.yul\":5868:5928   */\n      tag_133\n      jumpi\n        /* \"#utility.yul\":5924:5925   */\n      0x00\n        /* \"#utility.yul\":5921:5922   */\n      dup1\n        /* \"#utility.yul\":5914:5926   */\n      revert\n        /* \"#utility.yul\":5868:5928   */\n    tag_133:\n        /* \"#utility.yul\":5818:5934   */\n      pop\n      jump\t// out\n        /* \"#utility.yul\":5940:6077   */\n    tag_64:\n        /* \"#utility.yul\":5994:5999   */\n      0x00\n        /* \"#utility.yul\":6025:6031   */\n      dup2\n        /* \"#utility.yul\":6019:6032   */\n      mload\n        /* \"#utility.yul\":6010:6032   */\n      swap1\n      pop\n        /* \"#utility.yul\":6041:6071   */\n      tag_135\n        /* \"#utility.yul\":6065:6070   */\n      dup2\n        /* \"#utility.yul\":6041:6071   */\n      tag_63\n      jump\t// in\n    tag_135:\n        /* \"#utility.yul\":5940:6077   */\n      swap3\n      swap2\n      pop\n      pop\n      jump\t// out\n        /* \"#utility.yul\":6083:6428   */\n    tag_39:\n        /* \"#utility.yul\":6150:6156   */\n      0x00\n        /* \"#utility.yul\":6199:6201   */\n      0x20\n        /* \"#utility.yul\":6187:6196   */\n      dup3\n        /* \"#utility.yul\":6178:6185   */\n      dup5\n        /* \"#utility.yul\":6174:6197   */\n      sub\n        /* \"#utility.yul\":6170:6202   */\n      slt\n        /* \"#utility.yul\":6167:6286   */\n      iszero\n      tag_137\n      jumpi\n        /* \"#utility.yul\":6205:6284   */\n      tag_138\n      tag_46\n      jump\t// in\n    tag_138:\n        /* \"#utility.yul\":6167:6286   */\n    tag_137:\n        /* \"#utility.yul\":6325:6326   */\n      0x00\n        /* \"#utility.yul\":6350:6411   */\n      tag_139\n        /* \"#utility.yul\":6403:6410   */\n      dup5\n        /* \"#utility.yul\":6394:6400   */\n      dup3\n        /* \"#utility.yul\":6383:6392   */\n      dup6\n        /* \"#utility.yul\":6379:6401   */\n      add\n        /* \"#utility.yul\":6350:6411   */\n      tag_64\n      jump\t// in\n    tag_139:\n        /* \"#utility.yul\":6340:6411   */\n      swap2\n      pop\n        /* \"#utility.yul\":6296:6421   */\n      pop\n        /* \"#utility.yul\":6083:6428   */\n      swap3\n      swap2\n      pop\n      pop\n      jump\t// out\n        /* \"#utility.yul\":6434:6876   */\n    tag_41:\n        /* \"#utility.yul\":6583:6587   */\n      0x00\n        /* \"#utility.yul\":6621:6623   */\n      0x60\n        /* \"#utility.yul\":6610:6619   */\n      dup3\n        /* \"#utility.yul\":6606:6624   */\n      add\n        /* \"#utility.yul\":6598:6624   */\n      swap1\n      pop\n        /* \"#utility.yul\":6634:6705   */\n      tag_141\n        /* \"#utility.yul\":6702:6703   */\n      0x00\n        /* \"#utility.yul\":6691:6700   */\n      dup4\n        /* \"#utility.yul\":6687:6704   */\n      add\n        /* \"#utility.yul\":6678:6684   */\n      dup7\n        /* \"#utility.yul\":6634:6705   */\n      tag_56\n      jump\t// in\n    tag_141:\n        /* \"#utility.yul\":6715:6787   */\n      tag_142\n        /* \"#utility.yul\":6783:6785   */\n      0x20\n        /* \"#utility.yul\":6772:6781   */\n      dup4\n        /* \"#utility.yul\":6768:6786   */\n      add\n        /* \"#utility.yul\":6759:6765   */\n      dup6\n        /* \"#utility.yul\":6715:6787   */\n      tag_56\n      jump\t// in\n    tag_142:\n        /* \"#utility.yul\":6797:6869   */\n      tag_143\n        /* \"#utility.yul\":6865:6867   */\n      0x40\n        /* \"#utility.yul\":6854:6863   */\n      dup4\n        /* \"#utility.yul\":6850:6868   */\n      add\n        /* \"#utility.yul\":6841:6847   */\n      dup5\n        /* \"#utility.yul\":6797:6869   */\n      tag_51\n      jump\t// in\n    tag_143:\n        /* \"#utility.yul\":6434:6876   */\n      swap5\n      swap4\n      pop\n      pop\n      pop\n      pop\n      jump\t// out\n\n    auxdata: 0xa2646970667358221220c6c7f587dc26d2939536941126a552bea7a86a8e68f1c87dd435c356868e82a564736f6c63430008160033\n}\n",
				"bytecode": {
					"linkReferences": {},
					"object": "608060405234801561000f575f80fd5b50604051610798380380610798833981810160405281019061003191906100b4565b335f806101000a81548173ffffffffffffffffffffffffffffffffffffffff021916908373ffffffffffffffffffffffffffffffffffffffff16021790555080600181905550506100df565b5f80fd5b5f819050919050565b61009381610081565b811461009d575f80fd5b50565b5f815190506100ae8161008a565b92915050565b5f602082840312156100c9576100c861007d565b5b5f6100d6848285016100a0565b91505092915050565b6106ac806100ec5f395ff3fe608060405234801561000f575f80fd5b506004361061004a575f3560e01c806328842d4f1461004e5780637b7c1f4c1461006a57806380ec2eea146100885780638da5cb5b146100a4575b5f80fd5b610068600480360381019061006391906102e5565b6100c2565b005b610072610159565b60405161007f919061031f565b60405180910390f35b6100a2600480360381019061009d9190610392565b61015f565b005b6100ac61028b565b6040516100b99190610405565b60405180910390f35b5f8054906101000a900473ffffffffffffffffffffffffffffffffffffffff1673ffffffffffffffffffffffffffffffffffffffff163373ffffffffffffffffffffffffffffffffffffffff161461014f576040517f08c379a00000000000000000000000000000000000000000000000000000000081526004016101469061049e565b60405180910390fd5b8060018190555050565b60015481565b5f61271060015461271061017391906104e9565b8361017e919061051c565b610188919061058a565b90508373ffffffffffffffffffffffffffffffffffffffff1663a9059cbb33836040518363ffffffff1660e01b81526004016101c59291906105ba565b6020604051808303815f875af11580156101e1573d5f803e3d5ffd5b505050506040513d601f19601f820116820180604052508101906102059190610616565b508273ffffffffffffffffffffffffffffffffffffffff166323b872dd3387856040518463ffffffff1660e01b815260040161024393929190610641565b6020604051808303815f875af115801561025f573d5f803e3d5ffd5b505050506040513d601f19601f820116820180604052508101906102839190610616565b505050505050565b5f8054906101000a900473ffffffffffffffffffffffffffffffffffffffff1681565b5f80fd5b5f819050919050565b6102c4816102b2565b81146102ce575f80fd5b50565b5f813590506102df816102bb565b92915050565b5f602082840312156102fa576102f96102ae565b5b5f610307848285016102d1565b91505092915050565b610319816102b2565b82525050565b5f6020820190506103325f830184610310565b92915050565b5f73ffffffffffffffffffffffffffffffffffffffff82169050919050565b5f61036182610338565b9050919050565b61037181610357565b811461037b575f80fd5b50565b5f8135905061038c81610368565b92915050565b5f805f80608085870312156103aa576103a96102ae565b5b5f6103b78782880161037e565b94505060206103c88782880161037e565b93505060406103d98782880161037e565b92505060606103ea878288016102d1565b91505092959194509250565b6103ff81610357565b82525050565b5f6020820190506104185f8301846103f6565b92915050565b5f82825260208201905092915050565b7f4f6e6c79206f776e65722063616e20736574206c69717569646174696f6e20625f8201527f6f6e757300000000000000000000000000000000000000000000000000000000602082015250565b5f61048860248361041e565b91506104938261042e565b604082019050919050565b5f6020820190508181035f8301526104b58161047c565b9050919050565b7f4e487b71000000000000000000000000000000000000000000000000000000005f52601160045260245ffd5b5f6104f3826102b2565b91506104fe836102b2565b9250828201905080821115610516576105156104bc565b5b92915050565b5f610526826102b2565b9150610531836102b2565b925082820261053f816102b2565b91508282048414831517610556576105556104bc565b5b5092915050565b7f4e487b71000000000000000000000000000000000000000000000000000000005f52601260045260245ffd5b5f610594826102b2565b915061059f836102b2565b9250826105af576105ae61055d565b5b828204905092915050565b5f6040820190506105cd5f8301856103f6565b6105da6020830184610310565b9392505050565b5f8115159050919050565b6105f5816105e1565b81146105ff575f80fd5b50565b5f81519050610610816105ec565b92915050565b5f6020828403121561062b5761062a6102ae565b5b5f61063884828501610602565b91505092915050565b5f6060820190506106545f8301866103f6565b61066160208301856103f6565b61066e6040830184610310565b94935050505056fea2646970667358221220c6c7f587dc26d2939536941126a552bea7a86a8e68f1c87dd435c356868e82a564736f6c63430008160033",
					"opcodes": "PUSH1 0x80 PUSH1 0x40 MSTORE CALLVALUE DUP1 ISZERO PUSH2 0xF JUMPI PUSH0 DUP1 REVERT JUMPDEST POP PUSH1 0x40 MLOAD PUSH2 0x798 CODESIZE SUB DUP1 PUSH2 0x798 DUP4 CODECOPY DUP2 DUP2 ADD PUSH1 0x40 MSTORE DUP2 ADD SWAP1 PUSH2 0x31 SWAP2 SWAP1 PUSH2 0xB4 JUMP JUMPDEST CALLER PUSH0 DUP1 PUSH2 0x100 EXP DUP2 SLOAD DUP2 PUSH20 0xFFFFFFFFFFFFFFFFFFFFFFFFFFFFFFFFFFFFFFFF MUL NOT AND SWAP1 DUP4 PUSH20 0xFFFFFFFFFFFFFFFFFFFFFFFFFFFFFFFFFFFFFFFF AND MUL OR SWAP1 SSTORE POP DUP1 PUSH1 0x1 DUP2 SWAP1 SSTORE POP POP PUSH2 0xDF JUMP JUMPDEST PUSH0 DUP1 REVERT JUMPDEST PUSH0 DUP2 SWAP1 POP SWAP2 SWAP1 POP JUMP JUMPDEST PUSH2 0x93 DUP2 PUSH2 0x81 JUMP JUMPDEST DUP2 EQ PUSH2 0x9D JUMPI PUSH0 DUP1 REVERT JUMPDEST POP JUMP JUMPDEST PUSH0 DUP2 MLOAD SWAP1 POP PUSH2 0xAE DUP2 PUSH2 0x8A JUMP JUMPDEST SWAP3 SWAP2 POP POP JUMP JUMPDEST PUSH0 PUSH1 0x20 DUP3 DUP5 SUB SLT ISZERO PUSH2 0xC9 JUMPI PUSH2 0xC8 PUSH2 0x7D JUMP JUMPDEST JUMPDEST PUSH0 PUSH2 0xD6 DUP5 DUP3 DUP6 ADD PUSH2 0xA0 JUMP JUMPDEST SWAP2 POP POP SWAP3 SWAP2 POP POP JUMP JUMPDEST PUSH2 0x6AC DUP1 PUSH2 0xEC PUSH0 CODECOPY PUSH0 RETURN INVALID PUSH1 0x80 PUSH1 0x40 MSTORE CALLVALUE DUP1 ISZERO PUSH2 0xF JUMPI PUSH0 DUP1 REVERT JUMPDEST POP PUSH1 0x4 CALLDATASIZE LT PUSH2 0x4A JUMPI PUSH0 CALLDATALOAD PUSH1 0xE0 SHR DUP1 PUSH4 0x28842D4F EQ PUSH2 0x4E JUMPI DUP1 PUSH4 0x7B7C1F4C EQ PUSH2 0x6A JUMPI DUP1 PUSH4 0x80EC2EEA EQ PUSH2 0x88 JUMPI DUP1 PUSH4 0x8DA5CB5B EQ PUSH2 0xA4 JUMPI JUMPDEST PUSH0 DUP1 REVERT JUMPDEST PUSH2 0x68 PUSH1 0x4 DUP1 CALLDATASIZE SUB DUP2 ADD SWAP1 PUSH2 0x63 SWAP2 SWAP1 PUSH2 0x2E5 JUMP JUMPDEST PUSH2 0xC2 JUMP JUMPDEST STOP JUMPDEST PUSH2 0x72 PUSH2 0x159 JUMP JUMPDEST PUSH1 0x40 MLOAD PUSH2 0x7F SWAP2 SWAP1 PUSH2 0x31F JUMP JUMPDEST PUSH1 0x40 MLOAD DUP1 SWAP2 SUB SWAP1 RETURN JUMPDEST PUSH2 0xA2 PUSH1 0x4 DUP1 CALLDATASIZE SUB DUP2 ADD SWAP1 PUSH2 0x9D SWAP2 SWAP1 PUSH2 0x392 JUMP JUMPDEST PUSH2 0x15F JUMP JUMPDEST STOP JUMPDEST PUSH2 0xAC PUSH2 0x28B JUMP JUMPDEST PUSH1 0x40 MLOAD PUSH2 0xB9 SWAP2 SWAP1 PUSH2 0x405 JUMP JUMPDEST PUSH1 0x40 MLOAD DUP1 SWAP2 SUB SWAP1 RETURN JUMPDEST PUSH0 DUP1 SLOAD SWAP1 PUSH2 0x100 EXP SWAP1 DIV PUSH20 0xFFFFFFFFFFFFFFFFFFFFFFFFFFFFFFFFFFFFFFFF AND PUSH20 0xFFFFFFFFFFFFFFFFFFFFFFFFFFFFFFFFFFFFFFFF AND CALLER PUSH20 0xFFFFFFFFFFFFFFFFFFFFFFFFFFFFFFFFFFFFFFFF AND EQ PUSH2 0x14F JUMPI PUSH1 0x40 MLOAD PUSH32 0x8C379A000000000000000000000000000000000000000000000000000000000 DUP2 MSTORE PUSH1 0x4 ADD PUSH2 0x146 SWAP1 PUSH2 0x49E JUMP JUMPDEST PUSH1 0x40 MLOAD DUP1 SWAP2 SUB SWAP1 REVERT JUMPDEST DUP1 PUSH1 0x1 DUP2 SWAP1 SSTORE POP POP JUMP JUMPDEST PUSH1 0x1 SLOAD DUP2 JUMP JUMPDEST PUSH0 PUSH2 0x2710 PUSH1 0x1 SLOAD PUSH2 0x2710 PUSH2 0x173 SWAP2 SWAP1 PUSH2 0x4E9 JUMP JUMPDEST DUP4 PUSH2 0x17E SWAP2 SWAP1 PUSH2 0x51C JUMP JUMPDEST PUSH2 0x188 SWAP2 SWAP1 PUSH2 0x58A JUMP JUMPDEST SWAP1 POP DUP4 PUSH20 0xFFFFFFFFFFFFFFFFFFFFFFFFFFFFFFFFFFFFFFFF AND PUSH4 0xA9059CBB CALLER DUP4 PUSH1 0x40 MLOAD DUP4 PUSH4 0xFFFFFFFF AND PUSH1 0xE0 SHL DUP2 MSTORE PUSH1 0x4 ADD PUSH2 0x1C5 SWAP3 SWAP2 SWAP1 PUSH2 0x5BA JUMP JUMPDEST PUSH1 0x20 PUSH1 0x40 MLOAD DUP1 DUP4 SUB DUP2 PUSH0 DUP8 GAS CALL ISZERO DUP1 ISZERO PUSH2 0x1E1 JUMPI RETURNDATASIZE PUSH0 DUP1 RETURNDATACOPY RETURNDATASIZE PUSH0 REVERT JUMPDEST POP POP POP POP PUSH1 0x40 MLOAD RETURNDATASIZE PUSH1 0x1F NOT PUSH1 0x1F DUP3 ADD AND DUP3 ADD DUP1 PUSH1 0x40 MSTORE POP DUP2 ADD SWAP1 PUSH2 0x205 SWAP2 SWAP1 PUSH2 0x616 JUMP JUMPDEST POP DUP3 PUSH20 0xFFFFFFFFFFFFFFFFFFFFFFFFFFFFFFFFFFFFFFFF AND PUSH4 0x23B872DD CALLER DUP8 DUP6 PUSH1 0x40 MLOAD DUP5 PUSH4 0xFFFFFFFF AND PUSH1 0xE0 SHL DUP2 MSTORE PUSH1 0x4 ADD PUSH2 0x243 SWAP4 SWAP3 SWAP2 SWAP1 PUSH2 0x641 JUMP JUMPDEST PUSH1 0x20 PUSH1 0x40 MLOAD DUP1 DUP4 SUB DUP2 PUSH0 DUP8 GAS CALL ISZERO DUP1 ISZERO PUSH2 0x25F JUMPI RETURNDATASIZE PUSH0 DUP1 RETURNDATACOPY RETURNDATASIZE PUSH0 REVERT JUMPDEST POP POP POP POP PUSH1 0x40 MLOAD RETURNDATASIZE PUSH1 0x1F NOT PUSH1 0x1F DUP3 ADD AND DUP3 ADD DUP1 PUSH1 0x40 MSTORE POP DUP2 ADD SWAP1 PUSH2 0x283 SWAP2 SWAP1 PUSH2 0x616 JUMP JUMPDEST POP POP POP POP POP POP JUMP JUMPDEST PUSH0 DUP1 SLOAD SWAP1 PUSH2 0x100 EXP SWAP1 DIV PUSH20 0xFFFFFFFFFFFFFFFFFFFFFFFFFFFFFFFFFFFFFFFF AND DUP2 JUMP JUMPDEST PUSH0 DUP1 REVERT JUMPDEST PUSH0 DUP2 SWAP1 POP SWAP2 SWAP1 POP JUMP JUMPDEST PUSH2 0x2C4 DUP2 PUSH2 0x2B2 JUMP JUMPDEST DUP2 EQ PUSH2 0x2CE JUMPI PUSH0 DUP1 REVERT JUMPDEST POP JUMP JUMPDEST PUSH0 DUP2 CALLDATALOAD SWAP1 POP PUSH2 0x2DF DUP2 PUSH2 0x2BB JUMP JUMPDEST SWAP3 SWAP2 POP POP JUMP JUMPDEST PUSH0 PUSH1 0x20 DUP3 DUP5 SUB SLT ISZERO PUSH2 0x2FA JUMPI PUSH2 0x2F9 PUSH2 0x2AE JUMP JUMPDEST JUMPDEST PUSH0 PUSH2 0x307 DUP5 DUP3 DUP6 ADD PUSH2 0x2D1 JUMP JUMPDEST SWAP2 POP POP SWAP3 SWAP2 POP POP JUMP JUMPDEST PUSH2 0x319 DUP2 PUSH2 0x2B2 JUMP JUMPDEST DUP3 MSTORE POP POP JUMP JUMPDEST PUSH0 PUSH1 0x20 DUP3 ADD SWAP1 POP PUSH2 0x332 PUSH0 DUP4 ADD DUP5 PUSH2 0x310 JUMP JUMPDEST SWAP3 SWAP2 POP POP JUMP JUMPDEST PUSH0 PUSH20 0xFFFFFFFFFFFFFFFFFFFFFFFFFFFFFFFFFFFFFFFF DUP3 AND SWAP1 POP SWAP2 SWAP1 POP JUMP JUMPDEST PUSH0 PUSH2 0x361 DUP3 PUSH2 0x338 JUMP JUMPDEST SWAP1 POP SWAP2 SWAP1 POP JUMP JUMPDEST PUSH2 0x371 DUP2 PUSH2 0x357 JUMP JUMPDEST DUP2 EQ PUSH2 0x37B JUMPI PUSH0 DUP1 REVERT JUMPDEST POP JUMP JUMPDEST PUSH0 DUP2 CALLDATALOAD SWAP1 POP PUSH2 0x38C DUP2 PUSH2 0x368 JUMP JUMPDEST SWAP3 SWAP2 POP POP JUMP JUMPDEST PUSH0 DUP1 PUSH0 DUP1 PUSH1 0x80 DUP6 DUP8 SUB SLT ISZERO PUSH2 0x3AA JUMPI PUSH2 0x3A9 PUSH2 0x2AE JUMP JUMPDEST JUMPDEST PUSH0 PUSH2 0x3B7 DUP8 DUP3 DUP9 ADD PUSH2 0x37E JUMP JUMPDEST SWAP5 POP POP PUSH1 0x20 PUSH2 0x3C8 DUP8 DUP3 DUP9 ADD PUSH2 0x37E JUMP JUMPDEST SWAP4 POP POP PUSH1 0x40 PUSH2 0x3D9 DUP8 DUP3 DUP9 ADD PUSH2 0x37E JUMP JUMPDEST SWAP3 POP POP PUSH1 0x60 PUSH2 0x3EA DUP8 DUP3 DUP9 ADD PUSH2 0x2D1 JUMP JUMPDEST SWAP2 POP POP SWAP3 SWAP6 SWAP2 SWAP5 POP SWAP3 POP JUMP JUMPDEST PUSH2 0x3FF DUP2 PUSH2 0x357 JUMP JUMPDEST DUP3 MSTORE POP POP JUMP JUMPDEST PUSH0 PUSH1 0x20 DUP3 ADD SWAP1 POP PUSH2 0x418 PUSH0 DUP4 ADD DUP5 PUSH2 0x3F6 JUMP JUMPDEST SWAP3 SWAP2 POP POP JUMP JUMPDEST PUSH0 DUP3 DUP3 MSTORE PUSH1 0x20 DUP3 ADD SWAP1 POP SWAP3 SWAP2 POP POP JUMP JUMPDEST PUSH32 0x4F6E6C79206F776E65722063616E20736574206C69717569646174696F6E2062 PUSH0 DUP3 ADD MSTORE PUSH32 0x6F6E757300000000000000000000000000000000000000000000000000000000 PUSH1 0x20 DUP3 ADD MSTORE POP JUMP JUMPDEST PUSH0 PUSH2 0x488 PUSH1 0x24 DUP4 PUSH2 0x41E JUMP JUMPDEST SWAP2 POP PUSH2 0x493 DUP3 PUSH2 0x42E JUMP JUMPDEST PUSH1 0x40 DUP3 ADD SWAP1 POP SWAP2 SWAP1 POP JUMP JUMPDEST PUSH0 PUSH1 0x20 DUP3 ADD SWAP1 POP DUP2 DUP2 SUB PUSH0 DUP4 ADD MSTORE PUSH2 0x4B5 DUP2 PUSH2 0x47C JUMP JUMPDEST SWAP1 POP SWAP2 SWAP1 POP JUMP JUMPDEST PUSH32 0x4E487B7100000000000000000000000000000000000000000000000000000000 PUSH0 MSTORE PUSH1 0x11 PUSH1 0x4 MSTORE PUSH1 0x24 PUSH0 REVERT JUMPDEST PUSH0 PUSH2 0x4F3 DUP3 PUSH2 0x2B2 JUMP JUMPDEST SWAP2 POP PUSH2 0x4FE DUP4 PUSH2 0x2B2 JUMP JUMPDEST SWAP3 POP DUP3 DUP3 ADD SWAP1 POP DUP1 DUP3 GT ISZERO PUSH2 0x516 JUMPI PUSH2 0x515 PUSH2 0x4BC JUMP JUMPDEST JUMPDEST SWAP3 SWAP2 POP POP JUMP JUMPDEST PUSH0 PUSH2 0x526 DUP3 PUSH2 0x2B2 JUMP JUMPDEST SWAP2 POP PUSH2 0x531 DUP4 PUSH2 0x2B2 JUMP JUMPDEST SWAP3 POP DUP3 DUP3 MUL PUSH2 0x53F DUP2 PUSH2 0x2B2 JUMP JUMPDEST SWAP2 POP DUP3 DUP3 DIV DUP5 EQ DUP4 ISZERO OR PUSH2 0x556 JUMPI PUSH2 0x555 PUSH2 0x4BC JUMP JUMPDEST JUMPDEST POP SWAP3 SWAP2 POP POP JUMP JUMPDEST PUSH32 0x4E487B7100000000000000000000000000000000000000000000000000000000 PUSH0 MSTORE PUSH1 0x12 PUSH1 0x4 MSTORE PUSH1 0x24 PUSH0 REVERT JUMPDEST PUSH0 PUSH2 0x594 DUP3 PUSH2 0x2B2 JUMP JUMPDEST SWAP2 POP PUSH2 0x59F DUP4 PUSH2 0x2B2 JUMP JUMPDEST SWAP3 POP DUP3 PUSH2 0x5AF JUMPI PUSH2 0x5AE PUSH2 0x55D JUMP JUMPDEST JUMPDEST DUP3 DUP3 DIV SWAP1 POP SWAP3 SWAP2 POP POP JUMP JUMPDEST PUSH0 PUSH1 0x40 DUP3 ADD SWAP1 POP PUSH2 0x5CD PUSH0 DUP4 ADD DUP6 PUSH2 0x3F6 JUMP JUMPDEST PUSH2 0x5DA PUSH1 0x20 DUP4 ADD DUP5 PUSH2 0x310 JUMP JUMPDEST SWAP4 SWAP3 POP POP POP JUMP JUMPDEST PUSH0 DUP2 ISZERO ISZERO SWAP1 POP SWAP2 SWAP1 POP JUMP JUMPDEST PUSH2 0x5F5 DUP2 PUSH2 0x5E1 JUMP JUMPDEST DUP2 EQ PUSH2 0x5FF JUMPI PUSH0 DUP1 REVERT JUMPDEST POP JUMP JUMPDEST PUSH0 DUP2 MLOAD SWAP1 POP PUSH2 0x610 DUP2 PUSH2 0x5EC JUMP JUMPDEST SWAP3 SWAP2 POP POP JUMP JUMPDEST PUSH0 PUSH1 0x20 DUP3 DUP5 SUB SLT ISZERO PUSH2 0x62B JUMPI PUSH2 0x62A PUSH2 0x2AE JUMP JUMPDEST JUMPDEST PUSH0 PUSH2 0x638 DUP5 DUP3 DUP6 ADD PUSH2 0x602 JUMP JUMPDEST SWAP2 POP POP SWAP3 SWAP2 POP POP JUMP JUMPDEST PUSH0 PUSH1 0x60 DUP3 ADD SWAP1 POP PUSH2 0x654 PUSH0 DUP4 ADD DUP7 PUSH2 0x3F6 JUMP JUMPDEST PUSH2 0x661 PUSH1 0x20 DUP4 ADD DUP6 PUSH2 0x3F6 JUMP JUMPDEST PUSH2 0x66E PUSH1 0x40 DUP4 ADD DUP5 PUSH2 0x310 JUMP JUMPDEST SWAP5 SWAP4 POP POP POP POP JUMP INVALID LOG2 PUSH5 0x6970667358 0x22 SLT KECCAK256 0xC6 0xC7 CREATE2 DUP8 0xDC 0x26 0xD2 SWAP4 SWAP6 CALLDATASIZE SWAP5 GT 0x26 0xA5 MSTORE 0xBE 0xA7 0xA8 PUSH11 0x8E68F1C87DD435C356868E DUP3 0xA5 PUSH5 0x736F6C6343 STOP ADDMOD AND STOP CALLER "
				},
				"gasEstimates": {
					"creation": {
						"codeDepositCost": "341600",
						"executionCost": "infinite",
						"totalCost": "infinite"
					},
					"external": {
						"liquidatePosition(address,address,address,uint256)": "infinite",
						"liquidationBonus()": "2425",
						"owner()": "2549",
						"setLiquidationBonus(uint256)": "24659"
					}
				},
				"methodIdentifiers": {
					"liquidatePosition(address,address,address,uint256)": "80ec2eea",
					"liquidationBonus()": "7b7c1f4c",
					"owner()": "8da5cb5b",
					"setLiquidationBonus(uint256)": "28842d4f"
				}
			},
			"storageLayout": {
				"storage": [
					{
						"astId": 82,
						"contract": "contracts/LiquidationManager.sol:LiquidationManager",
						"label": "owner",
						"offset": 0,
						"slot": "0",
						"type": "t_address"
					},
					{
						"astId": 84,
						"contract": "contracts/LiquidationManager.sol:LiquidationManager",
						"label": "liquidationBonus",
						"offset": 0,
						"slot": "1",
						"type": "t_uint256"
					}
				],
				"types": {
					"t_address": {
						"encoding": "inplace",
						"label": "address",
						"numberOfBytes": "20"
					},
					"t_uint256": {
						"encoding": "inplace",
						"label": "uint256",
						"numberOfBytes": "32"
					}
				}
			},
			"userdoc": {
				"kind": "user",
				"methods": {},
				"version": 1
			}
		}
	}
}