{
	"contracts/LendingPool.sol": {
		"LendingPool": {
			"abi": [
				{
					"inputs": [
						{
							"internalType": "contract ERC20Token",
							"name": "_assetToken",
							"type": "address"
						},
						{
							"internalType": "contract InterestRateModel",
							"name": "_interestRateModel",
							"type": "address"
						},
						{
							"internalType": "contract CollateralManager",
							"name": "_collateralManager",
							"type": "address"
						},
						{
							"internalType": "contract LiquidationManager",
							"name": "_liquidationManager",
							"type": "address"
						}
					],
					"stateMutability": "nonpayable",
					"type": "constructor"
				},
				{
					"inputs": [],
					"name": "assetToken",
					"outputs": [
						{
							"internalType": "contract ERC20Token",
							"name": "",
							"type": "address"
						}
					],
					"stateMutability": "view",
					"type": "function"
				},
				{
					"inputs": [
						{
							"internalType": "uint256",
							"name": "amount",
							"type": "uint256"
						}
					],
					"name": "borrow",
					"outputs": [],
					"stateMutability": "nonpayable",
					"type": "function"
				},
				{
					"inputs": [
						{
							"internalType": "address",
							"name": "",
							"type": "address"
						}
					],
					"name": "borrowerDebt",
					"outputs": [
						{
							"internalType": "uint256",
							"name": "",
							"type": "uint256"
						}
					],
					"stateMutability": "view",
					"type": "function"
				},
				{
					"inputs": [
						{
							"internalType": "uint256",
							"name": "utilizationRate",
							"type": "uint256"
						}
					],
					"name": "calculateBorrowRate",
					"outputs": [
						{
							"internalType": "uint256",
							"name": "",
							"type": "uint256"
						}
					],
					"stateMutability": "view",
					"type": "function"
				},
				{
					"inputs": [],
					"name": "collateralManager",
					"outputs": [
						{
							"internalType": "contract CollateralManager",
							"name": "",
							"type": "address"
						}
					],
					"stateMutability": "view",
					"type": "function"
				},
				{
					"inputs": [
						{
							"internalType": "uint256",
							"name": "amount",
							"type": "uint256"
						}
					],
					"name": "deposit",
					"outputs": [],
					"stateMutability": "nonpayable",
					"type": "function"
				},
				{
					"inputs": [],
					"name": "getUtilizationRate",
					"outputs": [
						{
							"internalType": "uint256",
							"name": "",
							"type": "uint256"
						}
					],
					"stateMutability": "view",
					"type": "function"
				},
				{
					"inputs": [],
					"name": "interestRateModel",
					"outputs": [
						{
							"internalType": "contract InterestRateModel",
							"name": "",
							"type": "address"
						}
					],
					"stateMutability": "view",
					"type": "function"
				},
				{
					"inputs": [
						{
							"internalType": "address",
							"name": "",
							"type": "address"
						}
					],
					"name": "lenderBalance",
					"outputs": [
						{
							"internalType": "uint256",
							"name": "",
							"type": "uint256"
						}
					],
					"stateMutability": "view",
					"type": "function"
				},
				{
					"inputs": [
						{
							"internalType": "address",
							"name": "borrower",
							"type": "address"
						}
					],
					"name": "liquidate",
					"outputs": [],
					"stateMutability": "nonpayable",
					"type": "function"
				},
				{
					"inputs": [],
					"name": "liquidationManager",
					"outputs": [
						{
							"internalType": "contract LiquidationManager",
							"name": "",
							"type": "address"
						}
					],
					"stateMutability": "view",
					"type": "function"
				},
				{
					"inputs": [
						{
							"internalType": "uint256",
							"name": "amount",
							"type": "uint256"
						}
					],
					"name": "repay",
					"outputs": [],
					"stateMutability": "nonpayable",
					"type": "function"
				},
				{
					"inputs": [],
					"name": "totalBorrowed",
					"outputs": [
						{
							"internalType": "uint256",
							"name": "",
							"type": "uint256"
						}
					],
					"stateMutability": "view",
					"type": "function"
				},
				{
					"inputs": [],
					"name": "totalSupplied",
					"outputs": [
						{
							"internalType": "uint256",
							"name": "",
							"type": "uint256"
						}
					],
					"stateMutability": "view",
					"type": "function"
				},
				{
					"inputs": [
						{
							"internalType": "uint256",
							"name": "amount",
							"type": "uint256"
						}
					],
					"name": "withdraw",
					"outputs": [],
					"stateMutability": "nonpayable",
					"type": "function"
				}
			],
			"devdoc": {
				"kind": "dev",
				"methods": {},
				"version": 1
			},
			"evm": {
				"assembly": "    /* \"contracts/LendingPool.sol\":245:3718  contract LendingPool {... */\n  mstore(0x40, 0x80)\n    /* \"contracts/LendingPool.sol\":650:1027  constructor(... */\n  callvalue\n  dup1\n  iszero\n  tag_1\n  jumpi\n  0x00\n  dup1\n  revert\ntag_1:\n  pop\n  mload(0x40)\n  sub(codesize, bytecodeSize)\n  dup1\n  bytecodeSize\n  dup4\n  codecopy\n  dup2\n  dup2\n  add\n  0x40\n  mstore\n  dup2\n  add\n  swap1\n  tag_2\n  swap2\n  swap1\n  tag_3\n  jump\t// in\ntag_2:\n    /* \"contracts/LendingPool.sol\":863:874  _assetToken */\n  dup4\n    /* \"contracts/LendingPool.sol\":850:860  assetToken */\n  0x00\n  dup1\n    /* \"contracts/LendingPool.sol\":850:874  assetToken = _assetToken */\n  0x0100\n  exp\n  dup2\n  sload\n  dup2\n  0xffffffffffffffffffffffffffffffffffffffff\n  mul\n  not\n  and\n  swap1\n  dup4\n  0xffffffffffffffffffffffffffffffffffffffff\n  and\n  mul\n  or\n  swap1\n  sstore\n  pop\n    /* \"contracts/LendingPool.sol\":904:922  _interestRateModel */\n  dup3\n    /* \"contracts/LendingPool.sol\":884:901  interestRateModel */\n  0x01\n  0x00\n    /* \"contracts/LendingPool.sol\":884:922  interestRateModel = _interestRateModel */\n  0x0100\n  exp\n  dup2\n  sload\n  dup2\n  0xffffffffffffffffffffffffffffffffffffffff\n  mul\n  not\n  and\n  swap1\n  dup4\n  0xffffffffffffffffffffffffffffffffffffffff\n  and\n  mul\n  or\n  swap1\n  sstore\n  pop\n    /* \"contracts/LendingPool.sol\":952:970  _collateralManager */\n  dup2\n    /* \"contracts/LendingPool.sol\":932:949  collateralManager */\n  0x02\n  0x00\n    /* \"contracts/LendingPool.sol\":932:970  collateralManager = _collateralManager */\n  0x0100\n  exp\n  dup2\n  sload\n  dup2\n  0xffffffffffffffffffffffffffffffffffffffff\n  mul\n  not\n  and\n  swap1\n  dup4\n  0xffffffffffffffffffffffffffffffffffffffff\n  and\n  mul\n  or\n  swap1\n  sstore\n  pop\n    /* \"contracts/LendingPool.sol\":1001:1020  _liquidationManager */\n  dup1\n    /* \"contracts/LendingPool.sol\":980:998  liquidationManager */\n  0x03\n  0x00\n    /* \"contracts/LendingPool.sol\":980:1020  liquidationManager = _liquidationManager */\n  0x0100\n  exp\n  dup2\n  sload\n  dup2\n  0xffffffffffffffffffffffffffffffffffffffff\n  mul\n  not\n  and\n  swap1\n  dup4\n  0xffffffffffffffffffffffffffffffffffffffff\n  and\n  mul\n  or\n  swap1\n  sstore\n  pop\n    /* \"contracts/LendingPool.sol\":650:1027  constructor(... */\n  pop\n  pop\n  pop\n  pop\n    /* \"contracts/LendingPool.sol\":245:3718  contract LendingPool {... */\n  jump(tag_6)\n    /* \"#utility.yul\":88:205   */\ntag_8:\n    /* \"#utility.yul\":197:198   */\n  0x00\n    /* \"#utility.yul\":194:195   */\n  dup1\n    /* \"#utility.yul\":187:199   */\n  revert\n    /* \"#utility.yul\":334:460   */\ntag_10:\n    /* \"#utility.yul\":371:378   */\n  0x00\n    /* \"#utility.yul\":411:453   */\n  0xffffffffffffffffffffffffffffffffffffffff\n    /* \"#utility.yul\":404:409   */\n  dup3\n    /* \"#utility.yul\":400:454   */\n  and\n    /* \"#utility.yul\":389:454   */\n  swap1\n  pop\n    /* \"#utility.yul\":334:460   */\n  swap2\n  swap1\n  pop\n  jump\t// out\n    /* \"#utility.yul\":466:562   */\ntag_11:\n    /* \"#utility.yul\":503:510   */\n  0x00\n    /* \"#utility.yul\":532:556   */\n  tag_30\n    /* \"#utility.yul\":550:555   */\n  dup3\n    /* \"#utility.yul\":532:556   */\n  tag_10\n  jump\t// in\ntag_30:\n    /* \"#utility.yul\":521:556   */\n  swap1\n  pop\n    /* \"#utility.yul\":466:562   */\n  swap2\n  swap1\n  pop\n  jump\t// out\n    /* \"#utility.yul\":568:683   */\ntag_12:\n    /* \"#utility.yul\":624:631   */\n  0x00\n    /* \"#utility.yul\":653:677   */\n  tag_32\n    /* \"#utility.yul\":671:676   */\n  dup3\n    /* \"#utility.yul\":653:677   */\n  tag_11\n  jump\t// in\ntag_32:\n    /* \"#utility.yul\":642:677   */\n  swap1\n  pop\n    /* \"#utility.yul\":568:683   */\n  swap2\n  swap1\n  pop\n  jump\t// out\n    /* \"#utility.yul\":689:849   */\ntag_13:\n    /* \"#utility.yul\":781:824   */\n  tag_34\n    /* \"#utility.yul\":818:823   */\n  dup2\n    /* \"#utility.yul\":781:824   */\n  tag_12\n  jump\t// in\ntag_34:\n    /* \"#utility.yul\":774:779   */\n  dup2\n    /* \"#utility.yul\":771:825   */\n  eq\n    /* \"#utility.yul\":761:843   */\n  tag_35\n  jumpi\n    /* \"#utility.yul\":839:840   */\n  0x00\n    /* \"#utility.yul\":836:837   */\n  dup1\n    /* \"#utility.yul\":829:841   */\n  revert\n    /* \"#utility.yul\":761:843   */\ntag_35:\n    /* \"#utility.yul\":689:849   */\n  pop\n  jump\t// out\n    /* \"#utility.yul\":855:1036   */\ntag_14:\n    /* \"#utility.yul\":931:936   */\n  0x00\n    /* \"#utility.yul\":962:968   */\n  dup2\n    /* \"#utility.yul\":956:969   */\n  mload\n    /* \"#utility.yul\":947:969   */\n  swap1\n  pop\n    /* \"#utility.yul\":978:1030   */\n  tag_37\n    /* \"#utility.yul\":1024:1029   */\n  dup2\n    /* \"#utility.yul\":978:1030   */\n  tag_13\n  jump\t// in\ntag_37:\n    /* \"#utility.yul\":855:1036   */\n  swap3\n  swap2\n  pop\n  pop\n  jump\t// out\n    /* \"#utility.yul\":1042:1164   */\ntag_15:\n    /* \"#utility.yul\":1105:1112   */\n  0x00\n    /* \"#utility.yul\":1134:1158   */\n  tag_39\n    /* \"#utility.yul\":1152:1157   */\n  dup3\n    /* \"#utility.yul\":1134:1158   */\n  tag_11\n  jump\t// in\ntag_39:\n    /* \"#utility.yul\":1123:1158   */\n  swap1\n  pop\n    /* \"#utility.yul\":1042:1164   */\n  swap2\n  swap1\n  pop\n  jump\t// out\n    /* \"#utility.yul\":1170:1344   */\ntag_16:\n    /* \"#utility.yul\":1269:1319   */\n  tag_41\n    /* \"#utility.yul\":1313:1318   */\n  dup2\n    /* \"#utility.yul\":1269:1319   */\n  tag_15\n  jump\t// in\ntag_41:\n    /* \"#utility.yul\":1262:1267   */\n  dup2\n    /* \"#utility.yul\":1259:1320   */\n  eq\n    /* \"#utility.yul\":1249:1338   */\n  tag_42\n  jumpi\n    /* \"#utility.yul\":1334:1335   */\n  0x00\n    /* \"#utility.yul\":1331:1332   */\n  dup1\n    /* \"#utility.yul\":1324:1336   */\n  revert\n    /* \"#utility.yul\":1249:1338   */\ntag_42:\n    /* \"#utility.yul\":1170:1344   */\n  pop\n  jump\t// out\n    /* \"#utility.yul\":1350:1545   */\ntag_17:\n    /* \"#utility.yul\":1433:1438   */\n  0x00\n    /* \"#utility.yul\":1464:1470   */\n  dup2\n    /* \"#utility.yul\":1458:1471   */\n  mload\n    /* \"#utility.yul\":1449:1471   */\n  swap1\n  pop\n    /* \"#utility.yul\":1480:1539   */\n  tag_44\n    /* \"#utility.yul\":1533:1538   */\n  dup2\n    /* \"#utility.yul\":1480:1539   */\n  tag_16\n  jump\t// in\ntag_44:\n    /* \"#utility.yul\":1350:1545   */\n  swap3\n  swap2\n  pop\n  pop\n  jump\t// out\n    /* \"#utility.yul\":1551:1672   */\ntag_18:\n    /* \"#utility.yul\":1613:1620   */\n  0x00\n    /* \"#utility.yul\":1642:1666   */\n  tag_46\n    /* \"#utility.yul\":1660:1665   */\n  dup3\n    /* \"#utility.yul\":1642:1666   */\n  tag_11\n  jump\t// in\ntag_46:\n    /* \"#utility.yul\":1631:1666   */\n  swap1\n  pop\n    /* \"#utility.yul\":1551:1672   */\n  swap2\n  swap1\n  pop\n  jump\t// out\n    /* \"#utility.yul\":1678:1850   */\ntag_19:\n    /* \"#utility.yul\":1776:1825   */\n  tag_48\n    /* \"#utility.yul\":1819:1824   */\n  dup2\n    /* \"#utility.yul\":1776:1825   */\n  tag_18\n  jump\t// in\ntag_48:\n    /* \"#utility.yul\":1769:1774   */\n  dup2\n    /* \"#utility.yul\":1766:1826   */\n  eq\n    /* \"#utility.yul\":1756:1844   */\n  tag_49\n  jumpi\n    /* \"#utility.yul\":1840:1841   */\n  0x00\n    /* \"#utility.yul\":1837:1838   */\n  dup1\n    /* \"#utility.yul\":1830:1842   */\n  revert\n    /* \"#utility.yul\":1756:1844   */\ntag_49:\n    /* \"#utility.yul\":1678:1850   */\n  pop\n  jump\t// out\n    /* \"#utility.yul\":1856:2049   */\ntag_20:\n    /* \"#utility.yul\":1938:1943   */\n  0x00\n    /* \"#utility.yul\":1969:1975   */\n  dup2\n    /* \"#utility.yul\":1963:1976   */\n  mload\n    /* \"#utility.yul\":1954:1976   */\n  swap1\n  pop\n    /* \"#utility.yul\":1985:2043   */\n  tag_51\n    /* \"#utility.yul\":2037:2042   */\n  dup2\n    /* \"#utility.yul\":1985:2043   */\n  tag_19\n  jump\t// in\ntag_51:\n    /* \"#utility.yul\":1856:2049   */\n  swap3\n  swap2\n  pop\n  pop\n  jump\t// out\n    /* \"#utility.yul\":2055:2178   */\ntag_21:\n    /* \"#utility.yul\":2119:2126   */\n  0x00\n    /* \"#utility.yul\":2148:2172   */\n  tag_53\n    /* \"#utility.yul\":2166:2171   */\n  dup3\n    /* \"#utility.yul\":2148:2172   */\n  tag_11\n  jump\t// in\ntag_53:\n    /* \"#utility.yul\":2137:2172   */\n  swap1\n  pop\n    /* \"#utility.yul\":2055:2178   */\n  swap2\n  swap1\n  pop\n  jump\t// out\n    /* \"#utility.yul\":2184:2360   */\ntag_22:\n    /* \"#utility.yul\":2284:2335   */\n  tag_55\n    /* \"#utility.yul\":2329:2334   */\n  dup2\n    /* \"#utility.yul\":2284:2335   */\n  tag_21\n  jump\t// in\ntag_55:\n    /* \"#utility.yul\":2277:2282   */\n  dup2\n    /* \"#utility.yul\":2274:2336   */\n  eq\n    /* \"#utility.yul\":2264:2354   */\n  tag_56\n  jumpi\n    /* \"#utility.yul\":2350:2351   */\n  0x00\n    /* \"#utility.yul\":2347:2348   */\n  dup1\n    /* \"#utility.yul\":2340:2352   */\n  revert\n    /* \"#utility.yul\":2264:2354   */\ntag_56:\n    /* \"#utility.yul\":2184:2360   */\n  pop\n  jump\t// out\n    /* \"#utility.yul\":2366:2563   */\ntag_23:\n    /* \"#utility.yul\":2450:2455   */\n  0x00\n    /* \"#utility.yul\":2481:2487   */\n  dup2\n    /* \"#utility.yul\":2475:2488   */\n  mload\n    /* \"#utility.yul\":2466:2488   */\n  swap1\n  pop\n    /* \"#utility.yul\":2497:2557   */\n  tag_58\n    /* \"#utility.yul\":2551:2556   */\n  dup2\n    /* \"#utility.yul\":2497:2557   */\n  tag_22\n  jump\t// in\ntag_58:\n    /* \"#utility.yul\":2366:2563   */\n  swap3\n  swap2\n  pop\n  pop\n  jump\t// out\n    /* \"#utility.yul\":2569:3583   */\ntag_3:\n    /* \"#utility.yul\":2763:2769   */\n  0x00\n    /* \"#utility.yul\":2771:2777   */\n  dup1\n    /* \"#utility.yul\":2779:2785   */\n  0x00\n    /* \"#utility.yul\":2787:2793   */\n  dup1\n    /* \"#utility.yul\":2836:2839   */\n  0x80\n    /* \"#utility.yul\":2824:2833   */\n  dup6\n    /* \"#utility.yul\":2815:2822   */\n  dup8\n    /* \"#utility.yul\":2811:2834   */\n  sub\n    /* \"#utility.yul\":2807:2840   */\n  slt\n    /* \"#utility.yul\":2804:2924   */\n  iszero\n  tag_60\n  jumpi\n    /* \"#utility.yul\":2843:2922   */\n  tag_61\n  tag_8\n  jump\t// in\ntag_61:\n    /* \"#utility.yul\":2804:2924   */\ntag_60:\n    /* \"#utility.yul\":2963:2964   */\n  0x00\n    /* \"#utility.yul\":2988:3071   */\n  tag_62\n    /* \"#utility.yul\":3063:3070   */\n  dup8\n    /* \"#utility.yul\":3054:3060   */\n  dup3\n    /* \"#utility.yul\":3043:3052   */\n  dup9\n    /* \"#utility.yul\":3039:3061   */\n  add\n    /* \"#utility.yul\":2988:3071   */\n  tag_14\n  jump\t// in\ntag_62:\n    /* \"#utility.yul\":2978:3071   */\n  swap5\n  pop\n    /* \"#utility.yul\":2934:3081   */\n  pop\n    /* \"#utility.yul\":3120:3122   */\n  0x20\n    /* \"#utility.yul\":3146:3236   */\n  tag_63\n    /* \"#utility.yul\":3228:3235   */\n  dup8\n    /* \"#utility.yul\":3219:3225   */\n  dup3\n    /* \"#utility.yul\":3208:3217   */\n  dup9\n    /* \"#utility.yul\":3204:3226   */\n  add\n    /* \"#utility.yul\":3146:3236   */\n  tag_17\n  jump\t// in\ntag_63:\n    /* \"#utility.yul\":3136:3236   */\n  swap4\n  pop\n    /* \"#utility.yul\":3091:3246   */\n  pop\n    /* \"#utility.yul\":3285:3287   */\n  0x40\n    /* \"#utility.yul\":3311:3400   */\n  tag_64\n    /* \"#utility.yul\":3392:3399   */\n  dup8\n    /* \"#utility.yul\":3383:3389   */\n  dup3\n    /* \"#utility.yul\":3372:3381   */\n  dup9\n    /* \"#utility.yul\":3368:3390   */\n  add\n    /* \"#utility.yul\":3311:3400   */\n  tag_20\n  jump\t// in\ntag_64:\n    /* \"#utility.yul\":3301:3400   */\n  swap3\n  pop\n    /* \"#utility.yul\":3256:3410   */\n  pop\n    /* \"#utility.yul\":3449:3451   */\n  0x60\n    /* \"#utility.yul\":3475:3566   */\n  tag_65\n    /* \"#utility.yul\":3558:3565   */\n  dup8\n    /* \"#utility.yul\":3549:3555   */\n  dup3\n    /* \"#utility.yul\":3538:3547   */\n  dup9\n    /* \"#utility.yul\":3534:3556   */\n  add\n    /* \"#utility.yul\":3475:3566   */\n  tag_23\n  jump\t// in\ntag_65:\n    /* \"#utility.yul\":3465:3566   */\n  swap2\n  pop\n    /* \"#utility.yul\":3420:3576   */\n  pop\n    /* \"#utility.yul\":2569:3583   */\n  swap3\n  swap6\n  swap2\n  swap5\n  pop\n  swap3\n  pop\n  jump\t// out\n    /* \"contracts/LendingPool.sol\":245:3718  contract LendingPool {... */\ntag_6:\n  dataSize(sub_0)\n  dup1\n  dataOffset(sub_0)\n  0x00\n  codecopy\n  0x00\n  return\nstop\n\nsub_0: assembly {\n        /* \"contracts/LendingPool.sol\":245:3718  contract LendingPool {... */\n      mstore(0x40, 0x80)\n      callvalue\n      dup1\n      iszero\n      tag_1\n      jumpi\n      0x00\n      dup1\n      revert\n    tag_1:\n      pop\n      jumpi(tag_2, lt(calldatasize, 0x04))\n      shr(0xe0, calldataload(0x00))\n      dup1\n      0x3add60ab\n      gt\n      tag_18\n      jumpi\n      dup1\n      0xb6b55f25\n      gt\n      tag_19\n      jumpi\n      dup1\n      0xb6b55f25\n      eq\n      tag_14\n      jumpi\n      dup1\n      0xc5ebeaec\n      eq\n      tag_15\n      jumpi\n      dup1\n      0xe0bf2117\n      eq\n      tag_16\n      jumpi\n      dup1\n      0xf3fdb15a\n      eq\n      tag_17\n      jumpi\n      jump(tag_2)\n    tag_19:\n      dup1\n      0x3add60ab\n      eq\n      tag_10\n      jumpi\n      dup1\n      0x4a417a53\n      eq\n      tag_11\n      jumpi\n      dup1\n      0x4c19386c\n      eq\n      tag_12\n      jumpi\n      dup1\n      0x630fd0ac\n      eq\n      tag_13\n      jumpi\n      jump(tag_2)\n    tag_18:\n      dup1\n      0x275972ca\n      gt\n      tag_20\n      jumpi\n      dup1\n      0x275972ca\n      eq\n      tag_6\n      jumpi\n      dup1\n      0x2e1a7d4d\n      eq\n      tag_7\n      jumpi\n      dup1\n      0x2f865568\n      eq\n      tag_8\n      jumpi\n      dup1\n      0x371fd8e6\n      eq\n      tag_9\n      jumpi\n      jump(tag_2)\n    tag_20:\n      dup1\n      0x1083f761\n      eq\n      tag_3\n      jumpi\n      dup1\n      0x1ef3a04c\n      eq\n      tag_4\n      jumpi\n      dup1\n      0x23be345c\n      eq\n      tag_5\n      jumpi\n    tag_2:\n      0x00\n      dup1\n      revert\n        /* \"contracts/LendingPool.sol\":272:300  ERC20Token public assetToken */\n    tag_3:\n      tag_21\n      tag_22\n      jump\t// in\n    tag_21:\n      mload(0x40)\n      tag_23\n      swap2\n      swap1\n      tag_24\n      jump\t// in\n    tag_23:\n      mload(0x40)\n      dup1\n      swap2\n      sub\n      swap1\n      return\n        /* \"contracts/LendingPool.sol\":402:446  LiquidationManager public liquidationManager */\n    tag_4:\n      tag_25\n      tag_26\n      jump\t// in\n    tag_25:\n      mload(0x40)\n      tag_27\n      swap2\n      swap1\n      tag_28\n      jump\t// in\n    tag_27:\n      mload(0x40)\n      dup1\n      swap2\n      sub\n      swap1\n      return\n        /* \"contracts/LendingPool.sol\":354:396  CollateralManager public collateralManager */\n    tag_5:\n      tag_29\n      tag_30\n      jump\t// in\n    tag_29:\n      mload(0x40)\n      tag_31\n      swap2\n      swap1\n      tag_32\n      jump\t// in\n    tag_31:\n      mload(0x40)\n      dup1\n      swap2\n      sub\n      swap1\n      return\n        /* \"contracts/LendingPool.sol\":551:599  mapping(address => uint256) public lenderBalance */\n    tag_6:\n      tag_33\n      0x04\n      dup1\n      calldatasize\n      sub\n      dup2\n      add\n      swap1\n      tag_34\n      swap2\n      swap1\n      tag_35\n      jump\t// in\n    tag_34:\n      tag_36\n      jump\t// in\n    tag_33:\n      mload(0x40)\n      tag_37\n      swap2\n      swap1\n      tag_38\n      jump\t// in\n    tag_37:\n      mload(0x40)\n      dup1\n      swap2\n      sub\n      swap1\n      return\n        /* \"contracts/LendingPool.sol\":1201:1423  function withdraw(uint256 amount) external {... */\n    tag_7:\n      tag_39\n      0x04\n      dup1\n      calldatasize\n      sub\n      dup2\n      add\n      swap1\n      tag_40\n      swap2\n      swap1\n      tag_41\n      jump\t// in\n    tag_40:\n      tag_42\n      jump\t// in\n    tag_39:\n      stop\n        /* \"contracts/LendingPool.sol\":2442:3163  function liquidate(address borrower) external {... */\n    tag_8:\n      tag_43\n      0x04\n      dup1\n      calldatasize\n      sub\n      dup2\n      add\n      swap1\n      tag_44\n      swap2\n      swap1\n      tag_35\n      jump\t// in\n    tag_44:\n      tag_45\n      jump\t// in\n    tag_43:\n      stop\n        /* \"contracts/LendingPool.sol\":2105:2436  function repay(uint256 amount) external {... */\n    tag_9:\n      tag_46\n      0x04\n      dup1\n      calldatasize\n      sub\n      dup2\n      add\n      swap1\n      tag_47\n      swap2\n      swap1\n      tag_41\n      jump\t// in\n    tag_47:\n      tag_48\n      jump\t// in\n    tag_46:\n      stop\n        /* \"contracts/LendingPool.sol\":453:500  mapping(address => uint256) public borrowerDebt */\n    tag_10:\n      tag_49\n      0x04\n      dup1\n      calldatasize\n      sub\n      dup2\n      add\n      swap1\n      tag_50\n      swap2\n      swap1\n      tag_35\n      jump\t// in\n    tag_50:\n      tag_51\n      jump\t// in\n    tag_49:\n      mload(0x40)\n      tag_52\n      swap2\n      swap1\n      tag_38\n      jump\t// in\n    tag_52:\n      mload(0x40)\n      dup1\n      swap2\n      sub\n      swap1\n      return\n        /* \"contracts/LendingPool.sol\":3333:3458  function getUtilizationRate() public view returns (uint256) {... */\n    tag_11:\n      tag_53\n      tag_54\n      jump\t// in\n    tag_53:\n      mload(0x40)\n      tag_55\n      swap2\n      swap1\n      tag_38\n      jump\t// in\n    tag_55:\n      mload(0x40)\n      dup1\n      swap2\n      sub\n      swap1\n      return\n        /* \"contracts/LendingPool.sol\":3584:3716  function totalBorrowed() public view returns (uint256) {... */\n    tag_12:\n      tag_56\n      tag_57\n      jump\t// in\n    tag_56:\n      mload(0x40)\n      tag_58\n      swap2\n      swap1\n      tag_38\n      jump\t// in\n    tag_58:\n      mload(0x40)\n      dup1\n      swap2\n      sub\n      swap1\n      return\n        /* \"contracts/LendingPool.sol\":3464:3578  function totalSupplied() public view returns (uint256) {... */\n    tag_13:\n      tag_59\n      tag_60\n      jump\t// in\n    tag_59:\n      mload(0x40)\n      tag_61\n      swap2\n      swap1\n      tag_38\n      jump\t// in\n    tag_61:\n      mload(0x40)\n      dup1\n      swap2\n      sub\n      swap1\n      return\n        /* \"contracts/LendingPool.sol\":1033:1195  function deposit(uint256 amount) external {... */\n    tag_14:\n      tag_62\n      0x04\n      dup1\n      calldatasize\n      sub\n      dup2\n      add\n      swap1\n      tag_63\n      swap2\n      swap1\n      tag_41\n      jump\t// in\n    tag_63:\n      tag_64\n      jump\t// in\n    tag_62:\n      stop\n        /* \"contracts/LendingPool.sol\":1429:2099  function borrow(uint256 amount) external {... */\n    tag_15:\n      tag_65\n      0x04\n      dup1\n      calldatasize\n      sub\n      dup2\n      add\n      swap1\n      tag_66\n      swap2\n      swap1\n      tag_41\n      jump\t// in\n    tag_66:\n      tag_67\n      jump\t// in\n    tag_65:\n      stop\n        /* \"contracts/LendingPool.sol\":3169:3327  function calculateBorrowRate(uint256 utilizationRate) external view returns (uint256) {... */\n    tag_16:\n      tag_68\n      0x04\n      dup1\n      calldatasize\n      sub\n      dup2\n      add\n      swap1\n      tag_69\n      swap2\n      swap1\n      tag_41\n      jump\t// in\n    tag_69:\n      tag_70\n      jump\t// in\n    tag_68:\n      mload(0x40)\n      tag_71\n      swap2\n      swap1\n      tag_38\n      jump\t// in\n    tag_71:\n      mload(0x40)\n      dup1\n      swap2\n      sub\n      swap1\n      return\n        /* \"contracts/LendingPool.sol\":306:348  InterestRateModel public interestRateModel */\n    tag_17:\n      tag_72\n      tag_73\n      jump\t// in\n    tag_72:\n      mload(0x40)\n      tag_74\n      swap2\n      swap1\n      tag_75\n      jump\t// in\n    tag_74:\n      mload(0x40)\n      dup1\n      swap2\n      sub\n      swap1\n      return\n        /* \"contracts/LendingPool.sol\":272:300  ERC20Token public assetToken */\n    tag_22:\n      0x00\n      dup1\n      sload\n      swap1\n      0x0100\n      exp\n      swap1\n      div\n      0xffffffffffffffffffffffffffffffffffffffff\n      and\n      dup2\n      jump\t// out\n        /* \"contracts/LendingPool.sol\":402:446  LiquidationManager public liquidationManager */\n    tag_26:\n      0x03\n      0x00\n      swap1\n      sload\n      swap1\n      0x0100\n      exp\n      swap1\n      div\n      0xffffffffffffffffffffffffffffffffffffffff\n      and\n      dup2\n      jump\t// out\n        /* \"contracts/LendingPool.sol\":354:396  CollateralManager public collateralManager */\n    tag_30:\n      0x02\n      0x00\n      swap1\n      sload\n      swap1\n      0x0100\n      exp\n      swap1\n      div\n      0xffffffffffffffffffffffffffffffffffffffff\n      and\n      dup2\n      jump\t// out\n        /* \"contracts/LendingPool.sol\":551:599  mapping(address => uint256) public lenderBalance */\n    tag_36:\n      mstore(0x20, 0x05)\n      dup1\n      0x00\n      mstore\n      keccak256(0x00, 0x40)\n      0x00\n      swap2\n      pop\n      swap1\n      pop\n      sload\n      dup2\n      jump\t// out\n        /* \"contracts/LendingPool.sol\":1201:1423  function withdraw(uint256 amount) external {... */\n    tag_42:\n        /* \"contracts/LendingPool.sol\":1291:1297  amount */\n      dup1\n        /* \"contracts/LendingPool.sol\":1262:1275  lenderBalance */\n      0x05\n        /* \"contracts/LendingPool.sol\":1262:1287  lenderBalance[msg.sender] */\n      0x00\n        /* \"contracts/LendingPool.sol\":1276:1286  msg.sender */\n      caller\n        /* \"contracts/LendingPool.sol\":1262:1287  lenderBalance[msg.sender] */\n      0xffffffffffffffffffffffffffffffffffffffff\n      and\n      0xffffffffffffffffffffffffffffffffffffffff\n      and\n      dup2\n      mstore\n      0x20\n      add\n      swap1\n      dup2\n      mstore\n      0x20\n      add\n      0x00\n      keccak256\n      sload\n        /* \"contracts/LendingPool.sol\":1262:1297  lenderBalance[msg.sender] >= amount */\n      lt\n      iszero\n        /* \"contracts/LendingPool.sol\":1254:1322  require(lenderBalance[msg.sender] >= amount, \"Insufficient balance\") */\n      tag_77\n      jumpi\n      mload(0x40)\n      0x08c379a000000000000000000000000000000000000000000000000000000000\n      dup2\n      mstore\n      0x04\n      add\n      tag_78\n      swap1\n      tag_79\n      jump\t// in\n    tag_78:\n      mload(0x40)\n      dup1\n      swap2\n      sub\n      swap1\n      revert\n    tag_77:\n        /* \"contracts/LendingPool.sol\":1361:1367  amount */\n      dup1\n        /* \"contracts/LendingPool.sol\":1332:1345  lenderBalance */\n      0x05\n        /* \"contracts/LendingPool.sol\":1332:1357  lenderBalance[msg.sender] */\n      0x00\n        /* \"contracts/LendingPool.sol\":1346:1356  msg.sender */\n      caller\n        /* \"contracts/LendingPool.sol\":1332:1357  lenderBalance[msg.sender] */\n      0xffffffffffffffffffffffffffffffffffffffff\n      and\n      0xffffffffffffffffffffffffffffffffffffffff\n      and\n      dup2\n      mstore\n      0x20\n      add\n      swap1\n      dup2\n      mstore\n      0x20\n      add\n      0x00\n      keccak256\n      0x00\n        /* \"contracts/LendingPool.sol\":1332:1367  lenderBalance[msg.sender] -= amount */\n      dup3\n      dup3\n      sload\n      tag_80\n      swap2\n      swap1\n      tag_81\n      jump\t// in\n    tag_80:\n      swap3\n      pop\n      pop\n      dup2\n      swap1\n      sstore\n      pop\n        /* \"contracts/LendingPool.sol\":1377:1387  assetToken */\n      0x00\n      dup1\n      sload\n      swap1\n      0x0100\n      exp\n      swap1\n      div\n      0xffffffffffffffffffffffffffffffffffffffff\n      and\n        /* \"contracts/LendingPool.sol\":1377:1396  assetToken.transfer */\n      0xffffffffffffffffffffffffffffffffffffffff\n      and\n      0xa9059cbb\n        /* \"contracts/LendingPool.sol\":1397:1407  msg.sender */\n      caller\n        /* \"contracts/LendingPool.sol\":1409:1415  amount */\n      dup4\n        /* \"contracts/LendingPool.sol\":1377:1416  assetToken.transfer(msg.sender, amount) */\n      mload(0x40)\n      dup4\n      0xffffffff\n      and\n      0xe0\n      shl\n      dup2\n      mstore\n      0x04\n      add\n      tag_82\n      swap3\n      swap2\n      swap1\n      tag_83\n      jump\t// in\n    tag_82:\n      0x20\n      mload(0x40)\n      dup1\n      dup4\n      sub\n      dup2\n      0x00\n      dup8\n      gas\n      call\n      iszero\n      dup1\n      iszero\n      tag_85\n      jumpi\n      returndatasize\n      0x00\n      dup1\n      returndatacopy\n      revert(0x00, returndatasize)\n    tag_85:\n      pop\n      pop\n      pop\n      pop\n      mload(0x40)\n      returndatasize\n      not(0x1f)\n      0x1f\n      dup3\n      add\n      and\n      dup3\n      add\n      dup1\n      0x40\n      mstore\n      pop\n      dup2\n      add\n      swap1\n      tag_86\n      swap2\n      swap1\n      tag_87\n      jump\t// in\n    tag_86:\n      pop\n        /* \"contracts/LendingPool.sol\":1201:1423  function withdraw(uint256 amount) external {... */\n      pop\n      jump\t// out\n        /* \"contracts/LendingPool.sol\":2442:3163  function liquidate(address borrower) external {... */\n    tag_45:\n        /* \"contracts/LendingPool.sol\":2507:2524  collateralManager */\n      0x02\n      0x00\n      swap1\n      sload\n      swap1\n      0x0100\n      exp\n      swap1\n      div\n      0xffffffffffffffffffffffffffffffffffffffff\n      and\n        /* \"contracts/LendingPool.sol\":2507:2547  collateralManager.isCollateralSufficient */\n      0xffffffffffffffffffffffffffffffffffffffff\n      and\n      0x57867077\n        /* \"contracts/LendingPool.sol\":2548:2556  borrower */\n      dup3\n        /* \"contracts/LendingPool.sol\":2566:2576  assetToken */\n      0x00\n      dup1\n      sload\n      swap1\n      0x0100\n      exp\n      swap1\n      div\n      0xffffffffffffffffffffffffffffffffffffffff\n      and\n        /* \"contracts/LendingPool.sol\":2507:2578  collateralManager.isCollateralSufficient(borrower, address(assetToken)) */\n      mload(0x40)\n      dup4\n      0xffffffff\n      and\n      0xe0\n      shl\n      dup2\n      mstore\n      0x04\n      add\n      tag_89\n      swap3\n      swap2\n      swap1\n      tag_90\n      jump\t// in\n    tag_89:\n      0x20\n      mload(0x40)\n      dup1\n      dup4\n      sub\n      dup2\n      dup7\n      gas\n      staticcall\n      iszero\n      dup1\n      iszero\n      tag_92\n      jumpi\n      returndatasize\n      0x00\n      dup1\n      returndatacopy\n      revert(0x00, returndatasize)\n    tag_92:\n      pop\n      pop\n      pop\n      pop\n      mload(0x40)\n      returndatasize\n      not(0x1f)\n      0x1f\n      dup3\n      add\n      and\n      dup3\n      add\n      dup1\n      0x40\n      mstore\n      pop\n      dup2\n      add\n      swap1\n      tag_93\n      swap2\n      swap1\n      tag_87\n      jump\t// in\n    tag_93:\n        /* \"contracts/LendingPool.sol\":2506:2578  !collateralManager.isCollateralSufficient(borrower, address(assetToken)) */\n      iszero\n        /* \"contracts/LendingPool.sol\":2498:2618  require(!collateralManager.isCollateralSufficient(borrower, address(assetToken)), \"Borrower is not undercollateralized\") */\n      tag_94\n      jumpi\n      mload(0x40)\n      0x08c379a000000000000000000000000000000000000000000000000000000000\n      dup2\n      mstore\n      0x04\n      add\n      tag_95\n      swap1\n      tag_96\n      jump\t// in\n    tag_95:\n      mload(0x40)\n      dup1\n      swap2\n      sub\n      swap1\n      revert\n    tag_94:\n        /* \"contracts/LendingPool.sol\":2629:2651  uint256 borrowedAmount */\n      0x00\n        /* \"contracts/LendingPool.sol\":2654:2666  borrowerDebt */\n      0x04\n        /* \"contracts/LendingPool.sol\":2654:2676  borrowerDebt[borrower] */\n      0x00\n        /* \"contracts/LendingPool.sol\":2667:2675  borrower */\n      dup4\n        /* \"contracts/LendingPool.sol\":2654:2676  borrowerDebt[borrower] */\n      0xffffffffffffffffffffffffffffffffffffffff\n      and\n      0xffffffffffffffffffffffffffffffffffffffff\n      and\n      dup2\n      mstore\n      0x20\n      add\n      swap1\n      dup2\n      mstore\n      0x20\n      add\n      0x00\n      keccak256\n      sload\n        /* \"contracts/LendingPool.sol\":2629:2676  uint256 borrowedAmount = borrowerDebt[borrower] */\n      swap1\n      pop\n        /* \"contracts/LendingPool.sol\":2686:2710  uint256 liquidationBonus */\n      0x00\n        /* \"contracts/LendingPool.sol\":2713:2731  liquidationManager */\n      0x03\n      0x00\n      swap1\n      sload\n      swap1\n      0x0100\n      exp\n      swap1\n      div\n      0xffffffffffffffffffffffffffffffffffffffff\n      and\n        /* \"contracts/LendingPool.sol\":2713:2748  liquidationManager.liquidationBonus */\n      0xffffffffffffffffffffffffffffffffffffffff\n      and\n      0x7b7c1f4c\n        /* \"contracts/LendingPool.sol\":2713:2750  liquidationManager.liquidationBonus() */\n      mload(0x40)\n      dup2\n      0xffffffff\n      and\n      0xe0\n      shl\n      dup2\n      mstore\n      0x04\n      add\n      0x20\n      mload(0x40)\n      dup1\n      dup4\n      sub\n      dup2\n      dup7\n      gas\n      staticcall\n      iszero\n      dup1\n      iszero\n      tag_98\n      jumpi\n      returndatasize\n      0x00\n      dup1\n      returndatacopy\n      revert(0x00, returndatasize)\n    tag_98:\n      pop\n      pop\n      pop\n      pop\n      mload(0x40)\n      returndatasize\n      not(0x1f)\n      0x1f\n      dup3\n      add\n      and\n      dup3\n      add\n      dup1\n      0x40\n      mstore\n      pop\n      dup2\n      add\n      swap1\n      tag_99\n      swap2\n      swap1\n      tag_100\n      jump\t// in\n    tag_99:\n        /* \"contracts/LendingPool.sol\":2686:2750  uint256 liquidationBonus = liquidationManager.liquidationBonus() */\n      swap1\n      pop\n        /* \"contracts/LendingPool.sol\":2760:2785  uint256 liquidationAmount */\n      0x00\n        /* \"contracts/LendingPool.sol\":2834:2837  1e4 */\n      0x2710\n        /* \"contracts/LendingPool.sol\":2813:2829  liquidationBonus */\n      dup3\n        /* \"contracts/LendingPool.sol\":2807:2810  1e4 */\n      0x2710\n        /* \"contracts/LendingPool.sol\":2807:2829  1e4 + liquidationBonus */\n      tag_101\n      swap2\n      swap1\n      tag_102\n      jump\t// in\n    tag_101:\n        /* \"contracts/LendingPool.sol\":2789:2803  borrowedAmount */\n      dup5\n        /* \"contracts/LendingPool.sol\":2789:2830  borrowedAmount * (1e4 + liquidationBonus) */\n      tag_103\n      swap2\n      swap1\n      tag_104\n      jump\t// in\n    tag_103:\n        /* \"contracts/LendingPool.sol\":2788:2837  (borrowedAmount * (1e4 + liquidationBonus)) / 1e4 */\n      tag_105\n      swap2\n      swap1\n      tag_106\n      jump\t// in\n    tag_105:\n        /* \"contracts/LendingPool.sol\":2760:2837  uint256 liquidationAmount = (borrowedAmount * (1e4 + liquidationBonus)) / 1e4 */\n      swap1\n      pop\n        /* \"contracts/LendingPool.sol\":2900:2910  assetToken */\n      0x00\n      dup1\n      sload\n      swap1\n      0x0100\n      exp\n      swap1\n      div\n      0xffffffffffffffffffffffffffffffffffffffff\n      and\n        /* \"contracts/LendingPool.sol\":2900:2919  assetToken.transfer */\n      0xffffffffffffffffffffffffffffffffffffffff\n      and\n      0xa9059cbb\n        /* \"contracts/LendingPool.sol\":2920:2930  msg.sender */\n      caller\n        /* \"contracts/LendingPool.sol\":2932:2949  liquidationAmount */\n      dup4\n        /* \"contracts/LendingPool.sol\":2900:2950  assetToken.transfer(msg.sender, liquidationAmount) */\n      mload(0x40)\n      dup4\n      0xffffffff\n      and\n      0xe0\n      shl\n      dup2\n      mstore\n      0x04\n      add\n      tag_107\n      swap3\n      swap2\n      swap1\n      tag_83\n      jump\t// in\n    tag_107:\n      0x20\n      mload(0x40)\n      dup1\n      dup4\n      sub\n      dup2\n      0x00\n      dup8\n      gas\n      call\n      iszero\n      dup1\n      iszero\n      tag_109\n      jumpi\n      returndatasize\n      0x00\n      dup1\n      returndatacopy\n      revert(0x00, returndatasize)\n    tag_109:\n      pop\n      pop\n      pop\n      pop\n      mload(0x40)\n      returndatasize\n      not(0x1f)\n      0x1f\n      dup3\n      add\n      and\n      dup3\n      add\n      dup1\n      0x40\n      mstore\n      pop\n      dup2\n      add\n      swap1\n      tag_110\n      swap2\n      swap1\n      tag_87\n      jump\t// in\n    tag_110:\n      pop\n        /* \"contracts/LendingPool.sol\":3025:3035  assetToken */\n      0x00\n      dup1\n      sload\n      swap1\n      0x0100\n      exp\n      swap1\n      div\n      0xffffffffffffffffffffffffffffffffffffffff\n      and\n        /* \"contracts/LendingPool.sol\":3025:3048  assetToken.transferFrom */\n      0xffffffffffffffffffffffffffffffffffffffff\n      and\n      0x23b872dd\n        /* \"contracts/LendingPool.sol\":3049:3059  msg.sender */\n      caller\n        /* \"contracts/LendingPool.sol\":3061:3069  borrower */\n      dup7\n        /* \"contracts/LendingPool.sol\":3071:3085  borrowedAmount */\n      dup7\n        /* \"contracts/LendingPool.sol\":3025:3086  assetToken.transferFrom(msg.sender, borrower, borrowedAmount) */\n      mload(0x40)\n      dup5\n      0xffffffff\n      and\n      0xe0\n      shl\n      dup2\n      mstore\n      0x04\n      add\n      tag_111\n      swap4\n      swap3\n      swap2\n      swap1\n      tag_112\n      jump\t// in\n    tag_111:\n      0x20\n      mload(0x40)\n      dup1\n      dup4\n      sub\n      dup2\n      0x00\n      dup8\n      gas\n      call\n      iszero\n      dup1\n      iszero\n      tag_114\n      jumpi\n      returndatasize\n      0x00\n      dup1\n      returndatacopy\n      revert(0x00, returndatasize)\n    tag_114:\n      pop\n      pop\n      pop\n      pop\n      mload(0x40)\n      returndatasize\n      not(0x1f)\n      0x1f\n      dup3\n      add\n      and\n      dup3\n      add\n      dup1\n      0x40\n      mstore\n      pop\n      dup2\n      add\n      swap1\n      tag_115\n      swap2\n      swap1\n      tag_87\n      jump\t// in\n    tag_115:\n      pop\n        /* \"contracts/LendingPool.sol\":3155:3156  0 */\n      0x00\n        /* \"contracts/LendingPool.sol\":3130:3142  borrowerDebt */\n      0x04\n        /* \"contracts/LendingPool.sol\":3130:3152  borrowerDebt[borrower] */\n      0x00\n        /* \"contracts/LendingPool.sol\":3143:3151  borrower */\n      dup7\n        /* \"contracts/LendingPool.sol\":3130:3152  borrowerDebt[borrower] */\n      0xffffffffffffffffffffffffffffffffffffffff\n      and\n      0xffffffffffffffffffffffffffffffffffffffff\n      and\n      dup2\n      mstore\n      0x20\n      add\n      swap1\n      dup2\n      mstore\n      0x20\n      add\n      0x00\n      keccak256\n        /* \"contracts/LendingPool.sol\":3130:3156  borrowerDebt[borrower] = 0 */\n      dup2\n      swap1\n      sstore\n      pop\n        /* \"contracts/LendingPool.sol\":2488:3163  {... */\n      pop\n      pop\n      pop\n        /* \"contracts/LendingPool.sol\":2442:3163  function liquidate(address borrower) external {... */\n      pop\n      jump\t// out\n        /* \"contracts/LendingPool.sol\":2105:2436  function repay(uint256 amount) external {... */\n    tag_48:\n        /* \"contracts/LendingPool.sol\":2191:2197  amount */\n      dup1\n        /* \"contracts/LendingPool.sol\":2163:2175  borrowerDebt */\n      0x04\n        /* \"contracts/LendingPool.sol\":2163:2187  borrowerDebt[msg.sender] */\n      0x00\n        /* \"contracts/LendingPool.sol\":2176:2186  msg.sender */\n      caller\n        /* \"contracts/LendingPool.sol\":2163:2187  borrowerDebt[msg.sender] */\n      0xffffffffffffffffffffffffffffffffffffffff\n      and\n      0xffffffffffffffffffffffffffffffffffffffff\n      and\n      dup2\n      mstore\n      0x20\n      add\n      swap1\n      dup2\n      mstore\n      0x20\n      add\n      0x00\n      keccak256\n      sload\n        /* \"contracts/LendingPool.sol\":2163:2197  borrowerDebt[msg.sender] >= amount */\n      lt\n      iszero\n        /* \"contracts/LendingPool.sol\":2155:2221  require(borrowerDebt[msg.sender] >= amount, \"Amount exceeds debt\") */\n      tag_117\n      jumpi\n      mload(0x40)\n      0x08c379a000000000000000000000000000000000000000000000000000000000\n      dup2\n      mstore\n      0x04\n      add\n      tag_118\n      swap1\n      tag_119\n      jump\t// in\n    tag_118:\n      mload(0x40)\n      dup1\n      swap2\n      sub\n      swap1\n      revert\n    tag_117:\n        /* \"contracts/LendingPool.sol\":2292:2302  assetToken */\n      0x00\n      dup1\n      sload\n      swap1\n      0x0100\n      exp\n      swap1\n      div\n      0xffffffffffffffffffffffffffffffffffffffff\n      and\n        /* \"contracts/LendingPool.sol\":2292:2315  assetToken.transferFrom */\n      0xffffffffffffffffffffffffffffffffffffffff\n      and\n      0x23b872dd\n        /* \"contracts/LendingPool.sol\":2316:2326  msg.sender */\n      caller\n        /* \"contracts/LendingPool.sol\":2336:2340  this */\n      address\n        /* \"contracts/LendingPool.sol\":2343:2349  amount */\n      dup5\n        /* \"contracts/LendingPool.sol\":2292:2350  assetToken.transferFrom(msg.sender, address(this), amount) */\n      mload(0x40)\n      dup5\n      0xffffffff\n      and\n      0xe0\n      shl\n      dup2\n      mstore\n      0x04\n      add\n      tag_120\n      swap4\n      swap3\n      swap2\n      swap1\n      tag_112\n      jump\t// in\n    tag_120:\n      0x20\n      mload(0x40)\n      dup1\n      dup4\n      sub\n      dup2\n      0x00\n      dup8\n      gas\n      call\n      iszero\n      dup1\n      iszero\n      tag_122\n      jumpi\n      returndatasize\n      0x00\n      dup1\n      returndatacopy\n      revert(0x00, returndatasize)\n    tag_122:\n      pop\n      pop\n      pop\n      pop\n      mload(0x40)\n      returndatasize\n      not(0x1f)\n      0x1f\n      dup3\n      add\n      and\n      dup3\n      add\n      dup1\n      0x40\n      mstore\n      pop\n      dup2\n      add\n      swap1\n      tag_123\n      swap2\n      swap1\n      tag_87\n      jump\t// in\n    tag_123:\n      pop\n        /* \"contracts/LendingPool.sol\":2423:2429  amount */\n      dup1\n        /* \"contracts/LendingPool.sol\":2395:2407  borrowerDebt */\n      0x04\n        /* \"contracts/LendingPool.sol\":2395:2419  borrowerDebt[msg.sender] */\n      0x00\n        /* \"contracts/LendingPool.sol\":2408:2418  msg.sender */\n      caller\n        /* \"contracts/LendingPool.sol\":2395:2419  borrowerDebt[msg.sender] */\n      0xffffffffffffffffffffffffffffffffffffffff\n      and\n      0xffffffffffffffffffffffffffffffffffffffff\n      and\n      dup2\n      mstore\n      0x20\n      add\n      swap1\n      dup2\n      mstore\n      0x20\n      add\n      0x00\n      keccak256\n      0x00\n        /* \"contracts/LendingPool.sol\":2395:2429  borrowerDebt[msg.sender] -= amount */\n      dup3\n      dup3\n      sload\n      tag_124\n      swap2\n      swap1\n      tag_81\n      jump\t// in\n    tag_124:\n      swap3\n      pop\n      pop\n      dup2\n      swap1\n      sstore\n      pop\n        /* \"contracts/LendingPool.sol\":2105:2436  function repay(uint256 amount) external {... */\n      pop\n      jump\t// out\n        /* \"contracts/LendingPool.sol\":453:500  mapping(address => uint256) public borrowerDebt */\n    tag_51:\n      mstore(0x20, 0x04)\n      dup1\n      0x00\n      mstore\n      keccak256(0x00, 0x40)\n      0x00\n      swap2\n      pop\n      swap1\n      pop\n      sload\n      dup2\n      jump\t// out\n        /* \"contracts/LendingPool.sol\":3333:3458  function getUtilizationRate() public view returns (uint256) {... */\n    tag_54:\n        /* \"contracts/LendingPool.sol\":3384:3391  uint256 */\n      0x00\n        /* \"contracts/LendingPool.sol\":3436:3451  totalSupplied() */\n      tag_126\n        /* \"contracts/LendingPool.sol\":3436:3449  totalSupplied */\n      tag_60\n        /* \"contracts/LendingPool.sol\":3436:3451  totalSupplied() */\n      jump\t// in\n    tag_126:\n        /* \"contracts/LendingPool.sol\":3429:3432  1e4 */\n      0x2710\n        /* \"contracts/LendingPool.sol\":3411:3426  totalBorrowed() */\n      tag_127\n        /* \"contracts/LendingPool.sol\":3411:3424  totalBorrowed */\n      tag_57\n        /* \"contracts/LendingPool.sol\":3411:3426  totalBorrowed() */\n      jump\t// in\n    tag_127:\n        /* \"contracts/LendingPool.sol\":3411:3432  totalBorrowed() * 1e4 */\n      tag_128\n      swap2\n      swap1\n      tag_104\n      jump\t// in\n    tag_128:\n        /* \"contracts/LendingPool.sol\":3410:3451  (totalBorrowed() * 1e4) / totalSupplied() */\n      tag_129\n      swap2\n      swap1\n      tag_106\n      jump\t// in\n    tag_129:\n        /* \"contracts/LendingPool.sol\":3403:3451  return (totalBorrowed() * 1e4) / totalSupplied() */\n      swap1\n      pop\n        /* \"contracts/LendingPool.sol\":3333:3458  function getUtilizationRate() public view returns (uint256) {... */\n      swap1\n      jump\t// out\n        /* \"contracts/LendingPool.sol\":3584:3716  function totalBorrowed() public view returns (uint256) {... */\n    tag_57:\n        /* \"contracts/LendingPool.sol\":3630:3637  uint256 */\n      0x00\n        /* \"contracts/LendingPool.sol\":3674:3684  assetToken */\n      dup1\n      0x00\n      swap1\n      sload\n      swap1\n      0x0100\n      exp\n      swap1\n      div\n      0xffffffffffffffffffffffffffffffffffffffff\n      and\n        /* \"contracts/LendingPool.sol\":3674:3694  assetToken.balanceOf */\n      0xffffffffffffffffffffffffffffffffffffffff\n      and\n      0x70a08231\n        /* \"contracts/LendingPool.sol\":3703:3707  this */\n      address\n        /* \"contracts/LendingPool.sol\":3674:3709  assetToken.balanceOf(address(this)) */\n      mload(0x40)\n      dup3\n      0xffffffff\n      and\n      0xe0\n      shl\n      dup2\n      mstore\n      0x04\n      add\n      tag_131\n      swap2\n      swap1\n      tag_132\n      jump\t// in\n    tag_131:\n      0x20\n      mload(0x40)\n      dup1\n      dup4\n      sub\n      dup2\n      dup7\n      gas\n      staticcall\n      iszero\n      dup1\n      iszero\n      tag_134\n      jumpi\n      returndatasize\n      0x00\n      dup1\n      returndatacopy\n      revert(0x00, returndatasize)\n    tag_134:\n      pop\n      pop\n      pop\n      pop\n      mload(0x40)\n      returndatasize\n      not(0x1f)\n      0x1f\n      dup3\n      add\n      and\n      dup3\n      add\n      dup1\n      0x40\n      mstore\n      pop\n      dup2\n      add\n      swap1\n      tag_135\n      swap2\n      swap1\n      tag_100\n      jump\t// in\n    tag_135:\n        /* \"contracts/LendingPool.sol\":3656:3671  totalSupplied() */\n      tag_136\n        /* \"contracts/LendingPool.sol\":3656:3669  totalSupplied */\n      tag_60\n        /* \"contracts/LendingPool.sol\":3656:3671  totalSupplied() */\n      jump\t// in\n    tag_136:\n        /* \"contracts/LendingPool.sol\":3656:3709  totalSupplied() - assetToken.balanceOf(address(this)) */\n      tag_137\n      swap2\n      swap1\n      tag_81\n      jump\t// in\n    tag_137:\n        /* \"contracts/LendingPool.sol\":3649:3709  return totalSupplied() - assetToken.balanceOf(address(this)) */\n      swap1\n      pop\n        /* \"contracts/LendingPool.sol\":3584:3716  function totalBorrowed() public view returns (uint256) {... */\n      swap1\n      jump\t// out\n        /* \"contracts/LendingPool.sol\":3464:3578  function totalSupplied() public view returns (uint256) {... */\n    tag_60:\n        /* \"contracts/LendingPool.sol\":3510:3517  uint256 */\n      0x00\n        /* \"contracts/LendingPool.sol\":3536:3546  assetToken */\n      dup1\n      0x00\n      swap1\n      sload\n      swap1\n      0x0100\n      exp\n      swap1\n      div\n      0xffffffffffffffffffffffffffffffffffffffff\n      and\n        /* \"contracts/LendingPool.sol\":3536:3556  assetToken.balanceOf */\n      0xffffffffffffffffffffffffffffffffffffffff\n      and\n      0x70a08231\n        /* \"contracts/LendingPool.sol\":3565:3569  this */\n      address\n        /* \"contracts/LendingPool.sol\":3536:3571  assetToken.balanceOf(address(this)) */\n      mload(0x40)\n      dup3\n      0xffffffff\n      and\n      0xe0\n      shl\n      dup2\n      mstore\n      0x04\n      add\n      tag_139\n      swap2\n      swap1\n      tag_132\n      jump\t// in\n    tag_139:\n      0x20\n      mload(0x40)\n      dup1\n      dup4\n      sub\n      dup2\n      dup7\n      gas\n      staticcall\n      iszero\n      dup1\n      iszero\n      tag_141\n      jumpi\n      returndatasize\n      0x00\n      dup1\n      returndatacopy\n      revert(0x00, returndatasize)\n    tag_141:\n      pop\n      pop\n      pop\n      pop\n      mload(0x40)\n      returndatasize\n      not(0x1f)\n      0x1f\n      dup3\n      add\n      and\n      dup3\n      add\n      dup1\n      0x40\n      mstore\n      pop\n      dup2\n      add\n      swap1\n      tag_142\n      swap2\n      swap1\n      tag_100\n      jump\t// in\n    tag_142:\n        /* \"contracts/LendingPool.sol\":3529:3571  return assetToken.balanceOf(address(this)) */\n      swap1\n      pop\n        /* \"contracts/LendingPool.sol\":3464:3578  function totalSupplied() public view returns (uint256) {... */\n      swap1\n      jump\t// out\n        /* \"contracts/LendingPool.sol\":1033:1195  function deposit(uint256 amount) external {... */\n    tag_64:\n        /* \"contracts/LendingPool.sol\":1085:1095  assetToken */\n      0x00\n      dup1\n      sload\n      swap1\n      0x0100\n      exp\n      swap1\n      div\n      0xffffffffffffffffffffffffffffffffffffffff\n      and\n        /* \"contracts/LendingPool.sol\":1085:1108  assetToken.transferFrom */\n      0xffffffffffffffffffffffffffffffffffffffff\n      and\n      0x23b872dd\n        /* \"contracts/LendingPool.sol\":1109:1119  msg.sender */\n      caller\n        /* \"contracts/LendingPool.sol\":1129:1133  this */\n      address\n        /* \"contracts/LendingPool.sol\":1136:1142  amount */\n      dup5\n        /* \"contracts/LendingPool.sol\":1085:1143  assetToken.transferFrom(msg.sender, address(this), amount) */\n      mload(0x40)\n      dup5\n      0xffffffff\n      and\n      0xe0\n      shl\n      dup2\n      mstore\n      0x04\n      add\n      tag_144\n      swap4\n      swap3\n      swap2\n      swap1\n      tag_112\n      jump\t// in\n    tag_144:\n      0x20\n      mload(0x40)\n      dup1\n      dup4\n      sub\n      dup2\n      0x00\n      dup8\n      gas\n      call\n      iszero\n      dup1\n      iszero\n      tag_146\n      jumpi\n      returndatasize\n      0x00\n      dup1\n      returndatacopy\n      revert(0x00, returndatasize)\n    tag_146:\n      pop\n      pop\n      pop\n      pop\n      mload(0x40)\n      returndatasize\n      not(0x1f)\n      0x1f\n      dup3\n      add\n      and\n      dup3\n      add\n      dup1\n      0x40\n      mstore\n      pop\n      dup2\n      add\n      swap1\n      tag_147\n      swap2\n      swap1\n      tag_87\n      jump\t// in\n    tag_147:\n      pop\n        /* \"contracts/LendingPool.sol\":1182:1188  amount */\n      dup1\n        /* \"contracts/LendingPool.sol\":1153:1166  lenderBalance */\n      0x05\n        /* \"contracts/LendingPool.sol\":1153:1178  lenderBalance[msg.sender] */\n      0x00\n        /* \"contracts/LendingPool.sol\":1167:1177  msg.sender */\n      caller\n        /* \"contracts/LendingPool.sol\":1153:1178  lenderBalance[msg.sender] */\n      0xffffffffffffffffffffffffffffffffffffffff\n      and\n      0xffffffffffffffffffffffffffffffffffffffff\n      and\n      dup2\n      mstore\n      0x20\n      add\n      swap1\n      dup2\n      mstore\n      0x20\n      add\n      0x00\n      keccak256\n      0x00\n        /* \"contracts/LendingPool.sol\":1153:1188  lenderBalance[msg.sender] += amount */\n      dup3\n      dup3\n      sload\n      tag_148\n      swap2\n      swap1\n      tag_102\n      jump\t// in\n    tag_148:\n      swap3\n      pop\n      pop\n      dup2\n      swap1\n      sstore\n      pop\n        /* \"contracts/LendingPool.sol\":1033:1195  function deposit(uint256 amount) external {... */\n      pop\n      jump\t// out\n        /* \"contracts/LendingPool.sol\":1429:2099  function borrow(uint256 amount) external {... */\n    tag_67:\n        /* \"contracts/LendingPool.sol\":1480:1498  uint256 borrowRate */\n      0x00\n        /* \"contracts/LendingPool.sol\":1501:1518  interestRateModel */\n      0x01\n      0x00\n      swap1\n      sload\n      swap1\n      0x0100\n      exp\n      swap1\n      div\n      0xffffffffffffffffffffffffffffffffffffffff\n      and\n        /* \"contracts/LendingPool.sol\":1501:1532  interestRateModel.getBorrowRate */\n      0xffffffffffffffffffffffffffffffffffffffff\n      and\n      0x9fa83b5a\n        /* \"contracts/LendingPool.sol\":1533:1553  getUtilizationRate() */\n      tag_150\n        /* \"contracts/LendingPool.sol\":1533:1551  getUtilizationRate */\n      tag_54\n        /* \"contracts/LendingPool.sol\":1533:1553  getUtilizationRate() */\n      jump\t// in\n    tag_150:\n        /* \"contracts/LendingPool.sol\":1501:1554  interestRateModel.getBorrowRate(getUtilizationRate()) */\n      mload(0x40)\n      dup3\n      0xffffffff\n      and\n      0xe0\n      shl\n      dup2\n      mstore\n      0x04\n      add\n      tag_151\n      swap2\n      swap1\n      tag_38\n      jump\t// in\n    tag_151:\n      0x20\n      mload(0x40)\n      dup1\n      dup4\n      sub\n      dup2\n      dup7\n      gas\n      staticcall\n      iszero\n      dup1\n      iszero\n      tag_153\n      jumpi\n      returndatasize\n      0x00\n      dup1\n      returndatacopy\n      revert(0x00, returndatasize)\n    tag_153:\n      pop\n      pop\n      pop\n      pop\n      mload(0x40)\n      returndatasize\n      not(0x1f)\n      0x1f\n      dup3\n      add\n      and\n      dup3\n      add\n      dup1\n      0x40\n      mstore\n      pop\n      dup2\n      add\n      swap1\n      tag_154\n      swap2\n      swap1\n      tag_100\n      jump\t// in\n    tag_154:\n        /* \"contracts/LendingPool.sol\":1480:1554  uint256 borrowRate = interestRateModel.getBorrowRate(getUtilizationRate()) */\n      swap1\n      pop\n        /* \"contracts/LendingPool.sol\":1564:1580  uint256 interest */\n      0x00\n        /* \"contracts/LendingPool.sol\":1607:1610  1e4 */\n      0x2710\n        /* \"contracts/LendingPool.sol\":1593:1603  borrowRate */\n      dup3\n        /* \"contracts/LendingPool.sol\":1584:1590  amount */\n      dup5\n        /* \"contracts/LendingPool.sol\":1584:1603  amount * borrowRate */\n      tag_155\n      swap2\n      swap1\n      tag_104\n      jump\t// in\n    tag_155:\n        /* \"contracts/LendingPool.sol\":1583:1610  (amount * borrowRate) / 1e4 */\n      tag_156\n      swap2\n      swap1\n      tag_106\n      jump\t// in\n    tag_156:\n        /* \"contracts/LendingPool.sol\":1564:1610  uint256 interest = (amount * borrowRate) / 1e4 */\n      swap1\n      pop\n        /* \"contracts/LendingPool.sol\":1620:1639  uint256 totalAmount */\n      0x00\n        /* \"contracts/LendingPool.sol\":1651:1659  interest */\n      dup2\n        /* \"contracts/LendingPool.sol\":1642:1648  amount */\n      dup5\n        /* \"contracts/LendingPool.sol\":1642:1659  amount + interest */\n      tag_157\n      swap2\n      swap1\n      tag_102\n      jump\t// in\n    tag_157:\n        /* \"contracts/LendingPool.sol\":1620:1659  uint256 totalAmount = amount + interest */\n      swap1\n      pop\n        /* \"contracts/LendingPool.sol\":1678:1695  collateralManager */\n      0x02\n      0x00\n      swap1\n      sload\n      swap1\n      0x0100\n      exp\n      swap1\n      div\n      0xffffffffffffffffffffffffffffffffffffffff\n      and\n        /* \"contracts/LendingPool.sol\":1678:1718  collateralManager.isCollateralSufficient */\n      0xffffffffffffffffffffffffffffffffffffffff\n      and\n      0x57867077\n        /* \"contracts/LendingPool.sol\":1719:1729  msg.sender */\n      caller\n        /* \"contracts/LendingPool.sol\":1739:1749  assetToken */\n      0x00\n      dup1\n      sload\n      swap1\n      0x0100\n      exp\n      swap1\n      div\n      0xffffffffffffffffffffffffffffffffffffffff\n      and\n        /* \"contracts/LendingPool.sol\":1678:1751  collateralManager.isCollateralSufficient(msg.sender, address(assetToken)) */\n      mload(0x40)\n      dup4\n      0xffffffff\n      and\n      0xe0\n      shl\n      dup2\n      mstore\n      0x04\n      add\n      tag_158\n      swap3\n      swap2\n      swap1\n      tag_90\n      jump\t// in\n    tag_158:\n      0x20\n      mload(0x40)\n      dup1\n      dup4\n      sub\n      dup2\n      dup7\n      gas\n      staticcall\n      iszero\n      dup1\n      iszero\n      tag_160\n      jumpi\n      returndatasize\n      0x00\n      dup1\n      returndatacopy\n      revert(0x00, returndatasize)\n    tag_160:\n      pop\n      pop\n      pop\n      pop\n      mload(0x40)\n      returndatasize\n      not(0x1f)\n      0x1f\n      dup3\n      add\n      and\n      dup3\n      add\n      dup1\n      0x40\n      mstore\n      pop\n      dup2\n      add\n      swap1\n      tag_161\n      swap2\n      swap1\n      tag_87\n      jump\t// in\n    tag_161:\n        /* \"contracts/LendingPool.sol\":1670:1779  require(collateralManager.isCollateralSufficient(msg.sender, address(assetToken)), \"Insufficient collateral\") */\n      tag_162\n      jumpi\n      mload(0x40)\n      0x08c379a000000000000000000000000000000000000000000000000000000000\n      dup2\n      mstore\n      0x04\n      add\n      tag_163\n      swap1\n      tag_164\n      jump\t// in\n    tag_163:\n      mload(0x40)\n      dup1\n      swap2\n      sub\n      swap1\n      revert\n    tag_162:\n        /* \"contracts/LendingPool.sol\":1874:1885  totalAmount */\n      dup1\n        /* \"contracts/LendingPool.sol\":1842:1855  lenderBalance */\n      0x05\n        /* \"contracts/LendingPool.sol\":1842:1870  lenderBalance[address(this)] */\n      0x00\n        /* \"contracts/LendingPool.sol\":1864:1868  this */\n      address\n        /* \"contracts/LendingPool.sol\":1842:1870  lenderBalance[address(this)] */\n      0xffffffffffffffffffffffffffffffffffffffff\n      and\n      0xffffffffffffffffffffffffffffffffffffffff\n      and\n      dup2\n      mstore\n      0x20\n      add\n      swap1\n      dup2\n      mstore\n      0x20\n      add\n      0x00\n      keccak256\n      sload\n        /* \"contracts/LendingPool.sol\":1842:1885  lenderBalance[address(this)] >= totalAmount */\n      lt\n      iszero\n        /* \"contracts/LendingPool.sol\":1834:1910  require(lenderBalance[address(this)] >= totalAmount, \"Not enough liquidity\") */\n      tag_165\n      jumpi\n      mload(0x40)\n      0x08c379a000000000000000000000000000000000000000000000000000000000\n      dup2\n      mstore\n      0x04\n      add\n      tag_166\n      swap1\n      tag_167\n      jump\t// in\n    tag_166:\n      mload(0x40)\n      dup1\n      swap2\n      sub\n      swap1\n      revert\n    tag_165:\n        /* \"contracts/LendingPool.sol\":1969:1979  assetToken */\n      0x00\n      dup1\n      sload\n      swap1\n      0x0100\n      exp\n      swap1\n      div\n      0xffffffffffffffffffffffffffffffffffffffff\n      and\n        /* \"contracts/LendingPool.sol\":1969:1988  assetToken.transfer */\n      0xffffffffffffffffffffffffffffffffffffffff\n      and\n      0xa9059cbb\n        /* \"contracts/LendingPool.sol\":1989:1999  msg.sender */\n      caller\n        /* \"contracts/LendingPool.sol\":2001:2007  amount */\n      dup7\n        /* \"contracts/LendingPool.sol\":1969:2008  assetToken.transfer(msg.sender, amount) */\n      mload(0x40)\n      dup4\n      0xffffffff\n      and\n      0xe0\n      shl\n      dup2\n      mstore\n      0x04\n      add\n      tag_168\n      swap3\n      swap2\n      swap1\n      tag_83\n      jump\t// in\n    tag_168:\n      0x20\n      mload(0x40)\n      dup1\n      dup4\n      sub\n      dup2\n      0x00\n      dup8\n      gas\n      call\n      iszero\n      dup1\n      iszero\n      tag_170\n      jumpi\n      returndatasize\n      0x00\n      dup1\n      returndatacopy\n      revert(0x00, returndatasize)\n    tag_170:\n      pop\n      pop\n      pop\n      pop\n      mload(0x40)\n      returndatasize\n      not(0x1f)\n      0x1f\n      dup3\n      add\n      and\n      dup3\n      add\n      dup1\n      0x40\n      mstore\n      pop\n      dup2\n      add\n      swap1\n      tag_171\n      swap2\n      swap1\n      tag_87\n      jump\t// in\n    tag_171:\n      pop\n        /* \"contracts/LendingPool.sol\":2081:2092  totalAmount */\n      dup1\n        /* \"contracts/LendingPool.sol\":2053:2065  borrowerDebt */\n      0x04\n        /* \"contracts/LendingPool.sol\":2053:2077  borrowerDebt[msg.sender] */\n      0x00\n        /* \"contracts/LendingPool.sol\":2066:2076  msg.sender */\n      caller\n        /* \"contracts/LendingPool.sol\":2053:2077  borrowerDebt[msg.sender] */\n      0xffffffffffffffffffffffffffffffffffffffff\n      and\n      0xffffffffffffffffffffffffffffffffffffffff\n      and\n      dup2\n      mstore\n      0x20\n      add\n      swap1\n      dup2\n      mstore\n      0x20\n      add\n      0x00\n      keccak256\n      0x00\n        /* \"contracts/LendingPool.sol\":2053:2092  borrowerDebt[msg.sender] += totalAmount */\n      dup3\n      dup3\n      sload\n      tag_172\n      swap2\n      swap1\n      tag_102\n      jump\t// in\n    tag_172:\n      swap3\n      pop\n      pop\n      dup2\n      swap1\n      sstore\n      pop\n        /* \"contracts/LendingPool.sol\":1470:2099  {... */\n      pop\n      pop\n      pop\n        /* \"contracts/LendingPool.sol\":1429:2099  function borrow(uint256 amount) external {... */\n      pop\n      jump\t// out\n        /* \"contracts/LendingPool.sol\":3169:3327  function calculateBorrowRate(uint256 utilizationRate) external view returns (uint256) {... */\n    tag_70:\n        /* \"contracts/LendingPool.sol\":3246:3253  uint256 */\n      0x00\n        /* \"contracts/LendingPool.sol\":3272:3289  interestRateModel */\n      0x01\n      0x00\n      swap1\n      sload\n      swap1\n      0x0100\n      exp\n      swap1\n      div\n      0xffffffffffffffffffffffffffffffffffffffff\n      and\n        /* \"contracts/LendingPool.sol\":3272:3303  interestRateModel.getBorrowRate */\n      0xffffffffffffffffffffffffffffffffffffffff\n      and\n      0x9fa83b5a\n        /* \"contracts/LendingPool.sol\":3304:3319  utilizationRate */\n      dup4\n        /* \"contracts/LendingPool.sol\":3272:3320  interestRateModel.getBorrowRate(utilizationRate) */\n      mload(0x40)\n      dup3\n      0xffffffff\n      and\n      0xe0\n      shl\n      dup2\n      mstore\n      0x04\n      add\n      tag_174\n      swap2\n      swap1\n      tag_38\n      jump\t// in\n    tag_174:\n      0x20\n      mload(0x40)\n      dup1\n      dup4\n      sub\n      dup2\n      dup7\n      gas\n      staticcall\n      iszero\n      dup1\n      iszero\n      tag_176\n      jumpi\n      returndatasize\n      0x00\n      dup1\n      returndatacopy\n      revert(0x00, returndatasize)\n    tag_176:\n      pop\n      pop\n      pop\n      pop\n      mload(0x40)\n      returndatasize\n      not(0x1f)\n      0x1f\n      dup3\n      add\n      and\n      dup3\n      add\n      dup1\n      0x40\n      mstore\n      pop\n      dup2\n      add\n      swap1\n      tag_177\n      swap2\n      swap1\n      tag_100\n      jump\t// in\n    tag_177:\n        /* \"contracts/LendingPool.sol\":3265:3320  return interestRateModel.getBorrowRate(utilizationRate) */\n      swap1\n      pop\n        /* \"contracts/LendingPool.sol\":3169:3327  function calculateBorrowRate(uint256 utilizationRate) external view returns (uint256) {... */\n      swap2\n      swap1\n      pop\n      jump\t// out\n        /* \"contracts/LendingPool.sol\":306:348  InterestRateModel public interestRateModel */\n    tag_73:\n      0x01\n      0x00\n      swap1\n      sload\n      swap1\n      0x0100\n      exp\n      swap1\n      div\n      0xffffffffffffffffffffffffffffffffffffffff\n      and\n      dup2\n      jump\t// out\n        /* \"#utility.yul\":7:133   */\n    tag_178:\n        /* \"#utility.yul\":44:51   */\n      0x00\n        /* \"#utility.yul\":84:126   */\n      0xffffffffffffffffffffffffffffffffffffffff\n        /* \"#utility.yul\":77:82   */\n      dup3\n        /* \"#utility.yul\":73:127   */\n      and\n        /* \"#utility.yul\":62:127   */\n      swap1\n      pop\n        /* \"#utility.yul\":7:133   */\n      swap2\n      swap1\n      pop\n      jump\t// out\n        /* \"#utility.yul\":139:199   */\n    tag_179:\n        /* \"#utility.yul\":167:170   */\n      0x00\n        /* \"#utility.yul\":188:193   */\n      dup2\n        /* \"#utility.yul\":181:193   */\n      swap1\n      pop\n        /* \"#utility.yul\":139:199   */\n      swap2\n      swap1\n      pop\n      jump\t// out\n        /* \"#utility.yul\":205:347   */\n    tag_180:\n        /* \"#utility.yul\":255:264   */\n      0x00\n        /* \"#utility.yul\":288:341   */\n      tag_222\n        /* \"#utility.yul\":306:340   */\n      tag_223\n        /* \"#utility.yul\":315:339   */\n      tag_224\n        /* \"#utility.yul\":333:338   */\n      dup5\n        /* \"#utility.yul\":315:339   */\n      tag_178\n      jump\t// in\n    tag_224:\n        /* \"#utility.yul\":306:340   */\n      tag_179\n      jump\t// in\n    tag_223:\n        /* \"#utility.yul\":288:341   */\n      tag_178\n      jump\t// in\n    tag_222:\n        /* \"#utility.yul\":275:341   */\n      swap1\n      pop\n        /* \"#utility.yul\":205:347   */\n      swap2\n      swap1\n      pop\n      jump\t// out\n        /* \"#utility.yul\":353:479   */\n    tag_181:\n        /* \"#utility.yul\":403:412   */\n      0x00\n        /* \"#utility.yul\":436:473   */\n      tag_226\n        /* \"#utility.yul\":467:472   */\n      dup3\n        /* \"#utility.yul\":436:473   */\n      tag_180\n      jump\t// in\n    tag_226:\n        /* \"#utility.yul\":423:473   */\n      swap1\n      pop\n        /* \"#utility.yul\":353:479   */\n      swap2\n      swap1\n      pop\n      jump\t// out\n        /* \"#utility.yul\":485:630   */\n    tag_182:\n        /* \"#utility.yul\":554:563   */\n      0x00\n        /* \"#utility.yul\":587:624   */\n      tag_228\n        /* \"#utility.yul\":618:623   */\n      dup3\n        /* \"#utility.yul\":587:624   */\n      tag_181\n      jump\t// in\n    tag_228:\n        /* \"#utility.yul\":574:624   */\n      swap1\n      pop\n        /* \"#utility.yul\":485:630   */\n      swap2\n      swap1\n      pop\n      jump\t// out\n        /* \"#utility.yul\":636:805   */\n    tag_183:\n        /* \"#utility.yul\":742:798   */\n      tag_230\n        /* \"#utility.yul\":792:797   */\n      dup2\n        /* \"#utility.yul\":742:798   */\n      tag_182\n      jump\t// in\n    tag_230:\n        /* \"#utility.yul\":737:740   */\n      dup3\n        /* \"#utility.yul\":730:799   */\n      mstore\n        /* \"#utility.yul\":636:805   */\n      pop\n      pop\n      jump\t// out\n        /* \"#utility.yul\":811:1071   */\n    tag_24:\n        /* \"#utility.yul\":923:927   */\n      0x00\n        /* \"#utility.yul\":961:963   */\n      0x20\n        /* \"#utility.yul\":950:959   */\n      dup3\n        /* \"#utility.yul\":946:964   */\n      add\n        /* \"#utility.yul\":938:964   */\n      swap1\n      pop\n        /* \"#utility.yul\":974:1064   */\n      tag_232\n        /* \"#utility.yul\":1061:1062   */\n      0x00\n        /* \"#utility.yul\":1050:1059   */\n      dup4\n        /* \"#utility.yul\":1046:1063   */\n      add\n        /* \"#utility.yul\":1037:1043   */\n      dup5\n        /* \"#utility.yul\":974:1064   */\n      tag_183\n      jump\t// in\n    tag_232:\n        /* \"#utility.yul\":811:1071   */\n      swap3\n      swap2\n      pop\n      pop\n      jump\t// out\n        /* \"#utility.yul\":1077:1230   */\n    tag_184:\n        /* \"#utility.yul\":1154:1163   */\n      0x00\n        /* \"#utility.yul\":1187:1224   */\n      tag_234\n        /* \"#utility.yul\":1218:1223   */\n      dup3\n        /* \"#utility.yul\":1187:1224   */\n      tag_181\n      jump\t// in\n    tag_234:\n        /* \"#utility.yul\":1174:1224   */\n      swap1\n      pop\n        /* \"#utility.yul\":1077:1230   */\n      swap2\n      swap1\n      pop\n      jump\t// out\n        /* \"#utility.yul\":1236:1421   */\n    tag_185:\n        /* \"#utility.yul\":1350:1414   */\n      tag_236\n        /* \"#utility.yul\":1408:1413   */\n      dup2\n        /* \"#utility.yul\":1350:1414   */\n      tag_184\n      jump\t// in\n    tag_236:\n        /* \"#utility.yul\":1345:1348   */\n      dup3\n        /* \"#utility.yul\":1338:1415   */\n      mstore\n        /* \"#utility.yul\":1236:1421   */\n      pop\n      pop\n      jump\t// out\n        /* \"#utility.yul\":1427:1703   */\n    tag_28:\n        /* \"#utility.yul\":1547:1551   */\n      0x00\n        /* \"#utility.yul\":1585:1587   */\n      0x20\n        /* \"#utility.yul\":1574:1583   */\n      dup3\n        /* \"#utility.yul\":1570:1588   */\n      add\n        /* \"#utility.yul\":1562:1588   */\n      swap1\n      pop\n        /* \"#utility.yul\":1598:1696   */\n      tag_238\n        /* \"#utility.yul\":1693:1694   */\n      0x00\n        /* \"#utility.yul\":1682:1691   */\n      dup4\n        /* \"#utility.yul\":1678:1695   */\n      add\n        /* \"#utility.yul\":1669:1675   */\n      dup5\n        /* \"#utility.yul\":1598:1696   */\n      tag_185\n      jump\t// in\n    tag_238:\n        /* \"#utility.yul\":1427:1703   */\n      swap3\n      swap2\n      pop\n      pop\n      jump\t// out\n        /* \"#utility.yul\":1709:1860   */\n    tag_186:\n        /* \"#utility.yul\":1784:1793   */\n      0x00\n        /* \"#utility.yul\":1817:1854   */\n      tag_240\n        /* \"#utility.yul\":1848:1853   */\n      dup3\n        /* \"#utility.yul\":1817:1854   */\n      tag_181\n      jump\t// in\n    tag_240:\n        /* \"#utility.yul\":1804:1854   */\n      swap1\n      pop\n        /* \"#utility.yul\":1709:1860   */\n      swap2\n      swap1\n      pop\n      jump\t// out\n        /* \"#utility.yul\":1866:2047   */\n    tag_187:\n        /* \"#utility.yul\":1978:2040   */\n      tag_242\n        /* \"#utility.yul\":2034:2039   */\n      dup2\n        /* \"#utility.yul\":1978:2040   */\n      tag_186\n      jump\t// in\n    tag_242:\n        /* \"#utility.yul\":1973:1976   */\n      dup3\n        /* \"#utility.yul\":1966:2041   */\n      mstore\n        /* \"#utility.yul\":1866:2047   */\n      pop\n      pop\n      jump\t// out\n        /* \"#utility.yul\":2053:2325   */\n    tag_32:\n        /* \"#utility.yul\":2171:2175   */\n      0x00\n        /* \"#utility.yul\":2209:2211   */\n      0x20\n        /* \"#utility.yul\":2198:2207   */\n      dup3\n        /* \"#utility.yul\":2194:2212   */\n      add\n        /* \"#utility.yul\":2186:2212   */\n      swap1\n      pop\n        /* \"#utility.yul\":2222:2318   */\n      tag_244\n        /* \"#utility.yul\":2315:2316   */\n      0x00\n        /* \"#utility.yul\":2304:2313   */\n      dup4\n        /* \"#utility.yul\":2300:2317   */\n      add\n        /* \"#utility.yul\":2291:2297   */\n      dup5\n        /* \"#utility.yul\":2222:2318   */\n      tag_187\n      jump\t// in\n    tag_244:\n        /* \"#utility.yul\":2053:2325   */\n      swap3\n      swap2\n      pop\n      pop\n      jump\t// out\n        /* \"#utility.yul\":2412:2529   */\n    tag_189:\n        /* \"#utility.yul\":2521:2522   */\n      0x00\n        /* \"#utility.yul\":2518:2519   */\n      dup1\n        /* \"#utility.yul\":2511:2523   */\n      revert\n        /* \"#utility.yul\":2658:2754   */\n    tag_191:\n        /* \"#utility.yul\":2695:2702   */\n      0x00\n        /* \"#utility.yul\":2724:2748   */\n      tag_249\n        /* \"#utility.yul\":2742:2747   */\n      dup3\n        /* \"#utility.yul\":2724:2748   */\n      tag_178\n      jump\t// in\n    tag_249:\n        /* \"#utility.yul\":2713:2748   */\n      swap1\n      pop\n        /* \"#utility.yul\":2658:2754   */\n      swap2\n      swap1\n      pop\n      jump\t// out\n        /* \"#utility.yul\":2760:2882   */\n    tag_192:\n        /* \"#utility.yul\":2833:2857   */\n      tag_251\n        /* \"#utility.yul\":2851:2856   */\n      dup2\n        /* \"#utility.yul\":2833:2857   */\n      tag_191\n      jump\t// in\n    tag_251:\n        /* \"#utility.yul\":2826:2831   */\n      dup2\n        /* \"#utility.yul\":2823:2858   */\n      eq\n        /* \"#utility.yul\":2813:2876   */\n      tag_252\n      jumpi\n        /* \"#utility.yul\":2872:2873   */\n      0x00\n        /* \"#utility.yul\":2869:2870   */\n      dup1\n        /* \"#utility.yul\":2862:2874   */\n      revert\n        /* \"#utility.yul\":2813:2876   */\n    tag_252:\n        /* \"#utility.yul\":2760:2882   */\n      pop\n      jump\t// out\n        /* \"#utility.yul\":2888:3027   */\n    tag_193:\n        /* \"#utility.yul\":2934:2939   */\n      0x00\n        /* \"#utility.yul\":2972:2978   */\n      dup2\n        /* \"#utility.yul\":2959:2979   */\n      calldataload\n        /* \"#utility.yul\":2950:2979   */\n      swap1\n      pop\n        /* \"#utility.yul\":2988:3021   */\n      tag_254\n        /* \"#utility.yul\":3015:3020   */\n      dup2\n        /* \"#utility.yul\":2988:3021   */\n      tag_192\n      jump\t// in\n    tag_254:\n        /* \"#utility.yul\":2888:3027   */\n      swap3\n      swap2\n      pop\n      pop\n      jump\t// out\n        /* \"#utility.yul\":3033:3362   */\n    tag_35:\n        /* \"#utility.yul\":3092:3098   */\n      0x00\n        /* \"#utility.yul\":3141:3143   */\n      0x20\n        /* \"#utility.yul\":3129:3138   */\n      dup3\n        /* \"#utility.yul\":3120:3127   */\n      dup5\n        /* \"#utility.yul\":3116:3139   */\n      sub\n        /* \"#utility.yul\":3112:3144   */\n      slt\n        /* \"#utility.yul\":3109:3228   */\n      iszero\n      tag_256\n      jumpi\n        /* \"#utility.yul\":3147:3226   */\n      tag_257\n      tag_189\n      jump\t// in\n    tag_257:\n        /* \"#utility.yul\":3109:3228   */\n    tag_256:\n        /* \"#utility.yul\":3267:3268   */\n      0x00\n        /* \"#utility.yul\":3292:3345   */\n      tag_258\n        /* \"#utility.yul\":3337:3344   */\n      dup5\n        /* \"#utility.yul\":3328:3334   */\n      dup3\n        /* \"#utility.yul\":3317:3326   */\n      dup6\n        /* \"#utility.yul\":3313:3335   */\n      add\n        /* \"#utility.yul\":3292:3345   */\n      tag_193\n      jump\t// in\n    tag_258:\n        /* \"#utility.yul\":3282:3345   */\n      swap2\n      pop\n        /* \"#utility.yul\":3238:3355   */\n      pop\n        /* \"#utility.yul\":3033:3362   */\n      swap3\n      swap2\n      pop\n      pop\n      jump\t// out\n        /* \"#utility.yul\":3368:3445   */\n    tag_194:\n        /* \"#utility.yul\":3405:3412   */\n      0x00\n        /* \"#utility.yul\":3434:3439   */\n      dup2\n        /* \"#utility.yul\":3423:3439   */\n      swap1\n      pop\n        /* \"#utility.yul\":3368:3445   */\n      swap2\n      swap1\n      pop\n      jump\t// out\n        /* \"#utility.yul\":3451:3569   */\n    tag_195:\n        /* \"#utility.yul\":3538:3562   */\n      tag_261\n        /* \"#utility.yul\":3556:3561   */\n      dup2\n        /* \"#utility.yul\":3538:3562   */\n      tag_194\n      jump\t// in\n    tag_261:\n        /* \"#utility.yul\":3533:3536   */\n      dup3\n        /* \"#utility.yul\":3526:3563   */\n      mstore\n        /* \"#utility.yul\":3451:3569   */\n      pop\n      pop\n      jump\t// out\n        /* \"#utility.yul\":3575:3797   */\n    tag_38:\n        /* \"#utility.yul\":3668:3672   */\n      0x00\n        /* \"#utility.yul\":3706:3708   */\n      0x20\n        /* \"#utility.yul\":3695:3704   */\n      dup3\n        /* \"#utility.yul\":3691:3709   */\n      add\n        /* \"#utility.yul\":3683:3709   */\n      swap1\n      pop\n        /* \"#utility.yul\":3719:3790   */\n      tag_263\n        /* \"#utility.yul\":3787:3788   */\n      0x00\n        /* \"#utility.yul\":3776:3785   */\n      dup4\n        /* \"#utility.yul\":3772:3789   */\n      add\n        /* \"#utility.yul\":3763:3769   */\n      dup5\n        /* \"#utility.yul\":3719:3790   */\n      tag_195\n      jump\t// in\n    tag_263:\n        /* \"#utility.yul\":3575:3797   */\n      swap3\n      swap2\n      pop\n      pop\n      jump\t// out\n        /* \"#utility.yul\":3803:3925   */\n    tag_196:\n        /* \"#utility.yul\":3876:3900   */\n      tag_265\n        /* \"#utility.yul\":3894:3899   */\n      dup2\n        /* \"#utility.yul\":3876:3900   */\n      tag_194\n      jump\t// in\n    tag_265:\n        /* \"#utility.yul\":3869:3874   */\n      dup2\n        /* \"#utility.yul\":3866:3901   */\n      eq\n        /* \"#utility.yul\":3856:3919   */\n      tag_266\n      jumpi\n        /* \"#utility.yul\":3915:3916   */\n      0x00\n        /* \"#utility.yul\":3912:3913   */\n      dup1\n        /* \"#utility.yul\":3905:3917   */\n      revert\n        /* \"#utility.yul\":3856:3919   */\n    tag_266:\n        /* \"#utility.yul\":3803:3925   */\n      pop\n      jump\t// out\n        /* \"#utility.yul\":3931:4070   */\n    tag_197:\n        /* \"#utility.yul\":3977:3982   */\n      0x00\n        /* \"#utility.yul\":4015:4021   */\n      dup2\n        /* \"#utility.yul\":4002:4022   */\n      calldataload\n        /* \"#utility.yul\":3993:4022   */\n      swap1\n      pop\n        /* \"#utility.yul\":4031:4064   */\n      tag_268\n        /* \"#utility.yul\":4058:4063   */\n      dup2\n        /* \"#utility.yul\":4031:4064   */\n      tag_196\n      jump\t// in\n    tag_268:\n        /* \"#utility.yul\":3931:4070   */\n      swap3\n      swap2\n      pop\n      pop\n      jump\t// out\n        /* \"#utility.yul\":4076:4405   */\n    tag_41:\n        /* \"#utility.yul\":4135:4141   */\n      0x00\n        /* \"#utility.yul\":4184:4186   */\n      0x20\n        /* \"#utility.yul\":4172:4181   */\n      dup3\n        /* \"#utility.yul\":4163:4170   */\n      dup5\n        /* \"#utility.yul\":4159:4182   */\n      sub\n        /* \"#utility.yul\":4155:4187   */\n      slt\n        /* \"#utility.yul\":4152:4271   */\n      iszero\n      tag_270\n      jumpi\n        /* \"#utility.yul\":4190:4269   */\n      tag_271\n      tag_189\n      jump\t// in\n    tag_271:\n        /* \"#utility.yul\":4152:4271   */\n    tag_270:\n        /* \"#utility.yul\":4310:4311   */\n      0x00\n        /* \"#utility.yul\":4335:4388   */\n      tag_272\n        /* \"#utility.yul\":4380:4387   */\n      dup5\n        /* \"#utility.yul\":4371:4377   */\n      dup3\n        /* \"#utility.yul\":4360:4369   */\n      dup6\n        /* \"#utility.yul\":4356:4378   */\n      add\n        /* \"#utility.yul\":4335:4388   */\n      tag_197\n      jump\t// in\n    tag_272:\n        /* \"#utility.yul\":4325:4388   */\n      swap2\n      pop\n        /* \"#utility.yul\":4281:4398   */\n      pop\n        /* \"#utility.yul\":4076:4405   */\n      swap3\n      swap2\n      pop\n      pop\n      jump\t// out\n        /* \"#utility.yul\":4411:4563   */\n    tag_198:\n        /* \"#utility.yul\":4487:4496   */\n      0x00\n        /* \"#utility.yul\":4520:4557   */\n      tag_274\n        /* \"#utility.yul\":4551:4556   */\n      dup3\n        /* \"#utility.yul\":4520:4557   */\n      tag_181\n      jump\t// in\n    tag_274:\n        /* \"#utility.yul\":4507:4557   */\n      swap1\n      pop\n        /* \"#utility.yul\":4411:4563   */\n      swap2\n      swap1\n      pop\n      jump\t// out\n        /* \"#utility.yul\":4569:4752   */\n    tag_199:\n        /* \"#utility.yul\":4682:4745   */\n      tag_276\n        /* \"#utility.yul\":4739:4744   */\n      dup2\n        /* \"#utility.yul\":4682:4745   */\n      tag_198\n      jump\t// in\n    tag_276:\n        /* \"#utility.yul\":4677:4680   */\n      dup3\n        /* \"#utility.yul\":4670:4746   */\n      mstore\n        /* \"#utility.yul\":4569:4752   */\n      pop\n      pop\n      jump\t// out\n        /* \"#utility.yul\":4758:5032   */\n    tag_75:\n        /* \"#utility.yul\":4877:4881   */\n      0x00\n        /* \"#utility.yul\":4915:4917   */\n      0x20\n        /* \"#utility.yul\":4904:4913   */\n      dup3\n        /* \"#utility.yul\":4900:4918   */\n      add\n        /* \"#utility.yul\":4892:4918   */\n      swap1\n      pop\n        /* \"#utility.yul\":4928:5025   */\n      tag_278\n        /* \"#utility.yul\":5022:5023   */\n      0x00\n        /* \"#utility.yul\":5011:5020   */\n      dup4\n        /* \"#utility.yul\":5007:5024   */\n      add\n        /* \"#utility.yul\":4998:5004   */\n      dup5\n        /* \"#utility.yul\":4928:5025   */\n      tag_199\n      jump\t// in\n    tag_278:\n        /* \"#utility.yul\":4758:5032   */\n      swap3\n      swap2\n      pop\n      pop\n      jump\t// out\n        /* \"#utility.yul\":5038:5207   */\n    tag_200:\n        /* \"#utility.yul\":5122:5133   */\n      0x00\n        /* \"#utility.yul\":5156:5162   */\n      dup3\n        /* \"#utility.yul\":5151:5154   */\n      dup3\n        /* \"#utility.yul\":5144:5163   */\n      mstore\n        /* \"#utility.yul\":5196:5200   */\n      0x20\n        /* \"#utility.yul\":5191:5194   */\n      dup3\n        /* \"#utility.yul\":5187:5201   */\n      add\n        /* \"#utility.yul\":5172:5201   */\n      swap1\n      pop\n        /* \"#utility.yul\":5038:5207   */\n      swap3\n      swap2\n      pop\n      pop\n      jump\t// out\n        /* \"#utility.yul\":5213:5383   */\n    tag_201:\n        /* \"#utility.yul\":5353:5375   */\n      0x496e73756666696369656e742062616c616e6365000000000000000000000000\n        /* \"#utility.yul\":5349:5350   */\n      0x00\n        /* \"#utility.yul\":5341:5347   */\n      dup3\n        /* \"#utility.yul\":5337:5351   */\n      add\n        /* \"#utility.yul\":5330:5376   */\n      mstore\n        /* \"#utility.yul\":5213:5383   */\n      pop\n      jump\t// out\n        /* \"#utility.yul\":5389:5755   */\n    tag_202:\n        /* \"#utility.yul\":5531:5534   */\n      0x00\n        /* \"#utility.yul\":5552:5619   */\n      tag_282\n        /* \"#utility.yul\":5616:5618   */\n      0x14\n        /* \"#utility.yul\":5611:5614   */\n      dup4\n        /* \"#utility.yul\":5552:5619   */\n      tag_200\n      jump\t// in\n    tag_282:\n        /* \"#utility.yul\":5545:5619   */\n      swap2\n      pop\n        /* \"#utility.yul\":5628:5721   */\n      tag_283\n        /* \"#utility.yul\":5717:5720   */\n      dup3\n        /* \"#utility.yul\":5628:5721   */\n      tag_201\n      jump\t// in\n    tag_283:\n        /* \"#utility.yul\":5746:5748   */\n      0x20\n        /* \"#utility.yul\":5741:5744   */\n      dup3\n        /* \"#utility.yul\":5737:5749   */\n      add\n        /* \"#utility.yul\":5730:5749   */\n      swap1\n      pop\n        /* \"#utility.yul\":5389:5755   */\n      swap2\n      swap1\n      pop\n      jump\t// out\n        /* \"#utility.yul\":5761:6180   */\n    tag_79:\n        /* \"#utility.yul\":5927:5931   */\n      0x00\n        /* \"#utility.yul\":5965:5967   */\n      0x20\n        /* \"#utility.yul\":5954:5963   */\n      dup3\n        /* \"#utility.yul\":5950:5968   */\n      add\n        /* \"#utility.yul\":5942:5968   */\n      swap1\n      pop\n        /* \"#utility.yul\":6014:6023   */\n      dup2\n        /* \"#utility.yul\":6008:6012   */\n      dup2\n        /* \"#utility.yul\":6004:6024   */\n      sub\n        /* \"#utility.yul\":6000:6001   */\n      0x00\n        /* \"#utility.yul\":5989:5998   */\n      dup4\n        /* \"#utility.yul\":5985:6002   */\n      add\n        /* \"#utility.yul\":5978:6025   */\n      mstore\n        /* \"#utility.yul\":6042:6173   */\n      tag_285\n        /* \"#utility.yul\":6168:6172   */\n      dup2\n        /* \"#utility.yul\":6042:6173   */\n      tag_202\n      jump\t// in\n    tag_285:\n        /* \"#utility.yul\":6034:6173   */\n      swap1\n      pop\n        /* \"#utility.yul\":5761:6180   */\n      swap2\n      swap1\n      pop\n      jump\t// out\n        /* \"#utility.yul\":6186:6366   */\n    tag_203:\n        /* \"#utility.yul\":6234:6311   */\n      0x4e487b7100000000000000000000000000000000000000000000000000000000\n        /* \"#utility.yul\":6231:6232   */\n      0x00\n        /* \"#utility.yul\":6224:6312   */\n      mstore\n        /* \"#utility.yul\":6331:6335   */\n      0x11\n        /* \"#utility.yul\":6328:6329   */\n      0x04\n        /* \"#utility.yul\":6321:6336   */\n      mstore\n        /* \"#utility.yul\":6355:6359   */\n      0x24\n        /* \"#utility.yul\":6352:6353   */\n      0x00\n        /* \"#utility.yul\":6345:6360   */\n      revert\n        /* \"#utility.yul\":6372:6566   */\n    tag_81:\n        /* \"#utility.yul\":6412:6416   */\n      0x00\n        /* \"#utility.yul\":6432:6452   */\n      tag_288\n        /* \"#utility.yul\":6450:6451   */\n      dup3\n        /* \"#utility.yul\":6432:6452   */\n      tag_194\n      jump\t// in\n    tag_288:\n        /* \"#utility.yul\":6427:6452   */\n      swap2\n      pop\n        /* \"#utility.yul\":6466:6486   */\n      tag_289\n        /* \"#utility.yul\":6484:6485   */\n      dup4\n        /* \"#utility.yul\":6466:6486   */\n      tag_194\n      jump\t// in\n    tag_289:\n        /* \"#utility.yul\":6461:6486   */\n      swap3\n      pop\n        /* \"#utility.yul\":6510:6511   */\n      dup3\n        /* \"#utility.yul\":6507:6508   */\n      dup3\n        /* \"#utility.yul\":6503:6512   */\n      sub\n        /* \"#utility.yul\":6495:6512   */\n      swap1\n      pop\n        /* \"#utility.yul\":6534:6535   */\n      dup2\n        /* \"#utility.yul\":6528:6532   */\n      dup2\n        /* \"#utility.yul\":6525:6536   */\n      gt\n        /* \"#utility.yul\":6522:6559   */\n      iszero\n      tag_290\n      jumpi\n        /* \"#utility.yul\":6539:6557   */\n      tag_291\n      tag_203\n      jump\t// in\n    tag_291:\n        /* \"#utility.yul\":6522:6559   */\n    tag_290:\n        /* \"#utility.yul\":6372:6566   */\n      swap3\n      swap2\n      pop\n      pop\n      jump\t// out\n        /* \"#utility.yul\":6572:6690   */\n    tag_204:\n        /* \"#utility.yul\":6659:6683   */\n      tag_293\n        /* \"#utility.yul\":6677:6682   */\n      dup2\n        /* \"#utility.yul\":6659:6683   */\n      tag_191\n      jump\t// in\n    tag_293:\n        /* \"#utility.yul\":6654:6657   */\n      dup3\n        /* \"#utility.yul\":6647:6684   */\n      mstore\n        /* \"#utility.yul\":6572:6690   */\n      pop\n      pop\n      jump\t// out\n        /* \"#utility.yul\":6696:7028   */\n    tag_83:\n        /* \"#utility.yul\":6817:6821   */\n      0x00\n        /* \"#utility.yul\":6855:6857   */\n      0x40\n        /* \"#utility.yul\":6844:6853   */\n      dup3\n        /* \"#utility.yul\":6840:6858   */\n      add\n        /* \"#utility.yul\":6832:6858   */\n      swap1\n      pop\n        /* \"#utility.yul\":6868:6939   */\n      tag_295\n        /* \"#utility.yul\":6936:6937   */\n      0x00\n        /* \"#utility.yul\":6925:6934   */\n      dup4\n        /* \"#utility.yul\":6921:6938   */\n      add\n        /* \"#utility.yul\":6912:6918   */\n      dup6\n        /* \"#utility.yul\":6868:6939   */\n      tag_204\n      jump\t// in\n    tag_295:\n        /* \"#utility.yul\":6949:7021   */\n      tag_296\n        /* \"#utility.yul\":7017:7019   */\n      0x20\n        /* \"#utility.yul\":7006:7015   */\n      dup4\n        /* \"#utility.yul\":7002:7020   */\n      add\n        /* \"#utility.yul\":6993:6999   */\n      dup5\n        /* \"#utility.yul\":6949:7021   */\n      tag_195\n      jump\t// in\n    tag_296:\n        /* \"#utility.yul\":6696:7028   */\n      swap4\n      swap3\n      pop\n      pop\n      pop\n      jump\t// out\n        /* \"#utility.yul\":7034:7124   */\n    tag_205:\n        /* \"#utility.yul\":7068:7075   */\n      0x00\n        /* \"#utility.yul\":7111:7116   */\n      dup2\n        /* \"#utility.yul\":7104:7117   */\n      iszero\n        /* \"#utility.yul\":7097:7118   */\n      iszero\n        /* \"#utility.yul\":7086:7118   */\n      swap1\n      pop\n        /* \"#utility.yul\":7034:7124   */\n      swap2\n      swap1\n      pop\n      jump\t// out\n        /* \"#utility.yul\":7130:7246   */\n    tag_206:\n        /* \"#utility.yul\":7200:7221   */\n      tag_299\n        /* \"#utility.yul\":7215:7220   */\n      dup2\n        /* \"#utility.yul\":7200:7221   */\n      tag_205\n      jump\t// in\n    tag_299:\n        /* \"#utility.yul\":7193:7198   */\n      dup2\n        /* \"#utility.yul\":7190:7222   */\n      eq\n        /* \"#utility.yul\":7180:7240   */\n      tag_300\n      jumpi\n        /* \"#utility.yul\":7236:7237   */\n      0x00\n        /* \"#utility.yul\":7233:7234   */\n      dup1\n        /* \"#utility.yul\":7226:7238   */\n      revert\n        /* \"#utility.yul\":7180:7240   */\n    tag_300:\n        /* \"#utility.yul\":7130:7246   */\n      pop\n      jump\t// out\n        /* \"#utility.yul\":7252:7389   */\n    tag_207:\n        /* \"#utility.yul\":7306:7311   */\n      0x00\n        /* \"#utility.yul\":7337:7343   */\n      dup2\n        /* \"#utility.yul\":7331:7344   */\n      mload\n        /* \"#utility.yul\":7322:7344   */\n      swap1\n      pop\n        /* \"#utility.yul\":7353:7383   */\n      tag_302\n        /* \"#utility.yul\":7377:7382   */\n      dup2\n        /* \"#utility.yul\":7353:7383   */\n      tag_206\n      jump\t// in\n    tag_302:\n        /* \"#utility.yul\":7252:7389   */\n      swap3\n      swap2\n      pop\n      pop\n      jump\t// out\n        /* \"#utility.yul\":7395:7740   */\n    tag_87:\n        /* \"#utility.yul\":7462:7468   */\n      0x00\n        /* \"#utility.yul\":7511:7513   */\n      0x20\n        /* \"#utility.yul\":7499:7508   */\n      dup3\n        /* \"#utility.yul\":7490:7497   */\n      dup5\n        /* \"#utility.yul\":7486:7509   */\n      sub\n        /* \"#utility.yul\":7482:7514   */\n      slt\n        /* \"#utility.yul\":7479:7598   */\n      iszero\n      tag_304\n      jumpi\n        /* \"#utility.yul\":7517:7596   */\n      tag_305\n      tag_189\n      jump\t// in\n    tag_305:\n        /* \"#utility.yul\":7479:7598   */\n    tag_304:\n        /* \"#utility.yul\":7637:7638   */\n      0x00\n        /* \"#utility.yul\":7662:7723   */\n      tag_306\n        /* \"#utility.yul\":7715:7722   */\n      dup5\n        /* \"#utility.yul\":7706:7712   */\n      dup3\n        /* \"#utility.yul\":7695:7704   */\n      dup6\n        /* \"#utility.yul\":7691:7713   */\n      add\n        /* \"#utility.yul\":7662:7723   */\n      tag_207\n      jump\t// in\n    tag_306:\n        /* \"#utility.yul\":7652:7723   */\n      swap2\n      pop\n        /* \"#utility.yul\":7608:7733   */\n      pop\n        /* \"#utility.yul\":7395:7740   */\n      swap3\n      swap2\n      pop\n      pop\n      jump\t// out\n        /* \"#utility.yul\":7746:8078   */\n    tag_90:\n        /* \"#utility.yul\":7867:7871   */\n      0x00\n        /* \"#utility.yul\":7905:7907   */\n      0x40\n        /* \"#utility.yul\":7894:7903   */\n      dup3\n        /* \"#utility.yul\":7890:7908   */\n      add\n        /* \"#utility.yul\":7882:7908   */\n      swap1\n      pop\n        /* \"#utility.yul\":7918:7989   */\n      tag_308\n        /* \"#utility.yul\":7986:7987   */\n      0x00\n        /* \"#utility.yul\":7975:7984   */\n      dup4\n        /* \"#utility.yul\":7971:7988   */\n      add\n        /* \"#utility.yul\":7962:7968   */\n      dup6\n        /* \"#utility.yul\":7918:7989   */\n      tag_204\n      jump\t// in\n    tag_308:\n        /* \"#utility.yul\":7999:8071   */\n      tag_309\n        /* \"#utility.yul\":8067:8069   */\n      0x20\n        /* \"#utility.yul\":8056:8065   */\n      dup4\n        /* \"#utility.yul\":8052:8070   */\n      add\n        /* \"#utility.yul\":8043:8049   */\n      dup5\n        /* \"#utility.yul\":7999:8071   */\n      tag_204\n      jump\t// in\n    tag_309:\n        /* \"#utility.yul\":7746:8078   */\n      swap4\n      swap3\n      pop\n      pop\n      pop\n      jump\t// out\n        /* \"#utility.yul\":8084:8306   */\n    tag_208:\n        /* \"#utility.yul\":8224:8258   */\n      0x426f72726f776572206973206e6f7420756e646572636f6c6c61746572616c69\n        /* \"#utility.yul\":8220:8221   */\n      0x00\n        /* \"#utility.yul\":8212:8218   */\n      dup3\n        /* \"#utility.yul\":8208:8222   */\n      add\n        /* \"#utility.yul\":8201:8259   */\n      mstore\n        /* \"#utility.yul\":8293:8298   */\n      0x7a65640000000000000000000000000000000000000000000000000000000000\n        /* \"#utility.yul\":8288:8290   */\n      0x20\n        /* \"#utility.yul\":8280:8286   */\n      dup3\n        /* \"#utility.yul\":8276:8291   */\n      add\n        /* \"#utility.yul\":8269:8299   */\n      mstore\n        /* \"#utility.yul\":8084:8306   */\n      pop\n      jump\t// out\n        /* \"#utility.yul\":8312:8678   */\n    tag_209:\n        /* \"#utility.yul\":8454:8457   */\n      0x00\n        /* \"#utility.yul\":8475:8542   */\n      tag_312\n        /* \"#utility.yul\":8539:8541   */\n      0x23\n        /* \"#utility.yul\":8534:8537   */\n      dup4\n        /* \"#utility.yul\":8475:8542   */\n      tag_200\n      jump\t// in\n    tag_312:\n        /* \"#utility.yul\":8468:8542   */\n      swap2\n      pop\n        /* \"#utility.yul\":8551:8644   */\n      tag_313\n        /* \"#utility.yul\":8640:8643   */\n      dup3\n        /* \"#utility.yul\":8551:8644   */\n      tag_208\n      jump\t// in\n    tag_313:\n        /* \"#utility.yul\":8669:8671   */\n      0x40\n        /* \"#utility.yul\":8664:8667   */\n      dup3\n        /* \"#utility.yul\":8660:8672   */\n      add\n        /* \"#utility.yul\":8653:8672   */\n      swap1\n      pop\n        /* \"#utility.yul\":8312:8678   */\n      swap2\n      swap1\n      pop\n      jump\t// out\n        /* \"#utility.yul\":8684:9103   */\n    tag_96:\n        /* \"#utility.yul\":8850:8854   */\n      0x00\n        /* \"#utility.yul\":8888:8890   */\n      0x20\n        /* \"#utility.yul\":8877:8886   */\n      dup3\n        /* \"#utility.yul\":8873:8891   */\n      add\n        /* \"#utility.yul\":8865:8891   */\n      swap1\n      pop\n        /* \"#utility.yul\":8937:8946   */\n      dup2\n        /* \"#utility.yul\":8931:8935   */\n      dup2\n        /* \"#utility.yul\":8927:8947   */\n      sub\n        /* \"#utility.yul\":8923:8924   */\n      0x00\n        /* \"#utility.yul\":8912:8921   */\n      dup4\n        /* \"#utility.yul\":8908:8925   */\n      add\n        /* \"#utility.yul\":8901:8948   */\n      mstore\n        /* \"#utility.yul\":8965:9096   */\n      tag_315\n        /* \"#utility.yul\":9091:9095   */\n      dup2\n        /* \"#utility.yul\":8965:9096   */\n      tag_209\n      jump\t// in\n    tag_315:\n        /* \"#utility.yul\":8957:9096   */\n      swap1\n      pop\n        /* \"#utility.yul\":8684:9103   */\n      swap2\n      swap1\n      pop\n      jump\t// out\n        /* \"#utility.yul\":9109:9252   */\n    tag_210:\n        /* \"#utility.yul\":9166:9171   */\n      0x00\n        /* \"#utility.yul\":9197:9203   */\n      dup2\n        /* \"#utility.yul\":9191:9204   */\n      mload\n        /* \"#utility.yul\":9182:9204   */\n      swap1\n      pop\n        /* \"#utility.yul\":9213:9246   */\n      tag_317\n        /* \"#utility.yul\":9240:9245   */\n      dup2\n        /* \"#utility.yul\":9213:9246   */\n      tag_196\n      jump\t// in\n    tag_317:\n        /* \"#utility.yul\":9109:9252   */\n      swap3\n      swap2\n      pop\n      pop\n      jump\t// out\n        /* \"#utility.yul\":9258:9609   */\n    tag_100:\n        /* \"#utility.yul\":9328:9334   */\n      0x00\n        /* \"#utility.yul\":9377:9379   */\n      0x20\n        /* \"#utility.yul\":9365:9374   */\n      dup3\n        /* \"#utility.yul\":9356:9363   */\n      dup5\n        /* \"#utility.yul\":9352:9375   */\n      sub\n        /* \"#utility.yul\":9348:9380   */\n      slt\n        /* \"#utility.yul\":9345:9464   */\n      iszero\n      tag_319\n      jumpi\n        /* \"#utility.yul\":9383:9462   */\n      tag_320\n      tag_189\n      jump\t// in\n    tag_320:\n        /* \"#utility.yul\":9345:9464   */\n    tag_319:\n        /* \"#utility.yul\":9503:9504   */\n      0x00\n        /* \"#utility.yul\":9528:9592   */\n      tag_321\n        /* \"#utility.yul\":9584:9591   */\n      dup5\n        /* \"#utility.yul\":9575:9581   */\n      dup3\n        /* \"#utility.yul\":9564:9573   */\n      dup6\n        /* \"#utility.yul\":9560:9582   */\n      add\n        /* \"#utility.yul\":9528:9592   */\n      tag_210\n      jump\t// in\n    tag_321:\n        /* \"#utility.yul\":9518:9592   */\n      swap2\n      pop\n        /* \"#utility.yul\":9474:9602   */\n      pop\n        /* \"#utility.yul\":9258:9609   */\n      swap3\n      swap2\n      pop\n      pop\n      jump\t// out\n        /* \"#utility.yul\":9615:9806   */\n    tag_102:\n        /* \"#utility.yul\":9655:9658   */\n      0x00\n        /* \"#utility.yul\":9674:9694   */\n      tag_323\n        /* \"#utility.yul\":9692:9693   */\n      dup3\n        /* \"#utility.yul\":9674:9694   */\n      tag_194\n      jump\t// in\n    tag_323:\n        /* \"#utility.yul\":9669:9694   */\n      swap2\n      pop\n        /* \"#utility.yul\":9708:9728   */\n      tag_324\n        /* \"#utility.yul\":9726:9727   */\n      dup4\n        /* \"#utility.yul\":9708:9728   */\n      tag_194\n      jump\t// in\n    tag_324:\n        /* \"#utility.yul\":9703:9728   */\n      swap3\n      pop\n        /* \"#utility.yul\":9751:9752   */\n      dup3\n        /* \"#utility.yul\":9748:9749   */\n      dup3\n        /* \"#utility.yul\":9744:9753   */\n      add\n        /* \"#utility.yul\":9737:9753   */\n      swap1\n      pop\n        /* \"#utility.yul\":9772:9775   */\n      dup1\n        /* \"#utility.yul\":9769:9770   */\n      dup3\n        /* \"#utility.yul\":9766:9776   */\n      gt\n        /* \"#utility.yul\":9763:9799   */\n      iszero\n      tag_325\n      jumpi\n        /* \"#utility.yul\":9779:9797   */\n      tag_326\n      tag_203\n      jump\t// in\n    tag_326:\n        /* \"#utility.yul\":9763:9799   */\n    tag_325:\n        /* \"#utility.yul\":9615:9806   */\n      swap3\n      swap2\n      pop\n      pop\n      jump\t// out\n        /* \"#utility.yul\":9812:10222   */\n    tag_104:\n        /* \"#utility.yul\":9852:9859   */\n      0x00\n        /* \"#utility.yul\":9875:9895   */\n      tag_328\n        /* \"#utility.yul\":9893:9894   */\n      dup3\n        /* \"#utility.yul\":9875:9895   */\n      tag_194\n      jump\t// in\n    tag_328:\n        /* \"#utility.yul\":9870:9895   */\n      swap2\n      pop\n        /* \"#utility.yul\":9909:9929   */\n      tag_329\n        /* \"#utility.yul\":9927:9928   */\n      dup4\n        /* \"#utility.yul\":9909:9929   */\n      tag_194\n      jump\t// in\n    tag_329:\n        /* \"#utility.yul\":9904:9929   */\n      swap3\n      pop\n        /* \"#utility.yul\":9964:9965   */\n      dup3\n        /* \"#utility.yul\":9961:9962   */\n      dup3\n        /* \"#utility.yul\":9957:9966   */\n      mul\n        /* \"#utility.yul\":9986:10016   */\n      tag_330\n        /* \"#utility.yul\":10004:10015   */\n      dup2\n        /* \"#utility.yul\":9986:10016   */\n      tag_194\n      jump\t// in\n    tag_330:\n        /* \"#utility.yul\":9975:10016   */\n      swap2\n      pop\n        /* \"#utility.yul\":10165:10166   */\n      dup3\n        /* \"#utility.yul\":10156:10163   */\n      dup3\n        /* \"#utility.yul\":10152:10167   */\n      div\n        /* \"#utility.yul\":10149:10150   */\n      dup5\n        /* \"#utility.yul\":10146:10168   */\n      eq\n        /* \"#utility.yul\":10126:10127   */\n      dup4\n        /* \"#utility.yul\":10119:10128   */\n      iszero\n        /* \"#utility.yul\":10099:10182   */\n      or\n        /* \"#utility.yul\":10076:10215   */\n      tag_331\n      jumpi\n        /* \"#utility.yul\":10195:10213   */\n      tag_332\n      tag_203\n      jump\t// in\n    tag_332:\n        /* \"#utility.yul\":10076:10215   */\n    tag_331:\n        /* \"#utility.yul\":9860:10222   */\n      pop\n        /* \"#utility.yul\":9812:10222   */\n      swap3\n      swap2\n      pop\n      pop\n      jump\t// out\n        /* \"#utility.yul\":10228:10408   */\n    tag_211:\n        /* \"#utility.yul\":10276:10353   */\n      0x4e487b7100000000000000000000000000000000000000000000000000000000\n        /* \"#utility.yul\":10273:10274   */\n      0x00\n        /* \"#utility.yul\":10266:10354   */\n      mstore\n        /* \"#utility.yul\":10373:10377   */\n      0x12\n        /* \"#utility.yul\":10370:10371   */\n      0x04\n        /* \"#utility.yul\":10363:10378   */\n      mstore\n        /* \"#utility.yul\":10397:10401   */\n      0x24\n        /* \"#utility.yul\":10394:10395   */\n      0x00\n        /* \"#utility.yul\":10387:10402   */\n      revert\n        /* \"#utility.yul\":10414:10599   */\n    tag_106:\n        /* \"#utility.yul\":10454:10455   */\n      0x00\n        /* \"#utility.yul\":10471:10491   */\n      tag_335\n        /* \"#utility.yul\":10489:10490   */\n      dup3\n        /* \"#utility.yul\":10471:10491   */\n      tag_194\n      jump\t// in\n    tag_335:\n        /* \"#utility.yul\":10466:10491   */\n      swap2\n      pop\n        /* \"#utility.yul\":10505:10525   */\n      tag_336\n        /* \"#utility.yul\":10523:10524   */\n      dup4\n        /* \"#utility.yul\":10505:10525   */\n      tag_194\n      jump\t// in\n    tag_336:\n        /* \"#utility.yul\":10500:10525   */\n      swap3\n      pop\n        /* \"#utility.yul\":10544:10545   */\n      dup3\n        /* \"#utility.yul\":10534:10569   */\n      tag_337\n      jumpi\n        /* \"#utility.yul\":10549:10567   */\n      tag_338\n      tag_211\n      jump\t// in\n    tag_338:\n        /* \"#utility.yul\":10534:10569   */\n    tag_337:\n        /* \"#utility.yul\":10591:10592   */\n      dup3\n        /* \"#utility.yul\":10588:10589   */\n      dup3\n        /* \"#utility.yul\":10584:10593   */\n      div\n        /* \"#utility.yul\":10579:10593   */\n      swap1\n      pop\n        /* \"#utility.yul\":10414:10599   */\n      swap3\n      swap2\n      pop\n      pop\n      jump\t// out\n        /* \"#utility.yul\":10605:11047   */\n    tag_112:\n        /* \"#utility.yul\":10754:10758   */\n      0x00\n        /* \"#utility.yul\":10792:10794   */\n      0x60\n        /* \"#utility.yul\":10781:10790   */\n      dup3\n        /* \"#utility.yul\":10777:10795   */\n      add\n        /* \"#utility.yul\":10769:10795   */\n      swap1\n      pop\n        /* \"#utility.yul\":10805:10876   */\n      tag_340\n        /* \"#utility.yul\":10873:10874   */\n      0x00\n        /* \"#utility.yul\":10862:10871   */\n      dup4\n        /* \"#utility.yul\":10858:10875   */\n      add\n        /* \"#utility.yul\":10849:10855   */\n      dup7\n        /* \"#utility.yul\":10805:10876   */\n      tag_204\n      jump\t// in\n    tag_340:\n        /* \"#utility.yul\":10886:10958   */\n      tag_341\n        /* \"#utility.yul\":10954:10956   */\n      0x20\n        /* \"#utility.yul\":10943:10952   */\n      dup4\n        /* \"#utility.yul\":10939:10957   */\n      add\n        /* \"#utility.yul\":10930:10936   */\n      dup6\n        /* \"#utility.yul\":10886:10958   */\n      tag_204\n      jump\t// in\n    tag_341:\n        /* \"#utility.yul\":10968:11040   */\n      tag_342\n        /* \"#utility.yul\":11036:11038   */\n      0x40\n        /* \"#utility.yul\":11025:11034   */\n      dup4\n        /* \"#utility.yul\":11021:11039   */\n      add\n        /* \"#utility.yul\":11012:11018   */\n      dup5\n        /* \"#utility.yul\":10968:11040   */\n      tag_195\n      jump\t// in\n    tag_342:\n        /* \"#utility.yul\":10605:11047   */\n      swap5\n      swap4\n      pop\n      pop\n      pop\n      pop\n      jump\t// out\n        /* \"#utility.yul\":11053:11222   */\n    tag_212:\n        /* \"#utility.yul\":11193:11214   */\n      0x416d6f756e742065786365656473206465627400000000000000000000000000\n        /* \"#utility.yul\":11189:11190   */\n      0x00\n        /* \"#utility.yul\":11181:11187   */\n      dup3\n        /* \"#utility.yul\":11177:11191   */\n      add\n        /* \"#utility.yul\":11170:11215   */\n      mstore\n        /* \"#utility.yul\":11053:11222   */\n      pop\n      jump\t// out\n        /* \"#utility.yul\":11228:11594   */\n    tag_213:\n        /* \"#utility.yul\":11370:11373   */\n      0x00\n        /* \"#utility.yul\":11391:11458   */\n      tag_345\n        /* \"#utility.yul\":11455:11457   */\n      0x13\n        /* \"#utility.yul\":11450:11453   */\n      dup4\n        /* \"#utility.yul\":11391:11458   */\n      tag_200\n      jump\t// in\n    tag_345:\n        /* \"#utility.yul\":11384:11458   */\n      swap2\n      pop\n        /* \"#utility.yul\":11467:11560   */\n      tag_346\n        /* \"#utility.yul\":11556:11559   */\n      dup3\n        /* \"#utility.yul\":11467:11560   */\n      tag_212\n      jump\t// in\n    tag_346:\n        /* \"#utility.yul\":11585:11587   */\n      0x20\n        /* \"#utility.yul\":11580:11583   */\n      dup3\n        /* \"#utility.yul\":11576:11588   */\n      add\n        /* \"#utility.yul\":11569:11588   */\n      swap1\n      pop\n        /* \"#utility.yul\":11228:11594   */\n      swap2\n      swap1\n      pop\n      jump\t// out\n        /* \"#utility.yul\":11600:12019   */\n    tag_119:\n        /* \"#utility.yul\":11766:11770   */\n      0x00\n        /* \"#utility.yul\":11804:11806   */\n      0x20\n        /* \"#utility.yul\":11793:11802   */\n      dup3\n        /* \"#utility.yul\":11789:11807   */\n      add\n        /* \"#utility.yul\":11781:11807   */\n      swap1\n      pop\n        /* \"#utility.yul\":11853:11862   */\n      dup2\n        /* \"#utility.yul\":11847:11851   */\n      dup2\n        /* \"#utility.yul\":11843:11863   */\n      sub\n        /* \"#utility.yul\":11839:11840   */\n      0x00\n        /* \"#utility.yul\":11828:11837   */\n      dup4\n        /* \"#utility.yul\":11824:11841   */\n      add\n        /* \"#utility.yul\":11817:11864   */\n      mstore\n        /* \"#utility.yul\":11881:12012   */\n      tag_348\n        /* \"#utility.yul\":12007:12011   */\n      dup2\n        /* \"#utility.yul\":11881:12012   */\n      tag_213\n      jump\t// in\n    tag_348:\n        /* \"#utility.yul\":11873:12012   */\n      swap1\n      pop\n        /* \"#utility.yul\":11600:12019   */\n      swap2\n      swap1\n      pop\n      jump\t// out\n        /* \"#utility.yul\":12025:12247   */\n    tag_132:\n        /* \"#utility.yul\":12118:12122   */\n      0x00\n        /* \"#utility.yul\":12156:12158   */\n      0x20\n        /* \"#utility.yul\":12145:12154   */\n      dup3\n        /* \"#utility.yul\":12141:12159   */\n      add\n        /* \"#utility.yul\":12133:12159   */\n      swap1\n      pop\n        /* \"#utility.yul\":12169:12240   */\n      tag_350\n        /* \"#utility.yul\":12237:12238   */\n      0x00\n        /* \"#utility.yul\":12226:12235   */\n      dup4\n        /* \"#utility.yul\":12222:12239   */\n      add\n        /* \"#utility.yul\":12213:12219   */\n      dup5\n        /* \"#utility.yul\":12169:12240   */\n      tag_204\n      jump\t// in\n    tag_350:\n        /* \"#utility.yul\":12025:12247   */\n      swap3\n      swap2\n      pop\n      pop\n      jump\t// out\n        /* \"#utility.yul\":12253:12426   */\n    tag_214:\n        /* \"#utility.yul\":12393:12418   */\n      0x496e73756666696369656e7420636f6c6c61746572616c000000000000000000\n        /* \"#utility.yul\":12389:12390   */\n      0x00\n        /* \"#utility.yul\":12381:12387   */\n      dup3\n        /* \"#utility.yul\":12377:12391   */\n      add\n        /* \"#utility.yul\":12370:12419   */\n      mstore\n        /* \"#utility.yul\":12253:12426   */\n      pop\n      jump\t// out\n        /* \"#utility.yul\":12432:12798   */\n    tag_215:\n        /* \"#utility.yul\":12574:12577   */\n      0x00\n        /* \"#utility.yul\":12595:12662   */\n      tag_353\n        /* \"#utility.yul\":12659:12661   */\n      0x17\n        /* \"#utility.yul\":12654:12657   */\n      dup4\n        /* \"#utility.yul\":12595:12662   */\n      tag_200\n      jump\t// in\n    tag_353:\n        /* \"#utility.yul\":12588:12662   */\n      swap2\n      pop\n        /* \"#utility.yul\":12671:12764   */\n      tag_354\n        /* \"#utility.yul\":12760:12763   */\n      dup3\n        /* \"#utility.yul\":12671:12764   */\n      tag_214\n      jump\t// in\n    tag_354:\n        /* \"#utility.yul\":12789:12791   */\n      0x20\n        /* \"#utility.yul\":12784:12787   */\n      dup3\n        /* \"#utility.yul\":12780:12792   */\n      add\n        /* \"#utility.yul\":12773:12792   */\n      swap1\n      pop\n        /* \"#utility.yul\":12432:12798   */\n      swap2\n      swap1\n      pop\n      jump\t// out\n        /* \"#utility.yul\":12804:13223   */\n    tag_164:\n        /* \"#utility.yul\":12970:12974   */\n      0x00\n        /* \"#utility.yul\":13008:13010   */\n      0x20\n        /* \"#utility.yul\":12997:13006   */\n      dup3\n        /* \"#utility.yul\":12993:13011   */\n      add\n        /* \"#utility.yul\":12985:13011   */\n      swap1\n      pop\n        /* \"#utility.yul\":13057:13066   */\n      dup2\n        /* \"#utility.yul\":13051:13055   */\n      dup2\n        /* \"#utility.yul\":13047:13067   */\n      sub\n        /* \"#utility.yul\":13043:13044   */\n      0x00\n        /* \"#utility.yul\":13032:13041   */\n      dup4\n        /* \"#utility.yul\":13028:13045   */\n      add\n        /* \"#utility.yul\":13021:13068   */\n      mstore\n        /* \"#utility.yul\":13085:13216   */\n      tag_356\n        /* \"#utility.yul\":13211:13215   */\n      dup2\n        /* \"#utility.yul\":13085:13216   */\n      tag_215\n      jump\t// in\n    tag_356:\n        /* \"#utility.yul\":13077:13216   */\n      swap1\n      pop\n        /* \"#utility.yul\":12804:13223   */\n      swap2\n      swap1\n      pop\n      jump\t// out\n        /* \"#utility.yul\":13229:13399   */\n    tag_216:\n        /* \"#utility.yul\":13369:13391   */\n      0x4e6f7420656e6f756768206c6971756964697479000000000000000000000000\n        /* \"#utility.yul\":13365:13366   */\n      0x00\n        /* \"#utility.yul\":13357:13363   */\n      dup3\n        /* \"#utility.yul\":13353:13367   */\n      add\n        /* \"#utility.yul\":13346:13392   */\n      mstore\n        /* \"#utility.yul\":13229:13399   */\n      pop\n      jump\t// out\n        /* \"#utility.yul\":13405:13771   */\n    tag_217:\n        /* \"#utility.yul\":13547:13550   */\n      0x00\n        /* \"#utility.yul\":13568:13635   */\n      tag_359\n        /* \"#utility.yul\":13632:13634   */\n      0x14\n        /* \"#utility.yul\":13627:13630   */\n      dup4\n        /* \"#utility.yul\":13568:13635   */\n      tag_200\n      jump\t// in\n    tag_359:\n        /* \"#utility.yul\":13561:13635   */\n      swap2\n      pop\n        /* \"#utility.yul\":13644:13737   */\n      tag_360\n        /* \"#utility.yul\":13733:13736   */\n      dup3\n        /* \"#utility.yul\":13644:13737   */\n      tag_216\n      jump\t// in\n    tag_360:\n        /* \"#utility.yul\":13762:13764   */\n      0x20\n        /* \"#utility.yul\":13757:13760   */\n      dup3\n        /* \"#utility.yul\":13753:13765   */\n      add\n        /* \"#utility.yul\":13746:13765   */\n      swap1\n      pop\n        /* \"#utility.yul\":13405:13771   */\n      swap2\n      swap1\n      pop\n      jump\t// out\n        /* \"#utility.yul\":13777:14196   */\n    tag_167:\n        /* \"#utility.yul\":13943:13947   */\n      0x00\n        /* \"#utility.yul\":13981:13983   */\n      0x20\n        /* \"#utility.yul\":13970:13979   */\n      dup3\n        /* \"#utility.yul\":13966:13984   */\n      add\n        /* \"#utility.yul\":13958:13984   */\n      swap1\n      pop\n        /* \"#utility.yul\":14030:14039   */\n      dup2\n        /* \"#utility.yul\":14024:14028   */\n      dup2\n        /* \"#utility.yul\":14020:14040   */\n      sub\n        /* \"#utility.yul\":14016:14017   */\n      0x00\n        /* \"#utility.yul\":14005:14014   */\n      dup4\n        /* \"#utility.yul\":14001:14018   */\n      add\n        /* \"#utility.yul\":13994:14041   */\n      mstore\n        /* \"#utility.yul\":14058:14189   */\n      tag_362\n        /* \"#utility.yul\":14184:14188   */\n      dup2\n        /* \"#utility.yul\":14058:14189   */\n      tag_217\n      jump\t// in\n    tag_362:\n        /* \"#utility.yul\":14050:14189   */\n      swap1\n      pop\n        /* \"#utility.yul\":13777:14196   */\n      swap2\n      swap1\n      pop\n      jump\t// out\n\n    auxdata: 0xa2646970667358221220cb707c588f8a452fe501eb593530e95a1126ff060ae26991f9102c79bbf3f30264736f6c63430008160033\n}\n",
				"bytecode": {
					"linkReferences": {},
					"object": "608060405234801562000010575f80fd5b5060405162001a5b38038062001a5b83398181016040528101906200003691906200027d565b835f806101000a81548173ffffffffffffffffffffffffffffffffffffffff021916908373ffffffffffffffffffffffffffffffffffffffff1602179055508260015f6101000a81548173ffffffffffffffffffffffffffffffffffffffff021916908373ffffffffffffffffffffffffffffffffffffffff1602179055508160025f6101000a81548173ffffffffffffffffffffffffffffffffffffffff021916908373ffffffffffffffffffffffffffffffffffffffff1602179055508060035f6101000a81548173ffffffffffffffffffffffffffffffffffffffff021916908373ffffffffffffffffffffffffffffffffffffffff16021790555050505050620002ec565b5f80fd5b5f73ffffffffffffffffffffffffffffffffffffffff82169050919050565b5f6200016e8262000143565b9050919050565b5f620001818262000162565b9050919050565b620001938162000175565b81146200019e575f80fd5b50565b5f81519050620001b18162000188565b92915050565b5f620001c38262000162565b9050919050565b620001d581620001b7565b8114620001e0575f80fd5b50565b5f81519050620001f381620001ca565b92915050565b5f620002058262000162565b9050919050565b6200021781620001f9565b811462000222575f80fd5b50565b5f8151905062000235816200020c565b92915050565b5f620002478262000162565b9050919050565b62000259816200023b565b811462000264575f80fd5b50565b5f8151905062000277816200024e565b92915050565b5f805f80608085870312156200029857620002976200013f565b5b5f620002a787828801620001a1565b9450506020620002ba87828801620001e3565b9350506040620002cd8782880162000225565b9250506060620002e08782880162000267565b91505092959194509250565b61176180620002fa5f395ff3fe608060405234801561000f575f80fd5b50600436106100f3575f3560e01c80633add60ab11610095578063b6b55f2511610064578063b6b55f251461025f578063c5ebeaec1461027b578063e0bf211714610297578063f3fdb15a146102c7576100f3565b80633add60ab146101d55780634a417a53146102055780634c19386c14610223578063630fd0ac14610241576100f3565b8063275972ca116100d1578063275972ca146101515780632e1a7d4d146101815780632f8655681461019d578063371fd8e6146101b9576100f3565b80631083f761146100f75780631ef3a04c1461011557806323be345c14610133575b5f80fd5b6100ff6102e5565b60405161010c91906110be565b60405180910390f35b61011d610308565b60405161012a91906110f7565b60405180910390f35b61013b61032d565b6040516101489190611130565b60405180910390f35b61016b60048036038101906101669190611188565b610352565b60405161017891906111cb565b60405180910390f35b61019b6004803603810190610196919061120e565b610367565b005b6101b760048036038101906101b29190611188565b6104d8565b005b6101d360048036038101906101ce919061120e565b61084d565b005b6101ef60048036038101906101ea9190611188565b6109c0565b6040516101fc91906111cb565b60405180910390f35b61020d6109d5565b60405161021a91906111cb565b60405180910390f35b61022b610a02565b60405161023891906111cb565b60405180910390f35b610249610ab2565b60405161025691906111cb565b60405180910390f35b6102796004803603810190610274919061120e565b610b50565b005b6102956004803603810190610290919061120e565b610c43565b005b6102b160048036038101906102ac919061120e565b610f7e565b6040516102be91906111cb565b60405180910390f35b6102cf61101f565b6040516102dc9190611259565b60405180910390f35b5f8054906101000a900473ffffffffffffffffffffffffffffffffffffffff1681565b60035f9054906101000a900473ffffffffffffffffffffffffffffffffffffffff1681565b60025f9054906101000a900473ffffffffffffffffffffffffffffffffffffffff1681565b6005602052805f5260405f205f915090505481565b8060055f3373ffffffffffffffffffffffffffffffffffffffff1673ffffffffffffffffffffffffffffffffffffffff1681526020019081526020015f205410156103e7576040517f08c379a00000000000000000000000000000000000000000000000000000000081526004016103de906112cc565b60405180910390fd5b8060055f3373ffffffffffffffffffffffffffffffffffffffff1673ffffffffffffffffffffffffffffffffffffffff1681526020019081526020015f205f8282546104339190611317565b925050819055505f8054906101000a900473ffffffffffffffffffffffffffffffffffffffff1673ffffffffffffffffffffffffffffffffffffffff1663a9059cbb33836040518363ffffffff1660e01b8152600401610494929190611359565b6020604051808303815f875af11580156104b0573d5f803e3d5ffd5b505050506040513d601f19601f820116820180604052508101906104d491906113b5565b5050565b60025f9054906101000a900473ffffffffffffffffffffffffffffffffffffffff1673ffffffffffffffffffffffffffffffffffffffff166357867077825f8054906101000a900473ffffffffffffffffffffffffffffffffffffffff166040518363ffffffff1660e01b81526004016105539291906113e0565b602060405180830381865afa15801561056e573d5f803e3d5ffd5b505050506040513d601f19601f8201168201806040525081019061059291906113b5565b156105d2576040517f08c379a00000000000000000000000000000000000000000000000000000000081526004016105c990611477565b60405180910390fd5b5f60045f8373ffffffffffffffffffffffffffffffffffffffff1673ffffffffffffffffffffffffffffffffffffffff1681526020019081526020015f205490505f60035f9054906101000a900473ffffffffffffffffffffffffffffffffffffffff1673ffffffffffffffffffffffffffffffffffffffff16637b7c1f4c6040518163ffffffff1660e01b8152600401602060405180830381865afa15801561067e573d5f803e3d5ffd5b505050506040513d601f19601f820116820180604052508101906106a291906114a9565b90505f612710826127106106b691906114d4565b846106c19190611507565b6106cb9190611575565b90505f8054906101000a900473ffffffffffffffffffffffffffffffffffffffff1673ffffffffffffffffffffffffffffffffffffffff1663a9059cbb33836040518363ffffffff1660e01b8152600401610727929190611359565b6020604051808303815f875af1158015610743573d5f803e3d5ffd5b505050506040513d601f19601f8201168201806040525081019061076791906113b5565b505f8054906101000a900473ffffffffffffffffffffffffffffffffffffffff1673ffffffffffffffffffffffffffffffffffffffff166323b872dd3386866040518463ffffffff1660e01b81526004016107c4939291906115a5565b6020604051808303815f875af11580156107e0573d5f803e3d5ffd5b505050506040513d601f19601f8201168201806040525081019061080491906113b5565b505f60045f8673ffffffffffffffffffffffffffffffffffffffff1673ffffffffffffffffffffffffffffffffffffffff1681526020019081526020015f208190555050505050565b8060045f3373ffffffffffffffffffffffffffffffffffffffff1673ffffffffffffffffffffffffffffffffffffffff1681526020019081526020015f205410156108cd576040517f08c379a00000000000000000000000000000000000000000000000000000000081526004016108c490611624565b60405180910390fd5b5f8054906101000a900473ffffffffffffffffffffffffffffffffffffffff1673ffffffffffffffffffffffffffffffffffffffff166323b872dd3330846040518463ffffffff1660e01b8152600401610929939291906115a5565b6020604051808303815f875af1158015610945573d5f803e3d5ffd5b505050506040513d601f19601f8201168201806040525081019061096991906113b5565b508060045f3373ffffffffffffffffffffffffffffffffffffffff1673ffffffffffffffffffffffffffffffffffffffff1681526020019081526020015f205f8282546109b69190611317565b9250508190555050565b6004602052805f5260405f205f915090505481565b5f6109de610ab2565b6127106109e9610a02565b6109f39190611507565b6109fd9190611575565b905090565b5f805f9054906101000a900473ffffffffffffffffffffffffffffffffffffffff1673ffffffffffffffffffffffffffffffffffffffff166370a08231306040518263ffffffff1660e01b8152600401610a5c9190611642565b602060405180830381865afa158015610a77573d5f803e3d5ffd5b505050506040513d601f19601f82011682018060405250810190610a9b91906114a9565b610aa3610ab2565b610aad9190611317565b905090565b5f805f9054906101000a900473ffffffffffffffffffffffffffffffffffffffff1673ffffffffffffffffffffffffffffffffffffffff166370a08231306040518263ffffffff1660e01b8152600401610b0c9190611642565b602060405180830381865afa158015610b27573d5f803e3d5ffd5b505050506040513d601f19601f82011682018060405250810190610b4b91906114a9565b905090565b5f8054906101000a900473ffffffffffffffffffffffffffffffffffffffff1673ffffffffffffffffffffffffffffffffffffffff166323b872dd3330846040518463ffffffff1660e01b8152600401610bac939291906115a5565b6020604051808303815f875af1158015610bc8573d5f803e3d5ffd5b505050506040513d601f19601f82011682018060405250810190610bec91906113b5565b508060055f3373ffffffffffffffffffffffffffffffffffffffff1673ffffffffffffffffffffffffffffffffffffffff1681526020019081526020015f205f828254610c3991906114d4565b9250508190555050565b5f60015f9054906101000a900473ffffffffffffffffffffffffffffffffffffffff1673ffffffffffffffffffffffffffffffffffffffff16639fa83b5a610c896109d5565b6040518263ffffffff1660e01b8152600401610ca591906111cb565b602060405180830381865afa158015610cc0573d5f803e3d5ffd5b505050506040513d601f19601f82011682018060405250810190610ce491906114a9565b90505f6127108284610cf69190611507565b610d009190611575565b90505f8184610d0f91906114d4565b905060025f9054906101000a900473ffffffffffffffffffffffffffffffffffffffff1673ffffffffffffffffffffffffffffffffffffffff166357867077335f8054906101000a900473ffffffffffffffffffffffffffffffffffffffff166040518363ffffffff1660e01b8152600401610d8c9291906113e0565b602060405180830381865afa158015610da7573d5f803e3d5ffd5b505050506040513d601f19601f82011682018060405250810190610dcb91906113b5565b610e0a576040517f08c379a0000000000000000000000000000000000000000000000000000000008152600401610e01906116a5565b60405180910390fd5b8060055f3073ffffffffffffffffffffffffffffffffffffffff1673ffffffffffffffffffffffffffffffffffffffff1681526020019081526020015f20541015610e8a576040517f08c379a0000000000000000000000000000000000000000000000000000000008152600401610e819061170d565b60405180910390fd5b5f8054906101000a900473ffffffffffffffffffffffffffffffffffffffff1673ffffffffffffffffffffffffffffffffffffffff1663a9059cbb33866040518363ffffffff1660e01b8152600401610ee4929190611359565b6020604051808303815f875af1158015610f00573d5f803e3d5ffd5b505050506040513d601f19601f82011682018060405250810190610f2491906113b5565b508060045f3373ffffffffffffffffffffffffffffffffffffffff1673ffffffffffffffffffffffffffffffffffffffff1681526020019081526020015f205f828254610f7191906114d4565b9250508190555050505050565b5f60015f9054906101000a900473ffffffffffffffffffffffffffffffffffffffff1673ffffffffffffffffffffffffffffffffffffffff16639fa83b5a836040518263ffffffff1660e01b8152600401610fd991906111cb565b602060405180830381865afa158015610ff4573d5f803e3d5ffd5b505050506040513d601f19601f8201168201806040525081019061101891906114a9565b9050919050565b60015f9054906101000a900473ffffffffffffffffffffffffffffffffffffffff1681565b5f73ffffffffffffffffffffffffffffffffffffffff82169050919050565b5f819050919050565b5f61108661108161107c84611044565b611063565b611044565b9050919050565b5f6110978261106c565b9050919050565b5f6110a88261108d565b9050919050565b6110b88161109e565b82525050565b5f6020820190506110d15f8301846110af565b92915050565b5f6110e18261108d565b9050919050565b6110f1816110d7565b82525050565b5f60208201905061110a5f8301846110e8565b92915050565b5f61111a8261108d565b9050919050565b61112a81611110565b82525050565b5f6020820190506111435f830184611121565b92915050565b5f80fd5b5f61115782611044565b9050919050565b6111678161114d565b8114611171575f80fd5b50565b5f813590506111828161115e565b92915050565b5f6020828403121561119d5761119c611149565b5b5f6111aa84828501611174565b91505092915050565b5f819050919050565b6111c5816111b3565b82525050565b5f6020820190506111de5f8301846111bc565b92915050565b6111ed816111b3565b81146111f7575f80fd5b50565b5f81359050611208816111e4565b92915050565b5f6020828403121561122357611222611149565b5b5f611230848285016111fa565b91505092915050565b5f6112438261108d565b9050919050565b61125381611239565b82525050565b5f60208201905061126c5f83018461124a565b92915050565b5f82825260208201905092915050565b7f496e73756666696369656e742062616c616e63650000000000000000000000005f82015250565b5f6112b6601483611272565b91506112c182611282565b602082019050919050565b5f6020820190508181035f8301526112e3816112aa565b9050919050565b7f4e487b71000000000000000000000000000000000000000000000000000000005f52601160045260245ffd5b5f611321826111b3565b915061132c836111b3565b9250828203905081811115611344576113436112ea565b5b92915050565b6113538161114d565b82525050565b5f60408201905061136c5f83018561134a565b61137960208301846111bc565b9392505050565b5f8115159050919050565b61139481611380565b811461139e575f80fd5b50565b5f815190506113af8161138b565b92915050565b5f602082840312156113ca576113c9611149565b5b5f6113d7848285016113a1565b91505092915050565b5f6040820190506113f35f83018561134a565b611400602083018461134a565b9392505050565b7f426f72726f776572206973206e6f7420756e646572636f6c6c61746572616c695f8201527f7a65640000000000000000000000000000000000000000000000000000000000602082015250565b5f611461602383611272565b915061146c82611407565b604082019050919050565b5f6020820190508181035f83015261148e81611455565b9050919050565b5f815190506114a3816111e4565b92915050565b5f602082840312156114be576114bd611149565b5b5f6114cb84828501611495565b91505092915050565b5f6114de826111b3565b91506114e9836111b3565b9250828201905080821115611501576115006112ea565b5b92915050565b5f611511826111b3565b915061151c836111b3565b925082820261152a816111b3565b91508282048414831517611541576115406112ea565b5b5092915050565b7f4e487b71000000000000000000000000000000000000000000000000000000005f52601260045260245ffd5b5f61157f826111b3565b915061158a836111b3565b92508261159a57611599611548565b5b828204905092915050565b5f6060820190506115b85f83018661134a565b6115c5602083018561134a565b6115d260408301846111bc565b949350505050565b7f416d6f756e7420657863656564732064656274000000000000000000000000005f82015250565b5f61160e601383611272565b9150611619826115da565b602082019050919050565b5f6020820190508181035f83015261163b81611602565b9050919050565b5f6020820190506116555f83018461134a565b92915050565b7f496e73756666696369656e7420636f6c6c61746572616c0000000000000000005f82015250565b5f61168f601783611272565b915061169a8261165b565b602082019050919050565b5f6020820190508181035f8301526116bc81611683565b9050919050565b7f4e6f7420656e6f756768206c69717569646974790000000000000000000000005f82015250565b5f6116f7601483611272565b9150611702826116c3565b602082019050919050565b5f6020820190508181035f830152611724816116eb565b905091905056fea2646970667358221220cb707c588f8a452fe501eb593530e95a1126ff060ae26991f9102c79bbf3f30264736f6c63430008160033",
					"opcodes": "PUSH1 0x80 PUSH1 0x40 MSTORE CALLVALUE DUP1 ISZERO PUSH3 0x10 JUMPI PUSH0 DUP1 REVERT JUMPDEST POP PUSH1 0x40 MLOAD PUSH3 0x1A5B CODESIZE SUB DUP1 PUSH3 0x1A5B DUP4 CODECOPY DUP2 DUP2 ADD PUSH1 0x40 MSTORE DUP2 ADD SWAP1 PUSH3 0x36 SWAP2 SWAP1 PUSH3 0x27D JUMP JUMPDEST DUP4 PUSH0 DUP1 PUSH2 0x100 EXP DUP2 SLOAD DUP2 PUSH20 0xFFFFFFFFFFFFFFFFFFFFFFFFFFFFFFFFFFFFFFFF MUL NOT AND SWAP1 DUP4 PUSH20 0xFFFFFFFFFFFFFFFFFFFFFFFFFFFFFFFFFFFFFFFF AND MUL OR SWAP1 SSTORE POP DUP3 PUSH1 0x1 PUSH0 PUSH2 0x100 EXP DUP2 SLOAD DUP2 PUSH20 0xFFFFFFFFFFFFFFFFFFFFFFFFFFFFFFFFFFFFFFFF MUL NOT AND SWAP1 DUP4 PUSH20 0xFFFFFFFFFFFFFFFFFFFFFFFFFFFFFFFFFFFFFFFF AND MUL OR SWAP1 SSTORE POP DUP2 PUSH1 0x2 PUSH0 PUSH2 0x100 EXP DUP2 SLOAD DUP2 PUSH20 0xFFFFFFFFFFFFFFFFFFFFFFFFFFFFFFFFFFFFFFFF MUL NOT AND SWAP1 DUP4 PUSH20 0xFFFFFFFFFFFFFFFFFFFFFFFFFFFFFFFFFFFFFFFF AND MUL OR SWAP1 SSTORE POP DUP1 PUSH1 0x3 PUSH0 PUSH2 0x100 EXP DUP2 SLOAD DUP2 PUSH20 0xFFFFFFFFFFFFFFFFFFFFFFFFFFFFFFFFFFFFFFFF MUL NOT AND SWAP1 DUP4 PUSH20 0xFFFFFFFFFFFFFFFFFFFFFFFFFFFFFFFFFFFFFFFF AND MUL OR SWAP1 SSTORE POP POP POP POP POP PUSH3 0x2EC JUMP JUMPDEST PUSH0 DUP1 REVERT JUMPDEST PUSH0 PUSH20 0xFFFFFFFFFFFFFFFFFFFFFFFFFFFFFFFFFFFFFFFF DUP3 AND SWAP1 POP SWAP2 SWAP1 POP JUMP JUMPDEST PUSH0 PUSH3 0x16E DUP3 PUSH3 0x143 JUMP JUMPDEST SWAP1 POP SWAP2 SWAP1 POP JUMP JUMPDEST PUSH0 PUSH3 0x181 DUP3 PUSH3 0x162 JUMP JUMPDEST SWAP1 POP SWAP2 SWAP1 POP JUMP JUMPDEST PUSH3 0x193 DUP2 PUSH3 0x175 JUMP JUMPDEST DUP2 EQ PUSH3 0x19E JUMPI PUSH0 DUP1 REVERT JUMPDEST POP JUMP JUMPDEST PUSH0 DUP2 MLOAD SWAP1 POP PUSH3 0x1B1 DUP2 PUSH3 0x188 JUMP JUMPDEST SWAP3 SWAP2 POP POP JUMP JUMPDEST PUSH0 PUSH3 0x1C3 DUP3 PUSH3 0x162 JUMP JUMPDEST SWAP1 POP SWAP2 SWAP1 POP JUMP JUMPDEST PUSH3 0x1D5 DUP2 PUSH3 0x1B7 JUMP JUMPDEST DUP2 EQ PUSH3 0x1E0 JUMPI PUSH0 DUP1 REVERT JUMPDEST POP JUMP JUMPDEST PUSH0 DUP2 MLOAD SWAP1 POP PUSH3 0x1F3 DUP2 PUSH3 0x1CA JUMP JUMPDEST SWAP3 SWAP2 POP POP JUMP JUMPDEST PUSH0 PUSH3 0x205 DUP3 PUSH3 0x162 JUMP JUMPDEST SWAP1 POP SWAP2 SWAP1 POP JUMP JUMPDEST PUSH3 0x217 DUP2 PUSH3 0x1F9 JUMP JUMPDEST DUP2 EQ PUSH3 0x222 JUMPI PUSH0 DUP1 REVERT JUMPDEST POP JUMP JUMPDEST PUSH0 DUP2 MLOAD SWAP1 POP PUSH3 0x235 DUP2 PUSH3 0x20C JUMP JUMPDEST SWAP3 SWAP2 POP POP JUMP JUMPDEST PUSH0 PUSH3 0x247 DUP3 PUSH3 0x162 JUMP JUMPDEST SWAP1 POP SWAP2 SWAP1 POP JUMP JUMPDEST PUSH3 0x259 DUP2 PUSH3 0x23B JUMP JUMPDEST DUP2 EQ PUSH3 0x264 JUMPI PUSH0 DUP1 REVERT JUMPDEST POP JUMP JUMPDEST PUSH0 DUP2 MLOAD SWAP1 POP PUSH3 0x277 DUP2 PUSH3 0x24E JUMP JUMPDEST SWAP3 SWAP2 POP POP JUMP JUMPDEST PUSH0 DUP1 PUSH0 DUP1 PUSH1 0x80 DUP6 DUP8 SUB SLT ISZERO PUSH3 0x298 JUMPI PUSH3 0x297 PUSH3 0x13F JUMP JUMPDEST JUMPDEST PUSH0 PUSH3 0x2A7 DUP8 DUP3 DUP9 ADD PUSH3 0x1A1 JUMP JUMPDEST SWAP5 POP POP PUSH1 0x20 PUSH3 0x2BA DUP8 DUP3 DUP9 ADD PUSH3 0x1E3 JUMP JUMPDEST SWAP4 POP POP PUSH1 0x40 PUSH3 0x2CD DUP8 DUP3 DUP9 ADD PUSH3 0x225 JUMP JUMPDEST SWAP3 POP POP PUSH1 0x60 PUSH3 0x2E0 DUP8 DUP3 DUP9 ADD PUSH3 0x267 JUMP JUMPDEST SWAP2 POP POP SWAP3 SWAP6 SWAP2 SWAP5 POP SWAP3 POP JUMP JUMPDEST PUSH2 0x1761 DUP1 PUSH3 0x2FA PUSH0 CODECOPY PUSH0 RETURN INVALID PUSH1 0x80 PUSH1 0x40 MSTORE CALLVALUE DUP1 ISZERO PUSH2 0xF JUMPI PUSH0 DUP1 REVERT JUMPDEST POP PUSH1 0x4 CALLDATASIZE LT PUSH2 0xF3 JUMPI PUSH0 CALLDATALOAD PUSH1 0xE0 SHR DUP1 PUSH4 0x3ADD60AB GT PUSH2 0x95 JUMPI DUP1 PUSH4 0xB6B55F25 GT PUSH2 0x64 JUMPI DUP1 PUSH4 0xB6B55F25 EQ PUSH2 0x25F JUMPI DUP1 PUSH4 0xC5EBEAEC EQ PUSH2 0x27B JUMPI DUP1 PUSH4 0xE0BF2117 EQ PUSH2 0x297 JUMPI DUP1 PUSH4 0xF3FDB15A EQ PUSH2 0x2C7 JUMPI PUSH2 0xF3 JUMP JUMPDEST DUP1 PUSH4 0x3ADD60AB EQ PUSH2 0x1D5 JUMPI DUP1 PUSH4 0x4A417A53 EQ PUSH2 0x205 JUMPI DUP1 PUSH4 0x4C19386C EQ PUSH2 0x223 JUMPI DUP1 PUSH4 0x630FD0AC EQ PUSH2 0x241 JUMPI PUSH2 0xF3 JUMP JUMPDEST DUP1 PUSH4 0x275972CA GT PUSH2 0xD1 JUMPI DUP1 PUSH4 0x275972CA EQ PUSH2 0x151 JUMPI DUP1 PUSH4 0x2E1A7D4D EQ PUSH2 0x181 JUMPI DUP1 PUSH4 0x2F865568 EQ PUSH2 0x19D JUMPI DUP1 PUSH4 0x371FD8E6 EQ PUSH2 0x1B9 JUMPI PUSH2 0xF3 JUMP JUMPDEST DUP1 PUSH4 0x1083F761 EQ PUSH2 0xF7 JUMPI DUP1 PUSH4 0x1EF3A04C EQ PUSH2 0x115 JUMPI DUP1 PUSH4 0x23BE345C EQ PUSH2 0x133 JUMPI JUMPDEST PUSH0 DUP1 REVERT JUMPDEST PUSH2 0xFF PUSH2 0x2E5 JUMP JUMPDEST PUSH1 0x40 MLOAD PUSH2 0x10C SWAP2 SWAP1 PUSH2 0x10BE JUMP JUMPDEST PUSH1 0x40 MLOAD DUP1 SWAP2 SUB SWAP1 RETURN JUMPDEST PUSH2 0x11D PUSH2 0x308 JUMP JUMPDEST PUSH1 0x40 MLOAD PUSH2 0x12A SWAP2 SWAP1 PUSH2 0x10F7 JUMP JUMPDEST PUSH1 0x40 MLOAD DUP1 SWAP2 SUB SWAP1 RETURN JUMPDEST PUSH2 0x13B PUSH2 0x32D JUMP JUMPDEST PUSH1 0x40 MLOAD PUSH2 0x148 SWAP2 SWAP1 PUSH2 0x1130 JUMP JUMPDEST PUSH1 0x40 MLOAD DUP1 SWAP2 SUB SWAP1 RETURN JUMPDEST PUSH2 0x16B PUSH1 0x4 DUP1 CALLDATASIZE SUB DUP2 ADD SWAP1 PUSH2 0x166 SWAP2 SWAP1 PUSH2 0x1188 JUMP JUMPDEST PUSH2 0x352 JUMP JUMPDEST PUSH1 0x40 MLOAD PUSH2 0x178 SWAP2 SWAP1 PUSH2 0x11CB JUMP JUMPDEST PUSH1 0x40 MLOAD DUP1 SWAP2 SUB SWAP1 RETURN JUMPDEST PUSH2 0x19B PUSH1 0x4 DUP1 CALLDATASIZE SUB DUP2 ADD SWAP1 PUSH2 0x196 SWAP2 SWAP1 PUSH2 0x120E JUMP JUMPDEST PUSH2 0x367 JUMP JUMPDEST STOP JUMPDEST PUSH2 0x1B7 PUSH1 0x4 DUP1 CALLDATASIZE SUB DUP2 ADD SWAP1 PUSH2 0x1B2 SWAP2 SWAP1 PUSH2 0x1188 JUMP JUMPDEST PUSH2 0x4D8 JUMP JUMPDEST STOP JUMPDEST PUSH2 0x1D3 PUSH1 0x4 DUP1 CALLDATASIZE SUB DUP2 ADD SWAP1 PUSH2 0x1CE SWAP2 SWAP1 PUSH2 0x120E JUMP JUMPDEST PUSH2 0x84D JUMP JUMPDEST STOP JUMPDEST PUSH2 0x1EF PUSH1 0x4 DUP1 CALLDATASIZE SUB DUP2 ADD SWAP1 PUSH2 0x1EA SWAP2 SWAP1 PUSH2 0x1188 JUMP JUMPDEST PUSH2 0x9C0 JUMP JUMPDEST PUSH1 0x40 MLOAD PUSH2 0x1FC SWAP2 SWAP1 PUSH2 0x11CB JUMP JUMPDEST PUSH1 0x40 MLOAD DUP1 SWAP2 SUB SWAP1 RETURN JUMPDEST PUSH2 0x20D PUSH2 0x9D5 JUMP JUMPDEST PUSH1 0x40 MLOAD PUSH2 0x21A SWAP2 SWAP1 PUSH2 0x11CB JUMP JUMPDEST PUSH1 0x40 MLOAD DUP1 SWAP2 SUB SWAP1 RETURN JUMPDEST PUSH2 0x22B PUSH2 0xA02 JUMP JUMPDEST PUSH1 0x40 MLOAD PUSH2 0x238 SWAP2 SWAP1 PUSH2 0x11CB JUMP JUMPDEST PUSH1 0x40 MLOAD DUP1 SWAP2 SUB SWAP1 RETURN JUMPDEST PUSH2 0x249 PUSH2 0xAB2 JUMP JUMPDEST PUSH1 0x40 MLOAD PUSH2 0x256 SWAP2 SWAP1 PUSH2 0x11CB JUMP JUMPDEST PUSH1 0x40 MLOAD DUP1 SWAP2 SUB SWAP1 RETURN JUMPDEST PUSH2 0x279 PUSH1 0x4 DUP1 CALLDATASIZE SUB DUP2 ADD SWAP1 PUSH2 0x274 SWAP2 SWAP1 PUSH2 0x120E JUMP JUMPDEST PUSH2 0xB50 JUMP JUMPDEST STOP JUMPDEST PUSH2 0x295 PUSH1 0x4 DUP1 CALLDATASIZE SUB DUP2 ADD SWAP1 PUSH2 0x290 SWAP2 SWAP1 PUSH2 0x120E JUMP JUMPDEST PUSH2 0xC43 JUMP JUMPDEST STOP JUMPDEST PUSH2 0x2B1 PUSH1 0x4 DUP1 CALLDATASIZE SUB DUP2 ADD SWAP1 PUSH2 0x2AC SWAP2 SWAP1 PUSH2 0x120E JUMP JUMPDEST PUSH2 0xF7E JUMP JUMPDEST PUSH1 0x40 MLOAD PUSH2 0x2BE SWAP2 SWAP1 PUSH2 0x11CB JUMP JUMPDEST PUSH1 0x40 MLOAD DUP1 SWAP2 SUB SWAP1 RETURN JUMPDEST PUSH2 0x2CF PUSH2 0x101F JUMP JUMPDEST PUSH1 0x40 MLOAD PUSH2 0x2DC SWAP2 SWAP1 PUSH2 0x1259 JUMP JUMPDEST PUSH1 0x40 MLOAD DUP1 SWAP2 SUB SWAP1 RETURN JUMPDEST PUSH0 DUP1 SLOAD SWAP1 PUSH2 0x100 EXP SWAP1 DIV PUSH20 0xFFFFFFFFFFFFFFFFFFFFFFFFFFFFFFFFFFFFFFFF AND DUP2 JUMP JUMPDEST PUSH1 0x3 PUSH0 SWAP1 SLOAD SWAP1 PUSH2 0x100 EXP SWAP1 DIV PUSH20 0xFFFFFFFFFFFFFFFFFFFFFFFFFFFFFFFFFFFFFFFF AND DUP2 JUMP JUMPDEST PUSH1 0x2 PUSH0 SWAP1 SLOAD SWAP1 PUSH2 0x100 EXP SWAP1 DIV PUSH20 0xFFFFFFFFFFFFFFFFFFFFFFFFFFFFFFFFFFFFFFFF AND DUP2 JUMP JUMPDEST PUSH1 0x5 PUSH1 0x20 MSTORE DUP1 PUSH0 MSTORE PUSH1 0x40 PUSH0 KECCAK256 PUSH0 SWAP2 POP SWAP1 POP SLOAD DUP2 JUMP JUMPDEST DUP1 PUSH1 0x5 PUSH0 CALLER PUSH20 0xFFFFFFFFFFFFFFFFFFFFFFFFFFFFFFFFFFFFFFFF AND PUSH20 0xFFFFFFFFFFFFFFFFFFFFFFFFFFFFFFFFFFFFFFFF AND DUP2 MSTORE PUSH1 0x20 ADD SWAP1 DUP2 MSTORE PUSH1 0x20 ADD PUSH0 KECCAK256 SLOAD LT ISZERO PUSH2 0x3E7 JUMPI PUSH1 0x40 MLOAD PUSH32 0x8C379A000000000000000000000000000000000000000000000000000000000 DUP2 MSTORE PUSH1 0x4 ADD PUSH2 0x3DE SWAP1 PUSH2 0x12CC JUMP JUMPDEST PUSH1 0x40 MLOAD DUP1 SWAP2 SUB SWAP1 REVERT JUMPDEST DUP1 PUSH1 0x5 PUSH0 CALLER PUSH20 0xFFFFFFFFFFFFFFFFFFFFFFFFFFFFFFFFFFFFFFFF AND PUSH20 0xFFFFFFFFFFFFFFFFFFFFFFFFFFFFFFFFFFFFFFFF AND DUP2 MSTORE PUSH1 0x20 ADD SWAP1 DUP2 MSTORE PUSH1 0x20 ADD PUSH0 KECCAK256 PUSH0 DUP3 DUP3 SLOAD PUSH2 0x433 SWAP2 SWAP1 PUSH2 0x1317 JUMP JUMPDEST SWAP3 POP POP DUP2 SWAP1 SSTORE POP PUSH0 DUP1 SLOAD SWAP1 PUSH2 0x100 EXP SWAP1 DIV PUSH20 0xFFFFFFFFFFFFFFFFFFFFFFFFFFFFFFFFFFFFFFFF AND PUSH20 0xFFFFFFFFFFFFFFFFFFFFFFFFFFFFFFFFFFFFFFFF AND PUSH4 0xA9059CBB CALLER DUP4 PUSH1 0x40 MLOAD DUP4 PUSH4 0xFFFFFFFF AND PUSH1 0xE0 SHL DUP2 MSTORE PUSH1 0x4 ADD PUSH2 0x494 SWAP3 SWAP2 SWAP1 PUSH2 0x1359 JUMP JUMPDEST PUSH1 0x20 PUSH1 0x40 MLOAD DUP1 DUP4 SUB DUP2 PUSH0 DUP8 GAS CALL ISZERO DUP1 ISZERO PUSH2 0x4B0 JUMPI RETURNDATASIZE PUSH0 DUP1 RETURNDATACOPY RETURNDATASIZE PUSH0 REVERT JUMPDEST POP POP POP POP PUSH1 0x40 MLOAD RETURNDATASIZE PUSH1 0x1F NOT PUSH1 0x1F DUP3 ADD AND DUP3 ADD DUP1 PUSH1 0x40 MSTORE POP DUP2 ADD SWAP1 PUSH2 0x4D4 SWAP2 SWAP1 PUSH2 0x13B5 JUMP JUMPDEST POP POP JUMP JUMPDEST PUSH1 0x2 PUSH0 SWAP1 SLOAD SWAP1 PUSH2 0x100 EXP SWAP1 DIV PUSH20 0xFFFFFFFFFFFFFFFFFFFFFFFFFFFFFFFFFFFFFFFF AND PUSH20 0xFFFFFFFFFFFFFFFFFFFFFFFFFFFFFFFFFFFFFFFF AND PUSH4 0x57867077 DUP3 PUSH0 DUP1 SLOAD SWAP1 PUSH2 0x100 EXP SWAP1 DIV PUSH20 0xFFFFFFFFFFFFFFFFFFFFFFFFFFFFFFFFFFFFFFFF AND PUSH1 0x40 MLOAD DUP4 PUSH4 0xFFFFFFFF AND PUSH1 0xE0 SHL DUP2 MSTORE PUSH1 0x4 ADD PUSH2 0x553 SWAP3 SWAP2 SWAP1 PUSH2 0x13E0 JUMP JUMPDEST PUSH1 0x20 PUSH1 0x40 MLOAD DUP1 DUP4 SUB DUP2 DUP7 GAS STATICCALL ISZERO DUP1 ISZERO PUSH2 0x56E JUMPI RETURNDATASIZE PUSH0 DUP1 RETURNDATACOPY RETURNDATASIZE PUSH0 REVERT JUMPDEST POP POP POP POP PUSH1 0x40 MLOAD RETURNDATASIZE PUSH1 0x1F NOT PUSH1 0x1F DUP3 ADD AND DUP3 ADD DUP1 PUSH1 0x40 MSTORE POP DUP2 ADD SWAP1 PUSH2 0x592 SWAP2 SWAP1 PUSH2 0x13B5 JUMP JUMPDEST ISZERO PUSH2 0x5D2 JUMPI PUSH1 0x40 MLOAD PUSH32 0x8C379A000000000000000000000000000000000000000000000000000000000 DUP2 MSTORE PUSH1 0x4 ADD PUSH2 0x5C9 SWAP1 PUSH2 0x1477 JUMP JUMPDEST PUSH1 0x40 MLOAD DUP1 SWAP2 SUB SWAP1 REVERT JUMPDEST PUSH0 PUSH1 0x4 PUSH0 DUP4 PUSH20 0xFFFFFFFFFFFFFFFFFFFFFFFFFFFFFFFFFFFFFFFF AND PUSH20 0xFFFFFFFFFFFFFFFFFFFFFFFFFFFFFFFFFFFFFFFF AND DUP2 MSTORE PUSH1 0x20 ADD SWAP1 DUP2 MSTORE PUSH1 0x20 ADD PUSH0 KECCAK256 SLOAD SWAP1 POP PUSH0 PUSH1 0x3 PUSH0 SWAP1 SLOAD SWAP1 PUSH2 0x100 EXP SWAP1 DIV PUSH20 0xFFFFFFFFFFFFFFFFFFFFFFFFFFFFFFFFFFFFFFFF AND PUSH20 0xFFFFFFFFFFFFFFFFFFFFFFFFFFFFFFFFFFFFFFFF AND PUSH4 0x7B7C1F4C PUSH1 0x40 MLOAD DUP2 PUSH4 0xFFFFFFFF AND PUSH1 0xE0 SHL DUP2 MSTORE PUSH1 0x4 ADD PUSH1 0x20 PUSH1 0x40 MLOAD DUP1 DUP4 SUB DUP2 DUP7 GAS STATICCALL ISZERO DUP1 ISZERO PUSH2 0x67E JUMPI RETURNDATASIZE PUSH0 DUP1 RETURNDATACOPY RETURNDATASIZE PUSH0 REVERT JUMPDEST POP POP POP POP PUSH1 0x40 MLOAD RETURNDATASIZE PUSH1 0x1F NOT PUSH1 0x1F DUP3 ADD AND DUP3 ADD DUP1 PUSH1 0x40 MSTORE POP DUP2 ADD SWAP1 PUSH2 0x6A2 SWAP2 SWAP1 PUSH2 0x14A9 JUMP JUMPDEST SWAP1 POP PUSH0 PUSH2 0x2710 DUP3 PUSH2 0x2710 PUSH2 0x6B6 SWAP2 SWAP1 PUSH2 0x14D4 JUMP JUMPDEST DUP5 PUSH2 0x6C1 SWAP2 SWAP1 PUSH2 0x1507 JUMP JUMPDEST PUSH2 0x6CB SWAP2 SWAP1 PUSH2 0x1575 JUMP JUMPDEST SWAP1 POP PUSH0 DUP1 SLOAD SWAP1 PUSH2 0x100 EXP SWAP1 DIV PUSH20 0xFFFFFFFFFFFFFFFFFFFFFFFFFFFFFFFFFFFFFFFF AND PUSH20 0xFFFFFFFFFFFFFFFFFFFFFFFFFFFFFFFFFFFFFFFF AND PUSH4 0xA9059CBB CALLER DUP4 PUSH1 0x40 MLOAD DUP4 PUSH4 0xFFFFFFFF AND PUSH1 0xE0 SHL DUP2 MSTORE PUSH1 0x4 ADD PUSH2 0x727 SWAP3 SWAP2 SWAP1 PUSH2 0x1359 JUMP JUMPDEST PUSH1 0x20 PUSH1 0x40 MLOAD DUP1 DUP4 SUB DUP2 PUSH0 DUP8 GAS CALL ISZERO DUP1 ISZERO PUSH2 0x743 JUMPI RETURNDATASIZE PUSH0 DUP1 RETURNDATACOPY RETURNDATASIZE PUSH0 REVERT JUMPDEST POP POP POP POP PUSH1 0x40 MLOAD RETURNDATASIZE PUSH1 0x1F NOT PUSH1 0x1F DUP3 ADD AND DUP3 ADD DUP1 PUSH1 0x40 MSTORE POP DUP2 ADD SWAP1 PUSH2 0x767 SWAP2 SWAP1 PUSH2 0x13B5 JUMP JUMPDEST POP PUSH0 DUP1 SLOAD SWAP1 PUSH2 0x100 EXP SWAP1 DIV PUSH20 0xFFFFFFFFFFFFFFFFFFFFFFFFFFFFFFFFFFFFFFFF AND PUSH20 0xFFFFFFFFFFFFFFFFFFFFFFFFFFFFFFFFFFFFFFFF AND PUSH4 0x23B872DD CALLER DUP7 DUP7 PUSH1 0x40 MLOAD DUP5 PUSH4 0xFFFFFFFF AND PUSH1 0xE0 SHL DUP2 MSTORE PUSH1 0x4 ADD PUSH2 0x7C4 SWAP4 SWAP3 SWAP2 SWAP1 PUSH2 0x15A5 JUMP JUMPDEST PUSH1 0x20 PUSH1 0x40 MLOAD DUP1 DUP4 SUB DUP2 PUSH0 DUP8 GAS CALL ISZERO DUP1 ISZERO PUSH2 0x7E0 JUMPI RETURNDATASIZE PUSH0 DUP1 RETURNDATACOPY RETURNDATASIZE PUSH0 REVERT JUMPDEST POP POP POP POP PUSH1 0x40 MLOAD RETURNDATASIZE PUSH1 0x1F NOT PUSH1 0x1F DUP3 ADD AND DUP3 ADD DUP1 PUSH1 0x40 MSTORE POP DUP2 ADD SWAP1 PUSH2 0x804 SWAP2 SWAP1 PUSH2 0x13B5 JUMP JUMPDEST POP PUSH0 PUSH1 0x4 PUSH0 DUP7 PUSH20 0xFFFFFFFFFFFFFFFFFFFFFFFFFFFFFFFFFFFFFFFF AND PUSH20 0xFFFFFFFFFFFFFFFFFFFFFFFFFFFFFFFFFFFFFFFF AND DUP2 MSTORE PUSH1 0x20 ADD SWAP1 DUP2 MSTORE PUSH1 0x20 ADD PUSH0 KECCAK256 DUP2 SWAP1 SSTORE POP POP POP POP POP JUMP JUMPDEST DUP1 PUSH1 0x4 PUSH0 CALLER PUSH20 0xFFFFFFFFFFFFFFFFFFFFFFFFFFFFFFFFFFFFFFFF AND PUSH20 0xFFFFFFFFFFFFFFFFFFFFFFFFFFFFFFFFFFFFFFFF AND DUP2 MSTORE PUSH1 0x20 ADD SWAP1 DUP2 MSTORE PUSH1 0x20 ADD PUSH0 KECCAK256 SLOAD LT ISZERO PUSH2 0x8CD JUMPI PUSH1 0x40 MLOAD PUSH32 0x8C379A000000000000000000000000000000000000000000000000000000000 DUP2 MSTORE PUSH1 0x4 ADD PUSH2 0x8C4 SWAP1 PUSH2 0x1624 JUMP JUMPDEST PUSH1 0x40 MLOAD DUP1 SWAP2 SUB SWAP1 REVERT JUMPDEST PUSH0 DUP1 SLOAD SWAP1 PUSH2 0x100 EXP SWAP1 DIV PUSH20 0xFFFFFFFFFFFFFFFFFFFFFFFFFFFFFFFFFFFFFFFF AND PUSH20 0xFFFFFFFFFFFFFFFFFFFFFFFFFFFFFFFFFFFFFFFF AND PUSH4 0x23B872DD CALLER ADDRESS DUP5 PUSH1 0x40 MLOAD DUP5 PUSH4 0xFFFFFFFF AND PUSH1 0xE0 SHL DUP2 MSTORE PUSH1 0x4 ADD PUSH2 0x929 SWAP4 SWAP3 SWAP2 SWAP1 PUSH2 0x15A5 JUMP JUMPDEST PUSH1 0x20 PUSH1 0x40 MLOAD DUP1 DUP4 SUB DUP2 PUSH0 DUP8 GAS CALL ISZERO DUP1 ISZERO PUSH2 0x945 JUMPI RETURNDATASIZE PUSH0 DUP1 RETURNDATACOPY RETURNDATASIZE PUSH0 REVERT JUMPDEST POP POP POP POP PUSH1 0x40 MLOAD RETURNDATASIZE PUSH1 0x1F NOT PUSH1 0x1F DUP3 ADD AND DUP3 ADD DUP1 PUSH1 0x40 MSTORE POP DUP2 ADD SWAP1 PUSH2 0x969 SWAP2 SWAP1 PUSH2 0x13B5 JUMP JUMPDEST POP DUP1 PUSH1 0x4 PUSH0 CALLER PUSH20 0xFFFFFFFFFFFFFFFFFFFFFFFFFFFFFFFFFFFFFFFF AND PUSH20 0xFFFFFFFFFFFFFFFFFFFFFFFFFFFFFFFFFFFFFFFF AND DUP2 MSTORE PUSH1 0x20 ADD SWAP1 DUP2 MSTORE PUSH1 0x20 ADD PUSH0 KECCAK256 PUSH0 DUP3 DUP3 SLOAD PUSH2 0x9B6 SWAP2 SWAP1 PUSH2 0x1317 JUMP JUMPDEST SWAP3 POP POP DUP2 SWAP1 SSTORE POP POP JUMP JUMPDEST PUSH1 0x4 PUSH1 0x20 MSTORE DUP1 PUSH0 MSTORE PUSH1 0x40 PUSH0 KECCAK256 PUSH0 SWAP2 POP SWAP1 POP SLOAD DUP2 JUMP JUMPDEST PUSH0 PUSH2 0x9DE PUSH2 0xAB2 JUMP JUMPDEST PUSH2 0x2710 PUSH2 0x9E9 PUSH2 0xA02 JUMP JUMPDEST PUSH2 0x9F3 SWAP2 SWAP1 PUSH2 0x1507 JUMP JUMPDEST PUSH2 0x9FD SWAP2 SWAP1 PUSH2 0x1575 JUMP JUMPDEST SWAP1 POP SWAP1 JUMP JUMPDEST PUSH0 DUP1 PUSH0 SWAP1 SLOAD SWAP1 PUSH2 0x100 EXP SWAP1 DIV PUSH20 0xFFFFFFFFFFFFFFFFFFFFFFFFFFFFFFFFFFFFFFFF AND PUSH20 0xFFFFFFFFFFFFFFFFFFFFFFFFFFFFFFFFFFFFFFFF AND PUSH4 0x70A08231 ADDRESS PUSH1 0x40 MLOAD DUP3 PUSH4 0xFFFFFFFF AND PUSH1 0xE0 SHL DUP2 MSTORE PUSH1 0x4 ADD PUSH2 0xA5C SWAP2 SWAP1 PUSH2 0x1642 JUMP JUMPDEST PUSH1 0x20 PUSH1 0x40 MLOAD DUP1 DUP4 SUB DUP2 DUP7 GAS STATICCALL ISZERO DUP1 ISZERO PUSH2 0xA77 JUMPI RETURNDATASIZE PUSH0 DUP1 RETURNDATACOPY RETURNDATASIZE PUSH0 REVERT JUMPDEST POP POP POP POP PUSH1 0x40 MLOAD RETURNDATASIZE PUSH1 0x1F NOT PUSH1 0x1F DUP3 ADD AND DUP3 ADD DUP1 PUSH1 0x40 MSTORE POP DUP2 ADD SWAP1 PUSH2 0xA9B SWAP2 SWAP1 PUSH2 0x14A9 JUMP JUMPDEST PUSH2 0xAA3 PUSH2 0xAB2 JUMP JUMPDEST PUSH2 0xAAD SWAP2 SWAP1 PUSH2 0x1317 JUMP JUMPDEST SWAP1 POP SWAP1 JUMP JUMPDEST PUSH0 DUP1 PUSH0 SWAP1 SLOAD SWAP1 PUSH2 0x100 EXP SWAP1 DIV PUSH20 0xFFFFFFFFFFFFFFFFFFFFFFFFFFFFFFFFFFFFFFFF AND PUSH20 0xFFFFFFFFFFFFFFFFFFFFFFFFFFFFFFFFFFFFFFFF AND PUSH4 0x70A08231 ADDRESS PUSH1 0x40 MLOAD DUP3 PUSH4 0xFFFFFFFF AND PUSH1 0xE0 SHL DUP2 MSTORE PUSH1 0x4 ADD PUSH2 0xB0C SWAP2 SWAP1 PUSH2 0x1642 JUMP JUMPDEST PUSH1 0x20 PUSH1 0x40 MLOAD DUP1 DUP4 SUB DUP2 DUP7 GAS STATICCALL ISZERO DUP1 ISZERO PUSH2 0xB27 JUMPI RETURNDATASIZE PUSH0 DUP1 RETURNDATACOPY RETURNDATASIZE PUSH0 REVERT JUMPDEST POP POP POP POP PUSH1 0x40 MLOAD RETURNDATASIZE PUSH1 0x1F NOT PUSH1 0x1F DUP3 ADD AND DUP3 ADD DUP1 PUSH1 0x40 MSTORE POP DUP2 ADD SWAP1 PUSH2 0xB4B SWAP2 SWAP1 PUSH2 0x14A9 JUMP JUMPDEST SWAP1 POP SWAP1 JUMP JUMPDEST PUSH0 DUP1 SLOAD SWAP1 PUSH2 0x100 EXP SWAP1 DIV PUSH20 0xFFFFFFFFFFFFFFFFFFFFFFFFFFFFFFFFFFFFFFFF AND PUSH20 0xFFFFFFFFFFFFFFFFFFFFFFFFFFFFFFFFFFFFFFFF AND PUSH4 0x23B872DD CALLER ADDRESS DUP5 PUSH1 0x40 MLOAD DUP5 PUSH4 0xFFFFFFFF AND PUSH1 0xE0 SHL DUP2 MSTORE PUSH1 0x4 ADD PUSH2 0xBAC SWAP4 SWAP3 SWAP2 SWAP1 PUSH2 0x15A5 JUMP JUMPDEST PUSH1 0x20 PUSH1 0x40 MLOAD DUP1 DUP4 SUB DUP2 PUSH0 DUP8 GAS CALL ISZERO DUP1 ISZERO PUSH2 0xBC8 JUMPI RETURNDATASIZE PUSH0 DUP1 RETURNDATACOPY RETURNDATASIZE PUSH0 REVERT JUMPDEST POP POP POP POP PUSH1 0x40 MLOAD RETURNDATASIZE PUSH1 0x1F NOT PUSH1 0x1F DUP3 ADD AND DUP3 ADD DUP1 PUSH1 0x40 MSTORE POP DUP2 ADD SWAP1 PUSH2 0xBEC SWAP2 SWAP1 PUSH2 0x13B5 JUMP JUMPDEST POP DUP1 PUSH1 0x5 PUSH0 CALLER PUSH20 0xFFFFFFFFFFFFFFFFFFFFFFFFFFFFFFFFFFFFFFFF AND PUSH20 0xFFFFFFFFFFFFFFFFFFFFFFFFFFFFFFFFFFFFFFFF AND DUP2 MSTORE PUSH1 0x20 ADD SWAP1 DUP2 MSTORE PUSH1 0x20 ADD PUSH0 KECCAK256 PUSH0 DUP3 DUP3 SLOAD PUSH2 0xC39 SWAP2 SWAP1 PUSH2 0x14D4 JUMP JUMPDEST SWAP3 POP POP DUP2 SWAP1 SSTORE POP POP JUMP JUMPDEST PUSH0 PUSH1 0x1 PUSH0 SWAP1 SLOAD SWAP1 PUSH2 0x100 EXP SWAP1 DIV PUSH20 0xFFFFFFFFFFFFFFFFFFFFFFFFFFFFFFFFFFFFFFFF AND PUSH20 0xFFFFFFFFFFFFFFFFFFFFFFFFFFFFFFFFFFFFFFFF AND PUSH4 0x9FA83B5A PUSH2 0xC89 PUSH2 0x9D5 JUMP JUMPDEST PUSH1 0x40 MLOAD DUP3 PUSH4 0xFFFFFFFF AND PUSH1 0xE0 SHL DUP2 MSTORE PUSH1 0x4 ADD PUSH2 0xCA5 SWAP2 SWAP1 PUSH2 0x11CB JUMP JUMPDEST PUSH1 0x20 PUSH1 0x40 MLOAD DUP1 DUP4 SUB DUP2 DUP7 GAS STATICCALL ISZERO DUP1 ISZERO PUSH2 0xCC0 JUMPI RETURNDATASIZE PUSH0 DUP1 RETURNDATACOPY RETURNDATASIZE PUSH0 REVERT JUMPDEST POP POP POP POP PUSH1 0x40 MLOAD RETURNDATASIZE PUSH1 0x1F NOT PUSH1 0x1F DUP3 ADD AND DUP3 ADD DUP1 PUSH1 0x40 MSTORE POP DUP2 ADD SWAP1 PUSH2 0xCE4 SWAP2 SWAP1 PUSH2 0x14A9 JUMP JUMPDEST SWAP1 POP PUSH0 PUSH2 0x2710 DUP3 DUP5 PUSH2 0xCF6 SWAP2 SWAP1 PUSH2 0x1507 JUMP JUMPDEST PUSH2 0xD00 SWAP2 SWAP1 PUSH2 0x1575 JUMP JUMPDEST SWAP1 POP PUSH0 DUP2 DUP5 PUSH2 0xD0F SWAP2 SWAP1 PUSH2 0x14D4 JUMP JUMPDEST SWAP1 POP PUSH1 0x2 PUSH0 SWAP1 SLOAD SWAP1 PUSH2 0x100 EXP SWAP1 DIV PUSH20 0xFFFFFFFFFFFFFFFFFFFFFFFFFFFFFFFFFFFFFFFF AND PUSH20 0xFFFFFFFFFFFFFFFFFFFFFFFFFFFFFFFFFFFFFFFF AND PUSH4 0x57867077 CALLER PUSH0 DUP1 SLOAD SWAP1 PUSH2 0x100 EXP SWAP1 DIV PUSH20 0xFFFFFFFFFFFFFFFFFFFFFFFFFFFFFFFFFFFFFFFF AND PUSH1 0x40 MLOAD DUP4 PUSH4 0xFFFFFFFF AND PUSH1 0xE0 SHL DUP2 MSTORE PUSH1 0x4 ADD PUSH2 0xD8C SWAP3 SWAP2 SWAP1 PUSH2 0x13E0 JUMP JUMPDEST PUSH1 0x20 PUSH1 0x40 MLOAD DUP1 DUP4 SUB DUP2 DUP7 GAS STATICCALL ISZERO DUP1 ISZERO PUSH2 0xDA7 JUMPI RETURNDATASIZE PUSH0 DUP1 RETURNDATACOPY RETURNDATASIZE PUSH0 REVERT JUMPDEST POP POP POP POP PUSH1 0x40 MLOAD RETURNDATASIZE PUSH1 0x1F NOT PUSH1 0x1F DUP3 ADD AND DUP3 ADD DUP1 PUSH1 0x40 MSTORE POP DUP2 ADD SWAP1 PUSH2 0xDCB SWAP2 SWAP1 PUSH2 0x13B5 JUMP JUMPDEST PUSH2 0xE0A JUMPI PUSH1 0x40 MLOAD PUSH32 0x8C379A000000000000000000000000000000000000000000000000000000000 DUP2 MSTORE PUSH1 0x4 ADD PUSH2 0xE01 SWAP1 PUSH2 0x16A5 JUMP JUMPDEST PUSH1 0x40 MLOAD DUP1 SWAP2 SUB SWAP1 REVERT JUMPDEST DUP1 PUSH1 0x5 PUSH0 ADDRESS PUSH20 0xFFFFFFFFFFFFFFFFFFFFFFFFFFFFFFFFFFFFFFFF AND PUSH20 0xFFFFFFFFFFFFFFFFFFFFFFFFFFFFFFFFFFFFFFFF AND DUP2 MSTORE PUSH1 0x20 ADD SWAP1 DUP2 MSTORE PUSH1 0x20 ADD PUSH0 KECCAK256 SLOAD LT ISZERO PUSH2 0xE8A JUMPI PUSH1 0x40 MLOAD PUSH32 0x8C379A000000000000000000000000000000000000000000000000000000000 DUP2 MSTORE PUSH1 0x4 ADD PUSH2 0xE81 SWAP1 PUSH2 0x170D JUMP JUMPDEST PUSH1 0x40 MLOAD DUP1 SWAP2 SUB SWAP1 REVERT JUMPDEST PUSH0 DUP1 SLOAD SWAP1 PUSH2 0x100 EXP SWAP1 DIV PUSH20 0xFFFFFFFFFFFFFFFFFFFFFFFFFFFFFFFFFFFFFFFF AND PUSH20 0xFFFFFFFFFFFFFFFFFFFFFFFFFFFFFFFFFFFFFFFF AND PUSH4 0xA9059CBB CALLER DUP7 PUSH1 0x40 MLOAD DUP4 PUSH4 0xFFFFFFFF AND PUSH1 0xE0 SHL DUP2 MSTORE PUSH1 0x4 ADD PUSH2 0xEE4 SWAP3 SWAP2 SWAP1 PUSH2 0x1359 JUMP JUMPDEST PUSH1 0x20 PUSH1 0x40 MLOAD DUP1 DUP4 SUB DUP2 PUSH0 DUP8 GAS CALL ISZERO DUP1 ISZERO PUSH2 0xF00 JUMPI RETURNDATASIZE PUSH0 DUP1 RETURNDATACOPY RETURNDATASIZE PUSH0 REVERT JUMPDEST POP POP POP POP PUSH1 0x40 MLOAD RETURNDATASIZE PUSH1 0x1F NOT PUSH1 0x1F DUP3 ADD AND DUP3 ADD DUP1 PUSH1 0x40 MSTORE POP DUP2 ADD SWAP1 PUSH2 0xF24 SWAP2 SWAP1 PUSH2 0x13B5 JUMP JUMPDEST POP DUP1 PUSH1 0x4 PUSH0 CALLER PUSH20 0xFFFFFFFFFFFFFFFFFFFFFFFFFFFFFFFFFFFFFFFF AND PUSH20 0xFFFFFFFFFFFFFFFFFFFFFFFFFFFFFFFFFFFFFFFF AND DUP2 MSTORE PUSH1 0x20 ADD SWAP1 DUP2 MSTORE PUSH1 0x20 ADD PUSH0 KECCAK256 PUSH0 DUP3 DUP3 SLOAD PUSH2 0xF71 SWAP2 SWAP1 PUSH2 0x14D4 JUMP JUMPDEST SWAP3 POP POP DUP2 SWAP1 SSTORE POP POP POP POP POP JUMP JUMPDEST PUSH0 PUSH1 0x1 PUSH0 SWAP1 SLOAD SWAP1 PUSH2 0x100 EXP SWAP1 DIV PUSH20 0xFFFFFFFFFFFFFFFFFFFFFFFFFFFFFFFFFFFFFFFF AND PUSH20 0xFFFFFFFFFFFFFFFFFFFFFFFFFFFFFFFFFFFFFFFF AND PUSH4 0x9FA83B5A DUP4 PUSH1 0x40 MLOAD DUP3 PUSH4 0xFFFFFFFF AND PUSH1 0xE0 SHL DUP2 MSTORE PUSH1 0x4 ADD PUSH2 0xFD9 SWAP2 SWAP1 PUSH2 0x11CB JUMP JUMPDEST PUSH1 0x20 PUSH1 0x40 MLOAD DUP1 DUP4 SUB DUP2 DUP7 GAS STATICCALL ISZERO DUP1 ISZERO PUSH2 0xFF4 JUMPI RETURNDATASIZE PUSH0 DUP1 RETURNDATACOPY RETURNDATASIZE PUSH0 REVERT JUMPDEST POP POP POP POP PUSH1 0x40 MLOAD RETURNDATASIZE PUSH1 0x1F NOT PUSH1 0x1F DUP3 ADD AND DUP3 ADD DUP1 PUSH1 0x40 MSTORE POP DUP2 ADD SWAP1 PUSH2 0x1018 SWAP2 SWAP1 PUSH2 0x14A9 JUMP JUMPDEST SWAP1 POP SWAP2 SWAP1 POP JUMP JUMPDEST PUSH1 0x1 PUSH0 SWAP1 SLOAD SWAP1 PUSH2 0x100 EXP SWAP1 DIV PUSH20 0xFFFFFFFFFFFFFFFFFFFFFFFFFFFFFFFFFFFFFFFF AND DUP2 JUMP JUMPDEST PUSH0 PUSH20 0xFFFFFFFFFFFFFFFFFFFFFFFFFFFFFFFFFFFFFFFF DUP3 AND SWAP1 POP SWAP2 SWAP1 POP JUMP JUMPDEST PUSH0 DUP2 SWAP1 POP SWAP2 SWAP1 POP JUMP JUMPDEST PUSH0 PUSH2 0x1086 PUSH2 0x1081 PUSH2 0x107C DUP5 PUSH2 0x1044 JUMP JUMPDEST PUSH2 0x1063 JUMP JUMPDEST PUSH2 0x1044 JUMP JUMPDEST SWAP1 POP SWAP2 SWAP1 POP JUMP JUMPDEST PUSH0 PUSH2 0x1097 DUP3 PUSH2 0x106C JUMP JUMPDEST SWAP1 POP SWAP2 SWAP1 POP JUMP JUMPDEST PUSH0 PUSH2 0x10A8 DUP3 PUSH2 0x108D JUMP JUMPDEST SWAP1 POP SWAP2 SWAP1 POP JUMP JUMPDEST PUSH2 0x10B8 DUP2 PUSH2 0x109E JUMP JUMPDEST DUP3 MSTORE POP POP JUMP JUMPDEST PUSH0 PUSH1 0x20 DUP3 ADD SWAP1 POP PUSH2 0x10D1 PUSH0 DUP4 ADD DUP5 PUSH2 0x10AF JUMP JUMPDEST SWAP3 SWAP2 POP POP JUMP JUMPDEST PUSH0 PUSH2 0x10E1 DUP3 PUSH2 0x108D JUMP JUMPDEST SWAP1 POP SWAP2 SWAP1 POP JUMP JUMPDEST PUSH2 0x10F1 DUP2 PUSH2 0x10D7 JUMP JUMPDEST DUP3 MSTORE POP POP JUMP JUMPDEST PUSH0 PUSH1 0x20 DUP3 ADD SWAP1 POP PUSH2 0x110A PUSH0 DUP4 ADD DUP5 PUSH2 0x10E8 JUMP JUMPDEST SWAP3 SWAP2 POP POP JUMP JUMPDEST PUSH0 PUSH2 0x111A DUP3 PUSH2 0x108D JUMP JUMPDEST SWAP1 POP SWAP2 SWAP1 POP JUMP JUMPDEST PUSH2 0x112A DUP2 PUSH2 0x1110 JUMP JUMPDEST DUP3 MSTORE POP POP JUMP JUMPDEST PUSH0 PUSH1 0x20 DUP3 ADD SWAP1 POP PUSH2 0x1143 PUSH0 DUP4 ADD DUP5 PUSH2 0x1121 JUMP JUMPDEST SWAP3 SWAP2 POP POP JUMP JUMPDEST PUSH0 DUP1 REVERT JUMPDEST PUSH0 PUSH2 0x1157 DUP3 PUSH2 0x1044 JUMP JUMPDEST SWAP1 POP SWAP2 SWAP1 POP JUMP JUMPDEST PUSH2 0x1167 DUP2 PUSH2 0x114D JUMP JUMPDEST DUP2 EQ PUSH2 0x1171 JUMPI PUSH0 DUP1 REVERT JUMPDEST POP JUMP JUMPDEST PUSH0 DUP2 CALLDATALOAD SWAP1 POP PUSH2 0x1182 DUP2 PUSH2 0x115E JUMP JUMPDEST SWAP3 SWAP2 POP POP JUMP JUMPDEST PUSH0 PUSH1 0x20 DUP3 DUP5 SUB SLT ISZERO PUSH2 0x119D JUMPI PUSH2 0x119C PUSH2 0x1149 JUMP JUMPDEST JUMPDEST PUSH0 PUSH2 0x11AA DUP5 DUP3 DUP6 ADD PUSH2 0x1174 JUMP JUMPDEST SWAP2 POP POP SWAP3 SWAP2 POP POP JUMP JUMPDEST PUSH0 DUP2 SWAP1 POP SWAP2 SWAP1 POP JUMP JUMPDEST PUSH2 0x11C5 DUP2 PUSH2 0x11B3 JUMP JUMPDEST DUP3 MSTORE POP POP JUMP JUMPDEST PUSH0 PUSH1 0x20 DUP3 ADD SWAP1 POP PUSH2 0x11DE PUSH0 DUP4 ADD DUP5 PUSH2 0x11BC JUMP JUMPDEST SWAP3 SWAP2 POP POP JUMP JUMPDEST PUSH2 0x11ED DUP2 PUSH2 0x11B3 JUMP JUMPDEST DUP2 EQ PUSH2 0x11F7 JUMPI PUSH0 DUP1 REVERT JUMPDEST POP JUMP JUMPDEST PUSH0 DUP2 CALLDATALOAD SWAP1 POP PUSH2 0x1208 DUP2 PUSH2 0x11E4 JUMP JUMPDEST SWAP3 SWAP2 POP POP JUMP JUMPDEST PUSH0 PUSH1 0x20 DUP3 DUP5 SUB SLT ISZERO PUSH2 0x1223 JUMPI PUSH2 0x1222 PUSH2 0x1149 JUMP JUMPDEST JUMPDEST PUSH0 PUSH2 0x1230 DUP5 DUP3 DUP6 ADD PUSH2 0x11FA JUMP JUMPDEST SWAP2 POP POP SWAP3 SWAP2 POP POP JUMP JUMPDEST PUSH0 PUSH2 0x1243 DUP3 PUSH2 0x108D JUMP JUMPDEST SWAP1 POP SWAP2 SWAP1 POP JUMP JUMPDEST PUSH2 0x1253 DUP2 PUSH2 0x1239 JUMP JUMPDEST DUP3 MSTORE POP POP JUMP JUMPDEST PUSH0 PUSH1 0x20 DUP3 ADD SWAP1 POP PUSH2 0x126C PUSH0 DUP4 ADD DUP5 PUSH2 0x124A JUMP JUMPDEST SWAP3 SWAP2 POP POP JUMP JUMPDEST PUSH0 DUP3 DUP3 MSTORE PUSH1 0x20 DUP3 ADD SWAP1 POP SWAP3 SWAP2 POP POP JUMP JUMPDEST PUSH32 0x496E73756666696369656E742062616C616E6365000000000000000000000000 PUSH0 DUP3 ADD MSTORE POP JUMP JUMPDEST PUSH0 PUSH2 0x12B6 PUSH1 0x14 DUP4 PUSH2 0x1272 JUMP JUMPDEST SWAP2 POP PUSH2 0x12C1 DUP3 PUSH2 0x1282 JUMP JUMPDEST PUSH1 0x20 DUP3 ADD SWAP1 POP SWAP2 SWAP1 POP JUMP JUMPDEST PUSH0 PUSH1 0x20 DUP3 ADD SWAP1 POP DUP2 DUP2 SUB PUSH0 DUP4 ADD MSTORE PUSH2 0x12E3 DUP2 PUSH2 0x12AA JUMP JUMPDEST SWAP1 POP SWAP2 SWAP1 POP JUMP JUMPDEST PUSH32 0x4E487B7100000000000000000000000000000000000000000000000000000000 PUSH0 MSTORE PUSH1 0x11 PUSH1 0x4 MSTORE PUSH1 0x24 PUSH0 REVERT JUMPDEST PUSH0 PUSH2 0x1321 DUP3 PUSH2 0x11B3 JUMP JUMPDEST SWAP2 POP PUSH2 0x132C DUP4 PUSH2 0x11B3 JUMP JUMPDEST SWAP3 POP DUP3 DUP3 SUB SWAP1 POP DUP2 DUP2 GT ISZERO PUSH2 0x1344 JUMPI PUSH2 0x1343 PUSH2 0x12EA JUMP JUMPDEST JUMPDEST SWAP3 SWAP2 POP POP JUMP JUMPDEST PUSH2 0x1353 DUP2 PUSH2 0x114D JUMP JUMPDEST DUP3 MSTORE POP POP JUMP JUMPDEST PUSH0 PUSH1 0x40 DUP3 ADD SWAP1 POP PUSH2 0x136C PUSH0 DUP4 ADD DUP6 PUSH2 0x134A JUMP JUMPDEST PUSH2 0x1379 PUSH1 0x20 DUP4 ADD DUP5 PUSH2 0x11BC JUMP JUMPDEST SWAP4 SWAP3 POP POP POP JUMP JUMPDEST PUSH0 DUP2 ISZERO ISZERO SWAP1 POP SWAP2 SWAP1 POP JUMP JUMPDEST PUSH2 0x1394 DUP2 PUSH2 0x1380 JUMP JUMPDEST DUP2 EQ PUSH2 0x139E JUMPI PUSH0 DUP1 REVERT JUMPDEST POP JUMP JUMPDEST PUSH0 DUP2 MLOAD SWAP1 POP PUSH2 0x13AF DUP2 PUSH2 0x138B JUMP JUMPDEST SWAP3 SWAP2 POP POP JUMP JUMPDEST PUSH0 PUSH1 0x20 DUP3 DUP5 SUB SLT ISZERO PUSH2 0x13CA JUMPI PUSH2 0x13C9 PUSH2 0x1149 JUMP JUMPDEST JUMPDEST PUSH0 PUSH2 0x13D7 DUP5 DUP3 DUP6 ADD PUSH2 0x13A1 JUMP JUMPDEST SWAP2 POP POP SWAP3 SWAP2 POP POP JUMP JUMPDEST PUSH0 PUSH1 0x40 DUP3 ADD SWAP1 POP PUSH2 0x13F3 PUSH0 DUP4 ADD DUP6 PUSH2 0x134A JUMP JUMPDEST PUSH2 0x1400 PUSH1 0x20 DUP4 ADD DUP5 PUSH2 0x134A JUMP JUMPDEST SWAP4 SWAP3 POP POP POP JUMP JUMPDEST PUSH32 0x426F72726F776572206973206E6F7420756E646572636F6C6C61746572616C69 PUSH0 DUP3 ADD MSTORE PUSH32 0x7A65640000000000000000000000000000000000000000000000000000000000 PUSH1 0x20 DUP3 ADD MSTORE POP JUMP JUMPDEST PUSH0 PUSH2 0x1461 PUSH1 0x23 DUP4 PUSH2 0x1272 JUMP JUMPDEST SWAP2 POP PUSH2 0x146C DUP3 PUSH2 0x1407 JUMP JUMPDEST PUSH1 0x40 DUP3 ADD SWAP1 POP SWAP2 SWAP1 POP JUMP JUMPDEST PUSH0 PUSH1 0x20 DUP3 ADD SWAP1 POP DUP2 DUP2 SUB PUSH0 DUP4 ADD MSTORE PUSH2 0x148E DUP2 PUSH2 0x1455 JUMP JUMPDEST SWAP1 POP SWAP2 SWAP1 POP JUMP JUMPDEST PUSH0 DUP2 MLOAD SWAP1 POP PUSH2 0x14A3 DUP2 PUSH2 0x11E4 JUMP JUMPDEST SWAP3 SWAP2 POP POP JUMP JUMPDEST PUSH0 PUSH1 0x20 DUP3 DUP5 SUB SLT ISZERO PUSH2 0x14BE JUMPI PUSH2 0x14BD PUSH2 0x1149 JUMP JUMPDEST JUMPDEST PUSH0 PUSH2 0x14CB DUP5 DUP3 DUP6 ADD PUSH2 0x1495 JUMP JUMPDEST SWAP2 POP POP SWAP3 SWAP2 POP POP JUMP JUMPDEST PUSH0 PUSH2 0x14DE DUP3 PUSH2 0x11B3 JUMP JUMPDEST SWAP2 POP PUSH2 0x14E9 DUP4 PUSH2 0x11B3 JUMP JUMPDEST SWAP3 POP DUP3 DUP3 ADD SWAP1 POP DUP1 DUP3 GT ISZERO PUSH2 0x1501 JUMPI PUSH2 0x1500 PUSH2 0x12EA JUMP JUMPDEST JUMPDEST SWAP3 SWAP2 POP POP JUMP JUMPDEST PUSH0 PUSH2 0x1511 DUP3 PUSH2 0x11B3 JUMP JUMPDEST SWAP2 POP PUSH2 0x151C DUP4 PUSH2 0x11B3 JUMP JUMPDEST SWAP3 POP DUP3 DUP3 MUL PUSH2 0x152A DUP2 PUSH2 0x11B3 JUMP JUMPDEST SWAP2 POP DUP3 DUP3 DIV DUP5 EQ DUP4 ISZERO OR PUSH2 0x1541 JUMPI PUSH2 0x1540 PUSH2 0x12EA JUMP JUMPDEST JUMPDEST POP SWAP3 SWAP2 POP POP JUMP JUMPDEST PUSH32 0x4E487B7100000000000000000000000000000000000000000000000000000000 PUSH0 MSTORE PUSH1 0x12 PUSH1 0x4 MSTORE PUSH1 0x24 PUSH0 REVERT JUMPDEST PUSH0 PUSH2 0x157F DUP3 PUSH2 0x11B3 JUMP JUMPDEST SWAP2 POP PUSH2 0x158A DUP4 PUSH2 0x11B3 JUMP JUMPDEST SWAP3 POP DUP3 PUSH2 0x159A JUMPI PUSH2 0x1599 PUSH2 0x1548 JUMP JUMPDEST JUMPDEST DUP3 DUP3 DIV SWAP1 POP SWAP3 SWAP2 POP POP JUMP JUMPDEST PUSH0 PUSH1 0x60 DUP3 ADD SWAP1 POP PUSH2 0x15B8 PUSH0 DUP4 ADD DUP7 PUSH2 0x134A JUMP JUMPDEST PUSH2 0x15C5 PUSH1 0x20 DUP4 ADD DUP6 PUSH2 0x134A JUMP JUMPDEST PUSH2 0x15D2 PUSH1 0x40 DUP4 ADD DUP5 PUSH2 0x11BC JUMP JUMPDEST SWAP5 SWAP4 POP POP POP POP JUMP JUMPDEST PUSH32 0x416D6F756E742065786365656473206465627400000000000000000000000000 PUSH0 DUP3 ADD MSTORE POP JUMP JUMPDEST PUSH0 PUSH2 0x160E PUSH1 0x13 DUP4 PUSH2 0x1272 JUMP JUMPDEST SWAP2 POP PUSH2 0x1619 DUP3 PUSH2 0x15DA JUMP JUMPDEST PUSH1 0x20 DUP3 ADD SWAP1 POP SWAP2 SWAP1 POP JUMP JUMPDEST PUSH0 PUSH1 0x20 DUP3 ADD SWAP1 POP DUP2 DUP2 SUB PUSH0 DUP4 ADD MSTORE PUSH2 0x163B DUP2 PUSH2 0x1602 JUMP JUMPDEST SWAP1 POP SWAP2 SWAP1 POP JUMP JUMPDEST PUSH0 PUSH1 0x20 DUP3 ADD SWAP1 POP PUSH2 0x1655 PUSH0 DUP4 ADD DUP5 PUSH2 0x134A JUMP JUMPDEST SWAP3 SWAP2 POP POP JUMP JUMPDEST PUSH32 0x496E73756666696369656E7420636F6C6C61746572616C000000000000000000 PUSH0 DUP3 ADD MSTORE POP JUMP JUMPDEST PUSH0 PUSH2 0x168F PUSH1 0x17 DUP4 PUSH2 0x1272 JUMP JUMPDEST SWAP2 POP PUSH2 0x169A DUP3 PUSH2 0x165B JUMP JUMPDEST PUSH1 0x20 DUP3 ADD SWAP1 POP SWAP2 SWAP1 POP JUMP JUMPDEST PUSH0 PUSH1 0x20 DUP3 ADD SWAP1 POP DUP2 DUP2 SUB PUSH0 DUP4 ADD MSTORE PUSH2 0x16BC DUP2 PUSH2 0x1683 JUMP JUMPDEST SWAP1 POP SWAP2 SWAP1 POP JUMP JUMPDEST PUSH32 0x4E6F7420656E6F756768206C6971756964697479000000000000000000000000 PUSH0 DUP3 ADD MSTORE POP JUMP JUMPDEST PUSH0 PUSH2 0x16F7 PUSH1 0x14 DUP4 PUSH2 0x1272 JUMP JUMPDEST SWAP2 POP PUSH2 0x1702 DUP3 PUSH2 0x16C3 JUMP JUMPDEST PUSH1 0x20 DUP3 ADD SWAP1 POP SWAP2 SWAP1 POP JUMP JUMPDEST PUSH0 PUSH1 0x20 DUP3 ADD SWAP1 POP DUP2 DUP2 SUB PUSH0 DUP4 ADD MSTORE PUSH2 0x1724 DUP2 PUSH2 0x16EB JUMP JUMPDEST SWAP1 POP SWAP2 SWAP1 POP JUMP INVALID LOG2 PUSH5 0x6970667358 0x22 SLT KECCAK256 0xCB PUSH17 0x7C588F8A452FE501EB593530E95A1126FF MOD EXP 0xE2 PUSH10 0x91F9102C79BBF3F30264 PUSH20 0x6F6C634300081600330000000000000000000000 "
				},
				"gasEstimates": {
					"creation": {
						"codeDepositCost": "1197000",
						"executionCost": "infinite",
						"totalCost": "infinite"
					},
					"external": {
						"assetToken()": "infinite",
						"borrow(uint256)": "infinite",
						"borrowerDebt(address)": "2825",
						"calculateBorrowRate(uint256)": "infinite",
						"collateralManager()": "infinite",
						"deposit(uint256)": "infinite",
						"getUtilizationRate()": "infinite",
						"interestRateModel()": "infinite",
						"lenderBalance(address)": "2825",
						"liquidate(address)": "infinite",
						"liquidationManager()": "infinite",
						"repay(uint256)": "infinite",
						"totalBorrowed()": "infinite",
						"totalSupplied()": "infinite",
						"withdraw(uint256)": "infinite"
					}
				},
				"methodIdentifiers": {
					"assetToken()": "1083f761",
					"borrow(uint256)": "c5ebeaec",
					"borrowerDebt(address)": "3add60ab",
					"calculateBorrowRate(uint256)": "e0bf2117",
					"collateralManager()": "23be345c",
					"deposit(uint256)": "b6b55f25",
					"getUtilizationRate()": "4a417a53",
					"interestRateModel()": "f3fdb15a",
					"lenderBalance(address)": "275972ca",
					"liquidate(address)": "2f865568",
					"liquidationManager()": "1ef3a04c",
					"repay(uint256)": "371fd8e6",
					"totalBorrowed()": "4c19386c",
					"totalSupplied()": "630fd0ac",
					"withdraw(uint256)": "2e1a7d4d"
				}
			},
			"storageLayout": {
				"storage": [
					{
						"astId": 1108,
						"contract": "contracts/LendingPool.sol:LendingPool",
						"label": "assetToken",
						"offset": 0,
						"slot": "0",
						"type": "t_contract(ERC20Token)1013"
					},
					{
						"astId": 1111,
						"contract": "contracts/LendingPool.sol:LendingPool",
						"label": "interestRateModel",
						"offset": 0,
						"slot": "1",
						"type": "t_contract(InterestRateModel)1098"
					},
					{
						"astId": 1114,
						"contract": "contracts/LendingPool.sol:LendingPool",
						"label": "collateralManager",
						"offset": 0,
						"slot": "2",
						"type": "t_contract(CollateralManager)943"
					},
					{
						"astId": 1117,
						"contract": "contracts/LendingPool.sol:LendingPool",
						"label": "liquidationManager",
						"offset": 0,
						"slot": "3",
						"type": "t_contract(LiquidationManager)1526"
					},
					{
						"astId": 1121,
						"contract": "contracts/LendingPool.sol:LendingPool",
						"label": "borrowerDebt",
						"offset": 0,
						"slot": "4",
						"type": "t_mapping(t_address,t_uint256)"
					},
					{
						"astId": 1125,
						"contract": "contracts/LendingPool.sol:LendingPool",
						"label": "lenderBalance",
						"offset": 0,
						"slot": "5",
						"type": "t_mapping(t_address,t_uint256)"
					}
				],
				"types": {
					"t_address": {
						"encoding": "inplace",
						"label": "address",
						"numberOfBytes": "20"
					},
					"t_contract(CollateralManager)943": {
						"encoding": "inplace",
						"label": "contract CollateralManager",
						"numberOfBytes": "20"
					},
					"t_contract(ERC20Token)1013": {
						"encoding": "inplace",
						"label": "contract ERC20Token",
						"numberOfBytes": "20"
					},
					"t_contract(InterestRateModel)1098": {
						"encoding": "inplace",
						"label": "contract InterestRateModel",
						"numberOfBytes": "20"
					},
					"t_contract(LiquidationManager)1526": {
						"encoding": "inplace",
						"label": "contract LiquidationManager",
						"numberOfBytes": "20"
					},
					"t_mapping(t_address,t_uint256)": {
						"encoding": "mapping",
						"key": "t_address",
						"label": "mapping(address => uint256)",
						"numberOfBytes": "32",
						"value": "t_uint256"
					},
					"t_uint256": {
						"encoding": "inplace",
						"label": "uint256",
						"numberOfBytes": "32"
					}
				}
			},
			"userdoc": {
				"kind": "user",
				"methods": {},
				"version": 1
			}
		}
	}
}