{
	"contracts/InterestRateModel.sol": {
		"InterestRateModel": {
			"abi": [
				{
					"inputs": [
						{
							"internalType": "uint256",
							"name": "_baseRatePerYear",
							"type": "uint256"
						},
						{
							"internalType": "uint256",
							"name": "_multiplierPerYear",
							"type": "uint256"
						},
						{
							"internalType": "uint256",
							"name": "_jumpMultiplierPerYear",
							"type": "uint256"
						},
						{
							"internalType": "uint256",
							"name": "_kink",
							"type": "uint256"
						}
					],
					"stateMutability": "nonpayable",
					"type": "constructor"
				},
				{
					"inputs": [],
					"name": "baseRatePerYear",
					"outputs": [
						{
							"internalType": "uint256",
							"name": "",
							"type": "uint256"
						}
					],
					"stateMutability": "view",
					"type": "function"
				},
				{
					"inputs": [
						{
							"internalType": "uint256",
							"name": "utilizationRate",
							"type": "uint256"
						}
					],
					"name": "getBorrowRate",
					"outputs": [
						{
							"internalType": "uint256",
							"name": "",
							"type": "uint256"
						}
					],
					"stateMutability": "view",
					"type": "function"
				},
				{
					"inputs": [],
					"name": "jumpMultiplierPerYear",
					"outputs": [
						{
							"internalType": "uint256",
							"name": "",
							"type": "uint256"
						}
					],
					"stateMutability": "view",
					"type": "function"
				},
				{
					"inputs": [],
					"name": "kink",
					"outputs": [
						{
							"internalType": "uint256",
							"name": "",
							"type": "uint256"
						}
					],
					"stateMutability": "view",
					"type": "function"
				},
				{
					"inputs": [],
					"name": "multiplierPerYear",
					"outputs": [
						{
							"internalType": "uint256",
							"name": "",
							"type": "uint256"
						}
					],
					"stateMutability": "view",
					"type": "function"
				}
			],
			"devdoc": {
				"kind": "dev",
				"methods": {},
				"version": 1
			},
			"evm": {
				"assembly": "    /* \"contracts/InterestRateModel.sol\":57:1252  contract InterestRateModel {... */\n  mstore(0x40, 0x80)\n    /* \"contracts/InterestRateModel.sol\":447:775  constructor(... */\n  callvalue\n  dup1\n  iszero\n  tag_1\n  jumpi\n  0x00\n  dup1\n  revert\ntag_1:\n  pop\n  mload(0x40)\n  sub(codesize, bytecodeSize)\n  dup1\n  bytecodeSize\n  dup4\n  codecopy\n  dup2\n  dup2\n  add\n  0x40\n  mstore\n  dup2\n  add\n  swap1\n  tag_2\n  swap2\n  swap1\n  tag_3\n  jump\t// in\ntag_2:\n    /* \"contracts/InterestRateModel.sol\":626:642  _baseRatePerYear */\n  dup4\n    /* \"contracts/InterestRateModel.sol\":608:623  baseRatePerYear */\n  0x00\n    /* \"contracts/InterestRateModel.sol\":608:642  baseRatePerYear = _baseRatePerYear */\n  dup2\n  swap1\n  sstore\n  pop\n    /* \"contracts/InterestRateModel.sol\":672:690  _multiplierPerYear */\n  dup3\n    /* \"contracts/InterestRateModel.sol\":652:669  multiplierPerYear */\n  0x01\n    /* \"contracts/InterestRateModel.sol\":652:690  multiplierPerYear = _multiplierPerYear */\n  dup2\n  swap1\n  sstore\n  pop\n    /* \"contracts/InterestRateModel.sol\":724:746  _jumpMultiplierPerYear */\n  dup2\n    /* \"contracts/InterestRateModel.sol\":700:721  jumpMultiplierPerYear */\n  0x02\n    /* \"contracts/InterestRateModel.sol\":700:746  jumpMultiplierPerYear = _jumpMultiplierPerYear */\n  dup2\n  swap1\n  sstore\n  pop\n    /* \"contracts/InterestRateModel.sol\":763:768  _kink */\n  dup1\n    /* \"contracts/InterestRateModel.sol\":756:760  kink */\n  0x03\n    /* \"contracts/InterestRateModel.sol\":756:768  kink = _kink */\n  dup2\n  swap1\n  sstore\n  pop\n    /* \"contracts/InterestRateModel.sol\":447:775  constructor(... */\n  pop\n  pop\n  pop\n  pop\n    /* \"contracts/InterestRateModel.sol\":57:1252  contract InterestRateModel {... */\n  jump(tag_6)\n    /* \"#utility.yul\":88:205   */\ntag_8:\n    /* \"#utility.yul\":197:198   */\n  0x00\n    /* \"#utility.yul\":194:195   */\n  dup1\n    /* \"#utility.yul\":187:199   */\n  revert\n    /* \"#utility.yul\":334:411   */\ntag_10:\n    /* \"#utility.yul\":371:378   */\n  0x00\n    /* \"#utility.yul\":400:405   */\n  dup2\n    /* \"#utility.yul\":389:405   */\n  swap1\n  pop\n    /* \"#utility.yul\":334:411   */\n  swap2\n  swap1\n  pop\n  jump\t// out\n    /* \"#utility.yul\":417:539   */\ntag_11:\n    /* \"#utility.yul\":490:514   */\n  tag_19\n    /* \"#utility.yul\":508:513   */\n  dup2\n    /* \"#utility.yul\":490:514   */\n  tag_10\n  jump\t// in\ntag_19:\n    /* \"#utility.yul\":483:488   */\n  dup2\n    /* \"#utility.yul\":480:515   */\n  eq\n    /* \"#utility.yul\":470:533   */\n  tag_20\n  jumpi\n    /* \"#utility.yul\":529:530   */\n  0x00\n    /* \"#utility.yul\":526:527   */\n  dup1\n    /* \"#utility.yul\":519:531   */\n  revert\n    /* \"#utility.yul\":470:533   */\ntag_20:\n    /* \"#utility.yul\":417:539   */\n  pop\n  jump\t// out\n    /* \"#utility.yul\":545:688   */\ntag_12:\n    /* \"#utility.yul\":602:607   */\n  0x00\n    /* \"#utility.yul\":633:639   */\n  dup2\n    /* \"#utility.yul\":627:640   */\n  mload\n    /* \"#utility.yul\":618:640   */\n  swap1\n  pop\n    /* \"#utility.yul\":649:682   */\n  tag_22\n    /* \"#utility.yul\":676:681   */\n  dup2\n    /* \"#utility.yul\":649:682   */\n  tag_11\n  jump\t// in\ntag_22:\n    /* \"#utility.yul\":545:688   */\n  swap3\n  swap2\n  pop\n  pop\n  jump\t// out\n    /* \"#utility.yul\":694:1514   */\ntag_3:\n    /* \"#utility.yul\":791:797   */\n  0x00\n    /* \"#utility.yul\":799:805   */\n  dup1\n    /* \"#utility.yul\":807:813   */\n  0x00\n    /* \"#utility.yul\":815:821   */\n  dup1\n    /* \"#utility.yul\":864:867   */\n  0x80\n    /* \"#utility.yul\":852:861   */\n  dup6\n    /* \"#utility.yul\":843:850   */\n  dup8\n    /* \"#utility.yul\":839:862   */\n  sub\n    /* \"#utility.yul\":835:868   */\n  slt\n    /* \"#utility.yul\":832:952   */\n  iszero\n  tag_24\n  jumpi\n    /* \"#utility.yul\":871:950   */\n  tag_25\n  tag_8\n  jump\t// in\ntag_25:\n    /* \"#utility.yul\":832:952   */\ntag_24:\n    /* \"#utility.yul\":991:992   */\n  0x00\n    /* \"#utility.yul\":1016:1080   */\n  tag_26\n    /* \"#utility.yul\":1072:1079   */\n  dup8\n    /* \"#utility.yul\":1063:1069   */\n  dup3\n    /* \"#utility.yul\":1052:1061   */\n  dup9\n    /* \"#utility.yul\":1048:1070   */\n  add\n    /* \"#utility.yul\":1016:1080   */\n  tag_12\n  jump\t// in\ntag_26:\n    /* \"#utility.yul\":1006:1080   */\n  swap5\n  pop\n    /* \"#utility.yul\":962:1090   */\n  pop\n    /* \"#utility.yul\":1129:1131   */\n  0x20\n    /* \"#utility.yul\":1155:1219   */\n  tag_27\n    /* \"#utility.yul\":1211:1218   */\n  dup8\n    /* \"#utility.yul\":1202:1208   */\n  dup3\n    /* \"#utility.yul\":1191:1200   */\n  dup9\n    /* \"#utility.yul\":1187:1209   */\n  add\n    /* \"#utility.yul\":1155:1219   */\n  tag_12\n  jump\t// in\ntag_27:\n    /* \"#utility.yul\":1145:1219   */\n  swap4\n  pop\n    /* \"#utility.yul\":1100:1229   */\n  pop\n    /* \"#utility.yul\":1268:1270   */\n  0x40\n    /* \"#utility.yul\":1294:1358   */\n  tag_28\n    /* \"#utility.yul\":1350:1357   */\n  dup8\n    /* \"#utility.yul\":1341:1347   */\n  dup3\n    /* \"#utility.yul\":1330:1339   */\n  dup9\n    /* \"#utility.yul\":1326:1348   */\n  add\n    /* \"#utility.yul\":1294:1358   */\n  tag_12\n  jump\t// in\ntag_28:\n    /* \"#utility.yul\":1284:1358   */\n  swap3\n  pop\n    /* \"#utility.yul\":1239:1368   */\n  pop\n    /* \"#utility.yul\":1407:1409   */\n  0x60\n    /* \"#utility.yul\":1433:1497   */\n  tag_29\n    /* \"#utility.yul\":1489:1496   */\n  dup8\n    /* \"#utility.yul\":1480:1486   */\n  dup3\n    /* \"#utility.yul\":1469:1478   */\n  dup9\n    /* \"#utility.yul\":1465:1487   */\n  add\n    /* \"#utility.yul\":1433:1497   */\n  tag_12\n  jump\t// in\ntag_29:\n    /* \"#utility.yul\":1423:1497   */\n  swap2\n  pop\n    /* \"#utility.yul\":1378:1507   */\n  pop\n    /* \"#utility.yul\":694:1514   */\n  swap3\n  swap6\n  swap2\n  swap5\n  pop\n  swap3\n  pop\n  jump\t// out\n    /* \"contracts/InterestRateModel.sol\":57:1252  contract InterestRateModel {... */\ntag_6:\n  dataSize(sub_0)\n  dup1\n  dataOffset(sub_0)\n  0x00\n  codecopy\n  0x00\n  return\nstop\n\nsub_0: assembly {\n        /* \"contracts/InterestRateModel.sol\":57:1252  contract InterestRateModel {... */\n      mstore(0x40, 0x80)\n      callvalue\n      dup1\n      iszero\n      tag_1\n      jumpi\n      0x00\n      dup1\n      revert\n    tag_1:\n      pop\n      jumpi(tag_2, lt(calldatasize, 0x04))\n      shr(0xe0, calldataload(0x00))\n      dup1\n      0x41bac600\n      eq\n      tag_3\n      jumpi\n      dup1\n      0x9fa83b5a\n      eq\n      tag_4\n      jumpi\n      dup1\n      0xde3f9485\n      eq\n      tag_5\n      jumpi\n      dup1\n      0xf1b820d5\n      eq\n      tag_6\n      jumpi\n      dup1\n      0xfd2da339\n      eq\n      tag_7\n      jumpi\n    tag_2:\n      0x00\n      dup1\n      revert\n        /* \"contracts/InterestRateModel.sol\":254:290  uint256 public jumpMultiplierPerYear */\n    tag_3:\n      tag_8\n      tag_9\n      jump\t// in\n    tag_8:\n      mload(0x40)\n      tag_10\n      swap2\n      swap1\n      tag_11\n      jump\t// in\n    tag_10:\n      mload(0x40)\n      dup1\n      swap2\n      sub\n      swap1\n      return\n        /* \"contracts/InterestRateModel.sol\":781:1250  function getBorrowRate(uint256 utilizationRate) external view returns (uint256) { ... */\n    tag_4:\n      tag_12\n      0x04\n      dup1\n      calldatasize\n      sub\n      dup2\n      add\n      swap1\n      tag_13\n      swap2\n      swap1\n      tag_14\n      jump\t// in\n    tag_13:\n      tag_15\n      jump\t// in\n    tag_12:\n      mload(0x40)\n      tag_16\n      swap2\n      swap1\n      tag_11\n      jump\t// in\n    tag_16:\n      mload(0x40)\n      dup1\n      swap2\n      sub\n      swap1\n      return\n        /* \"contracts/InterestRateModel.sol\":90:120  uint256 public baseRatePerYear */\n    tag_5:\n      tag_17\n      tag_18\n      jump\t// in\n    tag_17:\n      mload(0x40)\n      tag_19\n      swap2\n      swap1\n      tag_11\n      jump\t// in\n    tag_19:\n      mload(0x40)\n      dup1\n      swap2\n      sub\n      swap1\n      return\n        /* \"contracts/InterestRateModel.sol\":175:207  uint256 public multiplierPerYear */\n    tag_6:\n      tag_20\n      tag_21\n      jump\t// in\n    tag_20:\n      mload(0x40)\n      tag_22\n      swap2\n      swap1\n      tag_11\n      jump\t// in\n    tag_22:\n      mload(0x40)\n      dup1\n      swap2\n      sub\n      swap1\n      return\n        /* \"contracts/InterestRateModel.sol\":342:361  uint256 public kink */\n    tag_7:\n      tag_23\n      tag_24\n      jump\t// in\n    tag_23:\n      mload(0x40)\n      tag_25\n      swap2\n      swap1\n      tag_11\n      jump\t// in\n    tag_25:\n      mload(0x40)\n      dup1\n      swap2\n      sub\n      swap1\n      return\n        /* \"contracts/InterestRateModel.sol\":254:290  uint256 public jumpMultiplierPerYear */\n    tag_9:\n      sload(0x02)\n      dup2\n      jump\t// out\n        /* \"contracts/InterestRateModel.sol\":781:1250  function getBorrowRate(uint256 utilizationRate) external view returns (uint256) { ... */\n    tag_15:\n        /* \"contracts/InterestRateModel.sol\":852:859  uint256 */\n      0x00\n        /* \"contracts/InterestRateModel.sol\":894:898  kink */\n      sload(0x03)\n        /* \"contracts/InterestRateModel.sol\":876:891  utilizationRate */\n      dup3\n        /* \"contracts/InterestRateModel.sol\":876:898  utilizationRate < kink */\n      lt\n        /* \"contracts/InterestRateModel.sol\":872:1244  if (utilizationRate < kink) {... */\n      iszero\n      tag_27\n      jumpi\n        /* \"contracts/InterestRateModel.sol\":977:980  1e4 */\n      0x2710\n        /* \"contracts/InterestRateModel.sol\":957:974  multiplierPerYear */\n      sload(0x01)\n        /* \"contracts/InterestRateModel.sol\":939:954  utilizationRate */\n      dup4\n        /* \"contracts/InterestRateModel.sol\":939:974  utilizationRate * multiplierPerYear */\n      tag_28\n      swap2\n      swap1\n      tag_29\n      jump\t// in\n    tag_28:\n        /* \"contracts/InterestRateModel.sol\":939:980  utilizationRate * multiplierPerYear / 1e4 */\n      tag_30\n      swap2\n      swap1\n      tag_31\n      jump\t// in\n    tag_30:\n        /* \"contracts/InterestRateModel.sol\":921:936  baseRatePerYear */\n      sload(0x00)\n        /* \"contracts/InterestRateModel.sol\":921:980  baseRatePerYear + utilizationRate * multiplierPerYear / 1e4 */\n      tag_32\n      swap2\n      swap1\n      tag_33\n      jump\t// in\n    tag_32:\n        /* \"contracts/InterestRateModel.sol\":914:980  return baseRatePerYear + utilizationRate * multiplierPerYear / 1e4 */\n      swap1\n      pop\n      jump(tag_26)\n        /* \"contracts/InterestRateModel.sol\":872:1244  if (utilizationRate < kink) {... */\n    tag_27:\n        /* \"contracts/InterestRateModel.sol\":1011:1029  uint256 normalRate */\n      0x00\n        /* \"contracts/InterestRateModel.sol\":1077:1080  1e4 */\n      0x2710\n        /* \"contracts/InterestRateModel.sol\":1057:1074  multiplierPerYear */\n      sload(0x01)\n        /* \"contracts/InterestRateModel.sol\":1050:1054  kink */\n      sload(0x03)\n        /* \"contracts/InterestRateModel.sol\":1050:1074  kink * multiplierPerYear */\n      tag_35\n      swap2\n      swap1\n      tag_29\n      jump\t// in\n    tag_35:\n        /* \"contracts/InterestRateModel.sol\":1050:1080  kink * multiplierPerYear / 1e4 */\n      tag_36\n      swap2\n      swap1\n      tag_31\n      jump\t// in\n    tag_36:\n        /* \"contracts/InterestRateModel.sol\":1032:1047  baseRatePerYear */\n      sload(0x00)\n        /* \"contracts/InterestRateModel.sol\":1032:1080  baseRatePerYear + kink * multiplierPerYear / 1e4 */\n      tag_37\n      swap2\n      swap1\n      tag_33\n      jump\t// in\n    tag_37:\n        /* \"contracts/InterestRateModel.sol\":1011:1080  uint256 normalRate = baseRatePerYear + kink * multiplierPerYear / 1e4 */\n      swap1\n      pop\n        /* \"contracts/InterestRateModel.sol\":1094:1123  uint256 excessUtilizationRate */\n      0x00\n        /* \"contracts/InterestRateModel.sol\":1144:1148  kink */\n      sload(0x03)\n        /* \"contracts/InterestRateModel.sol\":1126:1141  utilizationRate */\n      dup5\n        /* \"contracts/InterestRateModel.sol\":1126:1148  utilizationRate - kink */\n      tag_38\n      swap2\n      swap1\n      tag_39\n      jump\t// in\n    tag_38:\n        /* \"contracts/InterestRateModel.sol\":1094:1148  uint256 excessUtilizationRate = utilizationRate - kink */\n      swap1\n      pop\n        /* \"contracts/InterestRateModel.sol\":1230:1233  1e4 */\n      0x2710\n        /* \"contracts/InterestRateModel.sol\":1206:1227  jumpMultiplierPerYear */\n      sload(0x02)\n        /* \"contracts/InterestRateModel.sol\":1182:1203  excessUtilizationRate */\n      dup3\n        /* \"contracts/InterestRateModel.sol\":1182:1227  excessUtilizationRate * jumpMultiplierPerYear */\n      tag_40\n      swap2\n      swap1\n      tag_29\n      jump\t// in\n    tag_40:\n        /* \"contracts/InterestRateModel.sol\":1182:1233  excessUtilizationRate * jumpMultiplierPerYear / 1e4 */\n      tag_41\n      swap2\n      swap1\n      tag_31\n      jump\t// in\n    tag_41:\n        /* \"contracts/InterestRateModel.sol\":1169:1179  normalRate */\n      dup3\n        /* \"contracts/InterestRateModel.sol\":1169:1233  normalRate + excessUtilizationRate * jumpMultiplierPerYear / 1e4 */\n      tag_42\n      swap2\n      swap1\n      tag_33\n      jump\t// in\n    tag_42:\n        /* \"contracts/InterestRateModel.sol\":1162:1233  return normalRate + excessUtilizationRate * jumpMultiplierPerYear / 1e4 */\n      swap3\n      pop\n      pop\n      pop\n        /* \"contracts/InterestRateModel.sol\":781:1250  function getBorrowRate(uint256 utilizationRate) external view returns (uint256) { ... */\n    tag_26:\n      swap2\n      swap1\n      pop\n      jump\t// out\n        /* \"contracts/InterestRateModel.sol\":90:120  uint256 public baseRatePerYear */\n    tag_18:\n      sload(0x00)\n      dup2\n      jump\t// out\n        /* \"contracts/InterestRateModel.sol\":175:207  uint256 public multiplierPerYear */\n    tag_21:\n      sload(0x01)\n      dup2\n      jump\t// out\n        /* \"contracts/InterestRateModel.sol\":342:361  uint256 public kink */\n    tag_24:\n      sload(0x03)\n      dup2\n      jump\t// out\n        /* \"#utility.yul\":7:84   */\n    tag_43:\n        /* \"#utility.yul\":44:51   */\n      0x00\n        /* \"#utility.yul\":73:78   */\n      dup2\n        /* \"#utility.yul\":62:78   */\n      swap1\n      pop\n        /* \"#utility.yul\":7:84   */\n      swap2\n      swap1\n      pop\n      jump\t// out\n        /* \"#utility.yul\":90:208   */\n    tag_44:\n        /* \"#utility.yul\":177:201   */\n      tag_55\n        /* \"#utility.yul\":195:200   */\n      dup2\n        /* \"#utility.yul\":177:201   */\n      tag_43\n      jump\t// in\n    tag_55:\n        /* \"#utility.yul\":172:175   */\n      dup3\n        /* \"#utility.yul\":165:202   */\n      mstore\n        /* \"#utility.yul\":90:208   */\n      pop\n      pop\n      jump\t// out\n        /* \"#utility.yul\":214:436   */\n    tag_11:\n        /* \"#utility.yul\":307:311   */\n      0x00\n        /* \"#utility.yul\":345:347   */\n      0x20\n        /* \"#utility.yul\":334:343   */\n      dup3\n        /* \"#utility.yul\":330:348   */\n      add\n        /* \"#utility.yul\":322:348   */\n      swap1\n      pop\n        /* \"#utility.yul\":358:429   */\n      tag_57\n        /* \"#utility.yul\":426:427   */\n      0x00\n        /* \"#utility.yul\":415:424   */\n      dup4\n        /* \"#utility.yul\":411:428   */\n      add\n        /* \"#utility.yul\":402:408   */\n      dup5\n        /* \"#utility.yul\":358:429   */\n      tag_44\n      jump\t// in\n    tag_57:\n        /* \"#utility.yul\":214:436   */\n      swap3\n      swap2\n      pop\n      pop\n      jump\t// out\n        /* \"#utility.yul\":523:640   */\n    tag_46:\n        /* \"#utility.yul\":632:633   */\n      0x00\n        /* \"#utility.yul\":629:630   */\n      dup1\n        /* \"#utility.yul\":622:634   */\n      revert\n        /* \"#utility.yul\":769:891   */\n    tag_48:\n        /* \"#utility.yul\":842:866   */\n      tag_62\n        /* \"#utility.yul\":860:865   */\n      dup2\n        /* \"#utility.yul\":842:866   */\n      tag_43\n      jump\t// in\n    tag_62:\n        /* \"#utility.yul\":835:840   */\n      dup2\n        /* \"#utility.yul\":832:867   */\n      eq\n        /* \"#utility.yul\":822:885   */\n      tag_63\n      jumpi\n        /* \"#utility.yul\":881:882   */\n      0x00\n        /* \"#utility.yul\":878:879   */\n      dup1\n        /* \"#utility.yul\":871:883   */\n      revert\n        /* \"#utility.yul\":822:885   */\n    tag_63:\n        /* \"#utility.yul\":769:891   */\n      pop\n      jump\t// out\n        /* \"#utility.yul\":897:1036   */\n    tag_49:\n        /* \"#utility.yul\":943:948   */\n      0x00\n        /* \"#utility.yul\":981:987   */\n      dup2\n        /* \"#utility.yul\":968:988   */\n      calldataload\n        /* \"#utility.yul\":959:988   */\n      swap1\n      pop\n        /* \"#utility.yul\":997:1030   */\n      tag_65\n        /* \"#utility.yul\":1024:1029   */\n      dup2\n        /* \"#utility.yul\":997:1030   */\n      tag_48\n      jump\t// in\n    tag_65:\n        /* \"#utility.yul\":897:1036   */\n      swap3\n      swap2\n      pop\n      pop\n      jump\t// out\n        /* \"#utility.yul\":1042:1371   */\n    tag_14:\n        /* \"#utility.yul\":1101:1107   */\n      0x00\n        /* \"#utility.yul\":1150:1152   */\n      0x20\n        /* \"#utility.yul\":1138:1147   */\n      dup3\n        /* \"#utility.yul\":1129:1136   */\n      dup5\n        /* \"#utility.yul\":1125:1148   */\n      sub\n        /* \"#utility.yul\":1121:1153   */\n      slt\n        /* \"#utility.yul\":1118:1237   */\n      iszero\n      tag_67\n      jumpi\n        /* \"#utility.yul\":1156:1235   */\n      tag_68\n      tag_46\n      jump\t// in\n    tag_68:\n        /* \"#utility.yul\":1118:1237   */\n    tag_67:\n        /* \"#utility.yul\":1276:1277   */\n      0x00\n        /* \"#utility.yul\":1301:1354   */\n      tag_69\n        /* \"#utility.yul\":1346:1353   */\n      dup5\n        /* \"#utility.yul\":1337:1343   */\n      dup3\n        /* \"#utility.yul\":1326:1335   */\n      dup6\n        /* \"#utility.yul\":1322:1344   */\n      add\n        /* \"#utility.yul\":1301:1354   */\n      tag_49\n      jump\t// in\n    tag_69:\n        /* \"#utility.yul\":1291:1354   */\n      swap2\n      pop\n        /* \"#utility.yul\":1247:1364   */\n      pop\n        /* \"#utility.yul\":1042:1371   */\n      swap3\n      swap2\n      pop\n      pop\n      jump\t// out\n        /* \"#utility.yul\":1377:1557   */\n    tag_50:\n        /* \"#utility.yul\":1425:1502   */\n      0x4e487b7100000000000000000000000000000000000000000000000000000000\n        /* \"#utility.yul\":1422:1423   */\n      0x00\n        /* \"#utility.yul\":1415:1503   */\n      mstore\n        /* \"#utility.yul\":1522:1526   */\n      0x11\n        /* \"#utility.yul\":1519:1520   */\n      0x04\n        /* \"#utility.yul\":1512:1527   */\n      mstore\n        /* \"#utility.yul\":1546:1550   */\n      0x24\n        /* \"#utility.yul\":1543:1544   */\n      0x00\n        /* \"#utility.yul\":1536:1551   */\n      revert\n        /* \"#utility.yul\":1563:1973   */\n    tag_29:\n        /* \"#utility.yul\":1603:1610   */\n      0x00\n        /* \"#utility.yul\":1626:1646   */\n      tag_72\n        /* \"#utility.yul\":1644:1645   */\n      dup3\n        /* \"#utility.yul\":1626:1646   */\n      tag_43\n      jump\t// in\n    tag_72:\n        /* \"#utility.yul\":1621:1646   */\n      swap2\n      pop\n        /* \"#utility.yul\":1660:1680   */\n      tag_73\n        /* \"#utility.yul\":1678:1679   */\n      dup4\n        /* \"#utility.yul\":1660:1680   */\n      tag_43\n      jump\t// in\n    tag_73:\n        /* \"#utility.yul\":1655:1680   */\n      swap3\n      pop\n        /* \"#utility.yul\":1715:1716   */\n      dup3\n        /* \"#utility.yul\":1712:1713   */\n      dup3\n        /* \"#utility.yul\":1708:1717   */\n      mul\n        /* \"#utility.yul\":1737:1767   */\n      tag_74\n        /* \"#utility.yul\":1755:1766   */\n      dup2\n        /* \"#utility.yul\":1737:1767   */\n      tag_43\n      jump\t// in\n    tag_74:\n        /* \"#utility.yul\":1726:1767   */\n      swap2\n      pop\n        /* \"#utility.yul\":1916:1917   */\n      dup3\n        /* \"#utility.yul\":1907:1914   */\n      dup3\n        /* \"#utility.yul\":1903:1918   */\n      div\n        /* \"#utility.yul\":1900:1901   */\n      dup5\n        /* \"#utility.yul\":1897:1919   */\n      eq\n        /* \"#utility.yul\":1877:1878   */\n      dup4\n        /* \"#utility.yul\":1870:1879   */\n      iszero\n        /* \"#utility.yul\":1850:1933   */\n      or\n        /* \"#utility.yul\":1827:1966   */\n      tag_75\n      jumpi\n        /* \"#utility.yul\":1946:1964   */\n      tag_76\n      tag_50\n      jump\t// in\n    tag_76:\n        /* \"#utility.yul\":1827:1966   */\n    tag_75:\n        /* \"#utility.yul\":1611:1973   */\n      pop\n        /* \"#utility.yul\":1563:1973   */\n      swap3\n      swap2\n      pop\n      pop\n      jump\t// out\n        /* \"#utility.yul\":1979:2159   */\n    tag_51:\n        /* \"#utility.yul\":2027:2104   */\n      0x4e487b7100000000000000000000000000000000000000000000000000000000\n        /* \"#utility.yul\":2024:2025   */\n      0x00\n        /* \"#utility.yul\":2017:2105   */\n      mstore\n        /* \"#utility.yul\":2124:2128   */\n      0x12\n        /* \"#utility.yul\":2121:2122   */\n      0x04\n        /* \"#utility.yul\":2114:2129   */\n      mstore\n        /* \"#utility.yul\":2148:2152   */\n      0x24\n        /* \"#utility.yul\":2145:2146   */\n      0x00\n        /* \"#utility.yul\":2138:2153   */\n      revert\n        /* \"#utility.yul\":2165:2350   */\n    tag_31:\n        /* \"#utility.yul\":2205:2206   */\n      0x00\n        /* \"#utility.yul\":2222:2242   */\n      tag_79\n        /* \"#utility.yul\":2240:2241   */\n      dup3\n        /* \"#utility.yul\":2222:2242   */\n      tag_43\n      jump\t// in\n    tag_79:\n        /* \"#utility.yul\":2217:2242   */\n      swap2\n      pop\n        /* \"#utility.yul\":2256:2276   */\n      tag_80\n        /* \"#utility.yul\":2274:2275   */\n      dup4\n        /* \"#utility.yul\":2256:2276   */\n      tag_43\n      jump\t// in\n    tag_80:\n        /* \"#utility.yul\":2251:2276   */\n      swap3\n      pop\n        /* \"#utility.yul\":2295:2296   */\n      dup3\n        /* \"#utility.yul\":2285:2320   */\n      tag_81\n      jumpi\n        /* \"#utility.yul\":2300:2318   */\n      tag_82\n      tag_51\n      jump\t// in\n    tag_82:\n        /* \"#utility.yul\":2285:2320   */\n    tag_81:\n        /* \"#utility.yul\":2342:2343   */\n      dup3\n        /* \"#utility.yul\":2339:2340   */\n      dup3\n        /* \"#utility.yul\":2335:2344   */\n      div\n        /* \"#utility.yul\":2330:2344   */\n      swap1\n      pop\n        /* \"#utility.yul\":2165:2350   */\n      swap3\n      swap2\n      pop\n      pop\n      jump\t// out\n        /* \"#utility.yul\":2356:2547   */\n    tag_33:\n        /* \"#utility.yul\":2396:2399   */\n      0x00\n        /* \"#utility.yul\":2415:2435   */\n      tag_84\n        /* \"#utility.yul\":2433:2434   */\n      dup3\n        /* \"#utility.yul\":2415:2435   */\n      tag_43\n      jump\t// in\n    tag_84:\n        /* \"#utility.yul\":2410:2435   */\n      swap2\n      pop\n        /* \"#utility.yul\":2449:2469   */\n      tag_85\n        /* \"#utility.yul\":2467:2468   */\n      dup4\n        /* \"#utility.yul\":2449:2469   */\n      tag_43\n      jump\t// in\n    tag_85:\n        /* \"#utility.yul\":2444:2469   */\n      swap3\n      pop\n        /* \"#utility.yul\":2492:2493   */\n      dup3\n        /* \"#utility.yul\":2489:2490   */\n      dup3\n        /* \"#utility.yul\":2485:2494   */\n      add\n        /* \"#utility.yul\":2478:2494   */\n      swap1\n      pop\n        /* \"#utility.yul\":2513:2516   */\n      dup1\n        /* \"#utility.yul\":2510:2511   */\n      dup3\n        /* \"#utility.yul\":2507:2517   */\n      gt\n        /* \"#utility.yul\":2504:2540   */\n      iszero\n      tag_86\n      jumpi\n        /* \"#utility.yul\":2520:2538   */\n      tag_87\n      tag_50\n      jump\t// in\n    tag_87:\n        /* \"#utility.yul\":2504:2540   */\n    tag_86:\n        /* \"#utility.yul\":2356:2547   */\n      swap3\n      swap2\n      pop\n      pop\n      jump\t// out\n        /* \"#utility.yul\":2553:2747   */\n    tag_39:\n        /* \"#utility.yul\":2593:2597   */\n      0x00\n        /* \"#utility.yul\":2613:2633   */\n      tag_89\n        /* \"#utility.yul\":2631:2632   */\n      dup3\n        /* \"#utility.yul\":2613:2633   */\n      tag_43\n      jump\t// in\n    tag_89:\n        /* \"#utility.yul\":2608:2633   */\n      swap2\n      pop\n        /* \"#utility.yul\":2647:2667   */\n      tag_90\n        /* \"#utility.yul\":2665:2666   */\n      dup4\n        /* \"#utility.yul\":2647:2667   */\n      tag_43\n      jump\t// in\n    tag_90:\n        /* \"#utility.yul\":2642:2667   */\n      swap3\n      pop\n        /* \"#utility.yul\":2691:2692   */\n      dup3\n        /* \"#utility.yul\":2688:2689   */\n      dup3\n        /* \"#utility.yul\":2684:2693   */\n      sub\n        /* \"#utility.yul\":2676:2693   */\n      swap1\n      pop\n        /* \"#utility.yul\":2715:2716   */\n      dup2\n        /* \"#utility.yul\":2709:2713   */\n      dup2\n        /* \"#utility.yul\":2706:2717   */\n      gt\n        /* \"#utility.yul\":2703:2740   */\n      iszero\n      tag_91\n      jumpi\n        /* \"#utility.yul\":2720:2738   */\n      tag_92\n      tag_50\n      jump\t// in\n    tag_92:\n        /* \"#utility.yul\":2703:2740   */\n    tag_91:\n        /* \"#utility.yul\":2553:2747   */\n      swap3\n      swap2\n      pop\n      pop\n      jump\t// out\n\n    auxdata: 0xa26469706673582212209958f6cc291b6e1d20ea2528a50430e6c49c0581d9cad153025997e22c5b0e9a64736f6c63430008160033\n}\n",
				"bytecode": {
					"linkReferences": {},
					"object": "608060405234801561000f575f80fd5b506040516104ac3803806104ac8339818101604052810190610031919061008c565b835f81905550826001819055508160028190555080600381905550505050506100f0565b5f80fd5b5f819050919050565b61006b81610059565b8114610075575f80fd5b50565b5f8151905061008681610062565b92915050565b5f805f80608085870312156100a4576100a3610055565b5b5f6100b187828801610078565b94505060206100c287828801610078565b93505060406100d387828801610078565b92505060606100e487828801610078565b91505092959194509250565b6103af806100fd5f395ff3fe608060405234801561000f575f80fd5b5060043610610055575f3560e01c806341bac600146100595780639fa83b5a14610077578063de3f9485146100a7578063f1b820d5146100c5578063fd2da339146100e3575b5f80fd5b610061610101565b60405161006e91906101d6565b60405180910390f35b610091600480360381019061008c919061021d565b610107565b60405161009e91906101d6565b60405180910390f35b6100af6101ad565b6040516100bc91906101d6565b60405180910390f35b6100cd6101b2565b6040516100da91906101d6565b60405180910390f35b6100eb6101b8565b6040516100f891906101d6565b60405180910390f35b60025481565b5f60035482101561014057612710600154836101239190610275565b61012d91906102e3565b5f546101399190610313565b90506101a8565b5f6127106001546003546101549190610275565b61015e91906102e3565b5f5461016a9190610313565b90505f6003548461017b9190610346565b90506127106002548261018e9190610275565b61019891906102e3565b826101a39190610313565b925050505b919050565b5f5481565b60015481565b60035481565b5f819050919050565b6101d0816101be565b82525050565b5f6020820190506101e95f8301846101c7565b92915050565b5f80fd5b6101fc816101be565b8114610206575f80fd5b50565b5f81359050610217816101f3565b92915050565b5f60208284031215610232576102316101ef565b5b5f61023f84828501610209565b91505092915050565b7f4e487b71000000000000000000000000000000000000000000000000000000005f52601160045260245ffd5b5f61027f826101be565b915061028a836101be565b9250828202610298816101be565b915082820484148315176102af576102ae610248565b5b5092915050565b7f4e487b71000000000000000000000000000000000000000000000000000000005f52601260045260245ffd5b5f6102ed826101be565b91506102f8836101be565b925082610308576103076102b6565b5b828204905092915050565b5f61031d826101be565b9150610328836101be565b92508282019050808211156103405761033f610248565b5b92915050565b5f610350826101be565b915061035b836101be565b925082820390508181111561037357610372610248565b5b9291505056fea26469706673582212209958f6cc291b6e1d20ea2528a50430e6c49c0581d9cad153025997e22c5b0e9a64736f6c63430008160033",
					"opcodes": "PUSH1 0x80 PUSH1 0x40 MSTORE CALLVALUE DUP1 ISZERO PUSH2 0xF JUMPI PUSH0 DUP1 REVERT JUMPDEST POP PUSH1 0x40 MLOAD PUSH2 0x4AC CODESIZE SUB DUP1 PUSH2 0x4AC DUP4 CODECOPY DUP2 DUP2 ADD PUSH1 0x40 MSTORE DUP2 ADD SWAP1 PUSH2 0x31 SWAP2 SWAP1 PUSH2 0x8C JUMP JUMPDEST DUP4 PUSH0 DUP2 SWAP1 SSTORE POP DUP3 PUSH1 0x1 DUP2 SWAP1 SSTORE POP DUP2 PUSH1 0x2 DUP2 SWAP1 SSTORE POP DUP1 PUSH1 0x3 DUP2 SWAP1 SSTORE POP POP POP POP POP PUSH2 0xF0 JUMP JUMPDEST PUSH0 DUP1 REVERT JUMPDEST PUSH0 DUP2 SWAP1 POP SWAP2 SWAP1 POP JUMP JUMPDEST PUSH2 0x6B DUP2 PUSH2 0x59 JUMP JUMPDEST DUP2 EQ PUSH2 0x75 JUMPI PUSH0 DUP1 REVERT JUMPDEST POP JUMP JUMPDEST PUSH0 DUP2 MLOAD SWAP1 POP PUSH2 0x86 DUP2 PUSH2 0x62 JUMP JUMPDEST SWAP3 SWAP2 POP POP JUMP JUMPDEST PUSH0 DUP1 PUSH0 DUP1 PUSH1 0x80 DUP6 DUP8 SUB SLT ISZERO PUSH2 0xA4 JUMPI PUSH2 0xA3 PUSH2 0x55 JUMP JUMPDEST JUMPDEST PUSH0 PUSH2 0xB1 DUP8 DUP3 DUP9 ADD PUSH2 0x78 JUMP JUMPDEST SWAP5 POP POP PUSH1 0x20 PUSH2 0xC2 DUP8 DUP3 DUP9 ADD PUSH2 0x78 JUMP JUMPDEST SWAP4 POP POP PUSH1 0x40 PUSH2 0xD3 DUP8 DUP3 DUP9 ADD PUSH2 0x78 JUMP JUMPDEST SWAP3 POP POP PUSH1 0x60 PUSH2 0xE4 DUP8 DUP3 DUP9 ADD PUSH2 0x78 JUMP JUMPDEST SWAP2 POP POP SWAP3 SWAP6 SWAP2 SWAP5 POP SWAP3 POP JUMP JUMPDEST PUSH2 0x3AF DUP1 PUSH2 0xFD PUSH0 CODECOPY PUSH0 RETURN INVALID PUSH1 0x80 PUSH1 0x40 MSTORE CALLVALUE DUP1 ISZERO PUSH2 0xF JUMPI PUSH0 DUP1 REVERT JUMPDEST POP PUSH1 0x4 CALLDATASIZE LT PUSH2 0x55 JUMPI PUSH0 CALLDATALOAD PUSH1 0xE0 SHR DUP1 PUSH4 0x41BAC600 EQ PUSH2 0x59 JUMPI DUP1 PUSH4 0x9FA83B5A EQ PUSH2 0x77 JUMPI DUP1 PUSH4 0xDE3F9485 EQ PUSH2 0xA7 JUMPI DUP1 PUSH4 0xF1B820D5 EQ PUSH2 0xC5 JUMPI DUP1 PUSH4 0xFD2DA339 EQ PUSH2 0xE3 JUMPI JUMPDEST PUSH0 DUP1 REVERT JUMPDEST PUSH2 0x61 PUSH2 0x101 JUMP JUMPDEST PUSH1 0x40 MLOAD PUSH2 0x6E SWAP2 SWAP1 PUSH2 0x1D6 JUMP JUMPDEST PUSH1 0x40 MLOAD DUP1 SWAP2 SUB SWAP1 RETURN JUMPDEST PUSH2 0x91 PUSH1 0x4 DUP1 CALLDATASIZE SUB DUP2 ADD SWAP1 PUSH2 0x8C SWAP2 SWAP1 PUSH2 0x21D JUMP JUMPDEST PUSH2 0x107 JUMP JUMPDEST PUSH1 0x40 MLOAD PUSH2 0x9E SWAP2 SWAP1 PUSH2 0x1D6 JUMP JUMPDEST PUSH1 0x40 MLOAD DUP1 SWAP2 SUB SWAP1 RETURN JUMPDEST PUSH2 0xAF PUSH2 0x1AD JUMP JUMPDEST PUSH1 0x40 MLOAD PUSH2 0xBC SWAP2 SWAP1 PUSH2 0x1D6 JUMP JUMPDEST PUSH1 0x40 MLOAD DUP1 SWAP2 SUB SWAP1 RETURN JUMPDEST PUSH2 0xCD PUSH2 0x1B2 JUMP JUMPDEST PUSH1 0x40 MLOAD PUSH2 0xDA SWAP2 SWAP1 PUSH2 0x1D6 JUMP JUMPDEST PUSH1 0x40 MLOAD DUP1 SWAP2 SUB SWAP1 RETURN JUMPDEST PUSH2 0xEB PUSH2 0x1B8 JUMP JUMPDEST PUSH1 0x40 MLOAD PUSH2 0xF8 SWAP2 SWAP1 PUSH2 0x1D6 JUMP JUMPDEST PUSH1 0x40 MLOAD DUP1 SWAP2 SUB SWAP1 RETURN JUMPDEST PUSH1 0x2 SLOAD DUP2 JUMP JUMPDEST PUSH0 PUSH1 0x3 SLOAD DUP3 LT ISZERO PUSH2 0x140 JUMPI PUSH2 0x2710 PUSH1 0x1 SLOAD DUP4 PUSH2 0x123 SWAP2 SWAP1 PUSH2 0x275 JUMP JUMPDEST PUSH2 0x12D SWAP2 SWAP1 PUSH2 0x2E3 JUMP JUMPDEST PUSH0 SLOAD PUSH2 0x139 SWAP2 SWAP1 PUSH2 0x313 JUMP JUMPDEST SWAP1 POP PUSH2 0x1A8 JUMP JUMPDEST PUSH0 PUSH2 0x2710 PUSH1 0x1 SLOAD PUSH1 0x3 SLOAD PUSH2 0x154 SWAP2 SWAP1 PUSH2 0x275 JUMP JUMPDEST PUSH2 0x15E SWAP2 SWAP1 PUSH2 0x2E3 JUMP JUMPDEST PUSH0 SLOAD PUSH2 0x16A SWAP2 SWAP1 PUSH2 0x313 JUMP JUMPDEST SWAP1 POP PUSH0 PUSH1 0x3 SLOAD DUP5 PUSH2 0x17B SWAP2 SWAP1 PUSH2 0x346 JUMP JUMPDEST SWAP1 POP PUSH2 0x2710 PUSH1 0x2 SLOAD DUP3 PUSH2 0x18E SWAP2 SWAP1 PUSH2 0x275 JUMP JUMPDEST PUSH2 0x198 SWAP2 SWAP1 PUSH2 0x2E3 JUMP JUMPDEST DUP3 PUSH2 0x1A3 SWAP2 SWAP1 PUSH2 0x313 JUMP JUMPDEST SWAP3 POP POP POP JUMPDEST SWAP2 SWAP1 POP JUMP JUMPDEST PUSH0 SLOAD DUP2 JUMP JUMPDEST PUSH1 0x1 SLOAD DUP2 JUMP JUMPDEST PUSH1 0x3 SLOAD DUP2 JUMP JUMPDEST PUSH0 DUP2 SWAP1 POP SWAP2 SWAP1 POP JUMP JUMPDEST PUSH2 0x1D0 DUP2 PUSH2 0x1BE JUMP JUMPDEST DUP3 MSTORE POP POP JUMP JUMPDEST PUSH0 PUSH1 0x20 DUP3 ADD SWAP1 POP PUSH2 0x1E9 PUSH0 DUP4 ADD DUP5 PUSH2 0x1C7 JUMP JUMPDEST SWAP3 SWAP2 POP POP JUMP JUMPDEST PUSH0 DUP1 REVERT JUMPDEST PUSH2 0x1FC DUP2 PUSH2 0x1BE JUMP JUMPDEST DUP2 EQ PUSH2 0x206 JUMPI PUSH0 DUP1 REVERT JUMPDEST POP JUMP JUMPDEST PUSH0 DUP2 CALLDATALOAD SWAP1 POP PUSH2 0x217 DUP2 PUSH2 0x1F3 JUMP JUMPDEST SWAP3 SWAP2 POP POP JUMP JUMPDEST PUSH0 PUSH1 0x20 DUP3 DUP5 SUB SLT ISZERO PUSH2 0x232 JUMPI PUSH2 0x231 PUSH2 0x1EF JUMP JUMPDEST JUMPDEST PUSH0 PUSH2 0x23F DUP5 DUP3 DUP6 ADD PUSH2 0x209 JUMP JUMPDEST SWAP2 POP POP SWAP3 SWAP2 POP POP JUMP JUMPDEST PUSH32 0x4E487B7100000000000000000000000000000000000000000000000000000000 PUSH0 MSTORE PUSH1 0x11 PUSH1 0x4 MSTORE PUSH1 0x24 PUSH0 REVERT JUMPDEST PUSH0 PUSH2 0x27F DUP3 PUSH2 0x1BE JUMP JUMPDEST SWAP2 POP PUSH2 0x28A DUP4 PUSH2 0x1BE JUMP JUMPDEST SWAP3 POP DUP3 DUP3 MUL PUSH2 0x298 DUP2 PUSH2 0x1BE JUMP JUMPDEST SWAP2 POP DUP3 DUP3 DIV DUP5 EQ DUP4 ISZERO OR PUSH2 0x2AF JUMPI PUSH2 0x2AE PUSH2 0x248 JUMP JUMPDEST JUMPDEST POP SWAP3 SWAP2 POP POP JUMP JUMPDEST PUSH32 0x4E487B7100000000000000000000000000000000000000000000000000000000 PUSH0 MSTORE PUSH1 0x12 PUSH1 0x4 MSTORE PUSH1 0x24 PUSH0 REVERT JUMPDEST PUSH0 PUSH2 0x2ED DUP3 PUSH2 0x1BE JUMP JUMPDEST SWAP2 POP PUSH2 0x2F8 DUP4 PUSH2 0x1BE JUMP JUMPDEST SWAP3 POP DUP3 PUSH2 0x308 JUMPI PUSH2 0x307 PUSH2 0x2B6 JUMP JUMPDEST JUMPDEST DUP3 DUP3 DIV SWAP1 POP SWAP3 SWAP2 POP POP JUMP JUMPDEST PUSH0 PUSH2 0x31D DUP3 PUSH2 0x1BE JUMP JUMPDEST SWAP2 POP PUSH2 0x328 DUP4 PUSH2 0x1BE JUMP JUMPDEST SWAP3 POP DUP3 DUP3 ADD SWAP1 POP DUP1 DUP3 GT ISZERO PUSH2 0x340 JUMPI PUSH2 0x33F PUSH2 0x248 JUMP JUMPDEST JUMPDEST SWAP3 SWAP2 POP POP JUMP JUMPDEST PUSH0 PUSH2 0x350 DUP3 PUSH2 0x1BE JUMP JUMPDEST SWAP2 POP PUSH2 0x35B DUP4 PUSH2 0x1BE JUMP JUMPDEST SWAP3 POP DUP3 DUP3 SUB SWAP1 POP DUP2 DUP2 GT ISZERO PUSH2 0x373 JUMPI PUSH2 0x372 PUSH2 0x248 JUMP JUMPDEST JUMPDEST SWAP3 SWAP2 POP POP JUMP INVALID LOG2 PUSH5 0x6970667358 0x22 SLT KECCAK256 SWAP10 PC 0xF6 0xCC 0x29 SHL PUSH15 0x1D20EA2528A50430E6C49C0581D9CA 0xD1 MSTORE8 MUL MSIZE SWAP8 0xE2 0x2C JUMPDEST 0xE SWAP11 PUSH5 0x736F6C6343 STOP ADDMOD AND STOP CALLER "
				},
				"gasEstimates": {
					"creation": {
						"codeDepositCost": "188600",
						"executionCost": "infinite",
						"totalCost": "infinite"
					},
					"external": {
						"baseRatePerYear()": "2446",
						"getBorrowRate(uint256)": "infinite",
						"jumpMultiplierPerYear()": "2403",
						"kink()": "2491",
						"multiplierPerYear()": "2469"
					}
				},
				"methodIdentifiers": {
					"baseRatePerYear()": "de3f9485",
					"getBorrowRate(uint256)": "9fa83b5a",
					"jumpMultiplierPerYear()": "41bac600",
					"kink()": "fd2da339",
					"multiplierPerYear()": "f1b820d5"
				}
			},
			"storageLayout": {
				"storage": [
					{
						"astId": 1017,
						"contract": "contracts/InterestRateModel.sol:InterestRateModel",
						"label": "baseRatePerYear",
						"offset": 0,
						"slot": "0",
						"type": "t_uint256"
					},
					{
						"astId": 1019,
						"contract": "contracts/InterestRateModel.sol:InterestRateModel",
						"label": "multiplierPerYear",
						"offset": 0,
						"slot": "1",
						"type": "t_uint256"
					},
					{
						"astId": 1021,
						"contract": "contracts/InterestRateModel.sol:InterestRateModel",
						"label": "jumpMultiplierPerYear",
						"offset": 0,
						"slot": "2",
						"type": "t_uint256"
					},
					{
						"astId": 1023,
						"contract": "contracts/InterestRateModel.sol:InterestRateModel",
						"label": "kink",
						"offset": 0,
						"slot": "3",
						"type": "t_uint256"
					}
				],
				"types": {
					"t_uint256": {
						"encoding": "inplace",
						"label": "uint256",
						"numberOfBytes": "32"
					}
				}
			},
			"userdoc": {
				"kind": "user",
				"methods": {},
				"version": 1
			}
		}
	}
}