{
  "contractName": "CollateralManager",
  "abi": [
    {
      "inputs": [
        {
          "internalType": "uint256",
          "name": "_collateralRatioThreshold",
          "type": "uint256"
        }
      ],
      "stateMutability": "nonpayable",
      "type": "constructor"
    },
    {
      "inputs": [],
      "name": "collateralRatioThreshold",
      "outputs": [
        {
          "internalType": "uint256",
          "name": "",
          "type": "uint256"
        }
      ],
      "stateMutability": "view",
      "type": "function"
    },
    {
      "inputs": [
        {
          "internalType": "address",
          "name": "",
          "type": "address"
        },
        {
          "internalType": "address",
          "name": "",
          "type": "address"
        }
      ],
      "name": "positions",
      "outputs": [
        {
          "internalType": "uint256",
          "name": "collateralAmount",
          "type": "uint256"
        },
        {
          "internalType": "uint256",
          "name": "borrowedAmount",
          "type": "uint256"
        }
      ],
      "stateMutability": "view",
      "type": "function"
    },
    {
      "inputs": [
        {
          "internalType": "address",
          "name": "token",
          "type": "address"
        },
        {
          "internalType": "uint256",
          "name": "amount",
          "type": "uint256"
        }
      ],
      "name": "depositCollateral",
      "outputs": [],
      "stateMutability": "nonpayable",
      "type": "function"
    },
    {
      "inputs": [
        {
          "internalType": "address",
          "name": "token",
          "type": "address"
        },
        {
          "internalType": "uint256",
          "name": "amount",
          "type": "uint256"
        }
      ],
      "name": "withdrawCollateral",
      "outputs": [],
      "stateMutability": "nonpayable",
      "type": "function"
    },
    {
      "inputs": [
        {
          "internalType": "address",
          "name": "user",
          "type": "address"
        },
        {
          "internalType": "address",
          "name": "token",
          "type": "address"
        }
      ],
      "name": "calculateCollateralRatio",
      "outputs": [
        {
          "internalType": "uint256",
          "name": "",
          "type": "uint256"
        }
      ],
      "stateMutability": "view",
      "type": "function"
    },
    {
      "inputs": [
        {
          "internalType": "address",
          "name": "user",
          "type": "address"
        },
        {
          "internalType": "address",
          "name": "token",
          "type": "address"
        }
      ],
      "name": "isCollateralSufficient",
      "outputs": [
        {
          "internalType": "bool",
          "name": "",
          "type": "bool"
        }
      ],
      "stateMutability": "view",
      "type": "function"
    }
  ],
  "bytecode": "0x608060405234801561000f575f80fd5b5060405161050d38038061050d83398101604081905261002e91610036565b60015561004d565b5f60208284031215610046575f80fd5b5051919050565b6104b38061005a5f395ff3fe608060405234801561000f575f80fd5b5060043610610060575f3560e01c8063350c35e9146100645780634bd214451461007957806357867077146100c157806372930811146100e45780637852de03146100fb578063a5d5db0c1461010e575b5f80fd5b610077610072366004610395565b610121565b005b6100a76100873660046103bd565b5f6020818152928152604080822090935290815220805460019091015482565b604080519283526020830191909152015b60405180910390f35b6100d46100cf3660046103bd565b61023d565b60405190151581526020016100b8565b6100ed60015481565b6040519081526020016100b8565b6100ed6101093660046103bd565b610258565b61007761011c366004610395565b6102d5565b335f908152602081815260408083206001600160a01b03861684529091529020548111156101955760405162461bcd60e51b815260206004820152601760248201527f496e73756666696369656e7420636f6c6c61746572616c000000000000000000604482015260640160405180910390fd5b60405163a9059cbb60e01b8152336004820152602481018290526001600160a01b0383169063a9059cbb906044016020604051808303815f875af11580156101df573d5f803e3d5ffd5b505050506040513d601f19601f8201168201806040525081019061020391906103ee565b50335f908152602081815260408083206001600160a01b038616845290915281208054839290610234908490610421565b90915550505050565b5f806102498484610258565b60015411159150505b92915050565b6001600160a01b038083165f90815260208181526040808320938516835292905290812060010154810361028f5750612710610252565b6001600160a01b038381165f90815260208181526040808320938616835292905220600181015490546102c490612710610434565b6102ce919061044b565b9392505050565b6040516323b872dd60e01b8152336004820152306024820152604481018290526001600160a01b038316906323b872dd906064016020604051808303815f875af1158015610325573d5f803e3d5ffd5b505050506040513d601f19601f8201168201806040525081019061034991906103ee565b50335f908152602081815260408083206001600160a01b03861684529091528120805483929061023490849061046a565b80356001600160a01b0381168114610390575f80fd5b919050565b5f80604083850312156103a6575f80fd5b6103af8361037a565b946020939093013593505050565b5f80604083850312156103ce575f80fd5b6103d78361037a565b91506103e56020840161037a565b90509250929050565b5f602082840312156103fe575f80fd5b815180151581146102ce575f80fd5b634e487b7160e01b5f52601160045260245ffd5b818103818111156102525761025261040d565b80820281158282048414176102525761025261040d565b5f8261046557634e487b7160e01b5f52601260045260245ffd5b500490565b808201808211156102525761025261040d56fea26469706673582212200ea5cbe1be6ac283e19ce011f76413640acaa303f7781aadda3d0847cd70c09e64736f6c63430008180033",
  "immutableReferences": {},
  "source": "// SPDX-License-Identifier: MIT\npragma solidity ^0.8.0;\n\nimport \"@openzeppelin/contracts/token/ERC20/IERC20.sol\";\n\ncontract CollateralManager {\n    struct Position {\n        uint256 collateralAmount;\n        uint256 borrowedAmount;\n    }\n\n    mapping(address => mapping(address => Position)) public positions; // userAddress => tokenAddress => Position\n\n    uint256 public collateralRatioThreshold; // Collateral ratio threshold (in basis points)\n\n    constructor(uint256 _collateralRatioThreshold) {\n        collateralRatioThreshold = _collateralRatioThreshold;\n    }\n\n    function depositCollateral(address token, uint256 amount) external {\n        // Transfer collateral from user to contract\n        IERC20(token).transferFrom(msg.sender, address(this), amount);\n\n        // Update user's position\n        positions[msg.sender][token].collateralAmount += amount;\n    }\n\n    function withdrawCollateral(address token, uint256 amount) external {\n        // Ensure user has enough collateral\n        require(positions[msg.sender][token].collateralAmount >= amount, \"Insufficient collateral\");\n\n        // Transfer collateral from contract to user\n        IERC20(token).transfer(msg.sender, amount);\n\n        // Update user's position\n        positions[msg.sender][token].collateralAmount -= amount;\n    }\n\n    function calculateCollateralRatio(address user, address token) public view returns (uint256) {\n        if (positions[user][token].borrowedAmount == 0) {\n            return 1e4; // 100% collateral ratio if no borrowed amount\n        }\n        return positions[user][token].collateralAmount * 1e4 / positions[user][token].borrowedAmount;\n    }\n\n    function isCollateralSufficient(address user, address token) external view returns (bool) {\n        uint256 collateralRatio = calculateCollateralRatio(user, token);\n        return collateralRatio >= collateralRatioThreshold;\n    }\n}\n",
  "sourcePath": "/home/lothbrok/Documents/projects/DeFi/contracts/CollateralManager.sol",
  "compiler": {
    "name": "solc",
    "version": "0.8.24+commit.e11b9ed9.Emscripten.clang"
  },
  "schemaVersion": "3.4.16",
  "updatedAt": "2024-03-09T08:36:12.742Z",
  "devdoc": {
    "kind": "dev",
    "methods": {},
    "version": 1
  },
  "userdoc": {
    "kind": "user",
    "methods": {},
    "version": 1
  }
}