{
  "contractName": "InterestRateModel",
  "abi": [
    {
      "inputs": [
        {
          "internalType": "uint256",
          "name": "_baseRatePerYear",
          "type": "uint256"
        },
        {
          "internalType": "uint256",
          "name": "_multiplierPerYear",
          "type": "uint256"
        },
        {
          "internalType": "uint256",
          "name": "_jumpMultiplierPerYear",
          "type": "uint256"
        },
        {
          "internalType": "uint256",
          "name": "_kink",
          "type": "uint256"
        }
      ],
      "stateMutability": "nonpayable",
      "type": "constructor"
    },
    {
      "inputs": [],
      "name": "baseRatePerYear",
      "outputs": [
        {
          "internalType": "uint256",
          "name": "",
          "type": "uint256"
        }
      ],
      "stateMutability": "view",
      "type": "function",
      "constant": true
    },
    {
      "inputs": [],
      "name": "jumpMultiplierPerYear",
      "outputs": [
        {
          "internalType": "uint256",
          "name": "",
          "type": "uint256"
        }
      ],
      "stateMutability": "view",
      "type": "function",
      "constant": true
    },
    {
      "inputs": [],
      "name": "kink",
      "outputs": [
        {
          "internalType": "uint256",
          "name": "",
          "type": "uint256"
        }
      ],
      "stateMutability": "view",
      "type": "function",
      "constant": true
    },
    {
      "inputs": [],
      "name": "multiplierPerYear",
      "outputs": [
        {
          "internalType": "uint256",
          "name": "",
          "type": "uint256"
        }
      ],
      "stateMutability": "view",
      "type": "function",
      "constant": true
    },
    {
      "inputs": [
        {
          "internalType": "uint256",
          "name": "utilizationRate",
          "type": "uint256"
        }
      ],
      "name": "getBorrowRate",
      "outputs": [
        {
          "internalType": "uint256",
          "name": "",
          "type": "uint256"
        }
      ],
      "stateMutability": "view",
      "type": "function",
      "constant": true
    }
  ],
  "bytecode": "0x608060405234801561001057600080fd5b506040516102ac3803806102ac83398101604081905261002f91610046565b60009390935560019190915560025560035561007c565b6000806000806080858703121561005c57600080fd5b505082516020840151604085015160609095015191969095509092509050565b6102218061008b6000396000f3fe608060405234801561001057600080fd5b50600436106100575760003560e01c806341bac6001461005c5780639fa83b5a14610077578063de3f94851461008a578063f1b820d514610093578063fd2da3391461009c575b600080fd5b61006560025481565b60405190815260200160405180910390f35b61006561008536600461014c565b6100a5565b61006560005481565b61006560015481565b61006560035481565b60006003548210156100df57612710600154836100c2919061017b565b6100cc919061019a565b6000546100d991906101bc565b92915050565b60006127106001546003546100f4919061017b565b6100fe919061019a565b60005461010b91906101bc565b905060006003548461011d91906101d4565b905061271060025482610130919061017b565b61013a919061019a565b61014490836101bc565b949350505050565b60006020828403121561015e57600080fd5b5035919050565b634e487b7160e01b600052601160045260246000fd5b600081600019048311821515161561019557610195610165565b500290565b6000826101b757634e487b7160e01b600052601260045260246000fd5b500490565b600082198211156101cf576101cf610165565b500190565b6000828210156101e6576101e6610165565b50039056fea26469706673582212202b4ef7732bd6d7967eae69c62f549dc1b93d9d533b01dd71e97e6fc7c476be1364736f6c634300080d0033",
  "immutableReferences": {},
  "source": "// SPDX-License-Identifier: MIT\npragma solidity ^0.8.13;\n\ncontract InterestRateModel {\n    uint256 public baseRatePerYear; // Base interest rate per year (in basis points)\n    uint256 public multiplierPerYear; // Multiplier per year (in basis points)\n    uint256 public jumpMultiplierPerYear; // Jump multiplier per year (in basis points)\n    uint256 public kink; // Utilization ratio at which the jump multiplier is applied (in basis points)\n\n    constructor(\n        uint256 _baseRatePerYear,\n        uint256 _multiplierPerYear,\n        uint256 _jumpMultiplierPerYear,\n        uint256 _kink\n    ) {\n        baseRatePerYear = _baseRatePerYear;\n        multiplierPerYear = _multiplierPerYear;\n        jumpMultiplierPerYear = _jumpMultiplierPerYear;\n        kink = _kink;\n    }\n\n    function getBorrowRate(uint256 utilizationRate) external view returns (uint256) { \n        if (utilizationRate < kink) {\n            return baseRatePerYear + utilizationRate * multiplierPerYear / 1e4;\n        } else {\n            uint256 normalRate = baseRatePerYear + kink * multiplierPerYear / 1e4;\n            uint256 excessUtilizationRate = utilizationRate - kink;\n            return normalRate + excessUtilizationRate * jumpMultiplierPerYear / 1e4;\n        }\n    }\n}\n",
  "sourcePath": "/home/lothbrok/Documents/projects/DeFi/contracts/InterestRateModel.sol",
  "compiler": {
    "name": "solc",
    "version": "0.8.13+commit.abaa5c0e.Emscripten.clang"
  },
  "schemaVersion": "3.4.16",
  "updatedAt": "2024-03-10T05:54:02.398Z",
  "networkType": "ethereum",
  "devdoc": {
    "kind": "dev",
    "methods": {},
    "version": 1
  },
  "userdoc": {
    "kind": "user",
    "methods": {},
    "version": 1
  }
}