{
  "contractName": "LendingPool",
  "abi": [
    {
      "inputs": [
        {
          "internalType": "contract ERC20Token",
          "name": "_assetToken",
          "type": "address"
        },
        {
          "internalType": "contract InterestRateModel",
          "name": "_interestRateModel",
          "type": "address"
        },
        {
          "internalType": "contract CollateralManager",
          "name": "_collateralManager",
          "type": "address"
        },
        {
          "internalType": "contract LiquidationManager",
          "name": "_liquidationManager",
          "type": "address"
        }
      ],
      "stateMutability": "nonpayable",
      "type": "constructor"
    },
    {
      "inputs": [],
      "name": "assetToken",
      "outputs": [
        {
          "internalType": "contract ERC20Token",
          "name": "",
          "type": "address"
        }
      ],
      "stateMutability": "view",
      "type": "function"
    },
    {
      "inputs": [
        {
          "internalType": "address",
          "name": "",
          "type": "address"
        }
      ],
      "name": "borrowerDebt",
      "outputs": [
        {
          "internalType": "uint256",
          "name": "",
          "type": "uint256"
        }
      ],
      "stateMutability": "view",
      "type": "function"
    },
    {
      "inputs": [],
      "name": "collateralManager",
      "outputs": [
        {
          "internalType": "contract CollateralManager",
          "name": "",
          "type": "address"
        }
      ],
      "stateMutability": "view",
      "type": "function"
    },
    {
      "inputs": [],
      "name": "interestRateModel",
      "outputs": [
        {
          "internalType": "contract InterestRateModel",
          "name": "",
          "type": "address"
        }
      ],
      "stateMutability": "view",
      "type": "function"
    },
    {
      "inputs": [
        {
          "internalType": "address",
          "name": "",
          "type": "address"
        }
      ],
      "name": "lenderBalance",
      "outputs": [
        {
          "internalType": "uint256",
          "name": "",
          "type": "uint256"
        }
      ],
      "stateMutability": "view",
      "type": "function"
    },
    {
      "inputs": [],
      "name": "liquidationManager",
      "outputs": [
        {
          "internalType": "contract LiquidationManager",
          "name": "",
          "type": "address"
        }
      ],
      "stateMutability": "view",
      "type": "function"
    },
    {
      "inputs": [
        {
          "internalType": "uint256",
          "name": "amount",
          "type": "uint256"
        }
      ],
      "name": "deposit",
      "outputs": [],
      "stateMutability": "nonpayable",
      "type": "function"
    },
    {
      "inputs": [
        {
          "internalType": "uint256",
          "name": "amount",
          "type": "uint256"
        }
      ],
      "name": "withdraw",
      "outputs": [],
      "stateMutability": "nonpayable",
      "type": "function"
    },
    {
      "inputs": [
        {
          "internalType": "uint256",
          "name": "amount",
          "type": "uint256"
        }
      ],
      "name": "borrow",
      "outputs": [],
      "stateMutability": "nonpayable",
      "type": "function"
    },
    {
      "inputs": [
        {
          "internalType": "uint256",
          "name": "amount",
          "type": "uint256"
        }
      ],
      "name": "repay",
      "outputs": [],
      "stateMutability": "nonpayable",
      "type": "function"
    },
    {
      "inputs": [
        {
          "internalType": "address",
          "name": "borrower",
          "type": "address"
        }
      ],
      "name": "liquidate",
      "outputs": [],
      "stateMutability": "nonpayable",
      "type": "function"
    },
    {
      "inputs": [
        {
          "internalType": "uint256",
          "name": "utilizationRate",
          "type": "uint256"
        }
      ],
      "name": "calculateBorrowRate",
      "outputs": [
        {
          "internalType": "uint256",
          "name": "",
          "type": "uint256"
        }
      ],
      "stateMutability": "view",
      "type": "function"
    },
    {
      "inputs": [],
      "name": "getUtilizationRate",
      "outputs": [
        {
          "internalType": "uint256",
          "name": "",
          "type": "uint256"
        }
      ],
      "stateMutability": "view",
      "type": "function"
    },
    {
      "inputs": [],
      "name": "totalSupplied",
      "outputs": [
        {
          "internalType": "uint256",
          "name": "",
          "type": "uint256"
        }
      ],
      "stateMutability": "view",
      "type": "function"
    },
    {
      "inputs": [],
      "name": "totalBorrowed",
      "outputs": [
        {
          "internalType": "uint256",
          "name": "",
          "type": "uint256"
        }
      ],
      "stateMutability": "view",
      "type": "function"
    }
  ],
  "bytecode": "0x608060405234801562000010575f80fd5b5060405162001a5b38038062001a5b83398181016040528101906200003691906200027d565b835f806101000a81548173ffffffffffffffffffffffffffffffffffffffff021916908373ffffffffffffffffffffffffffffffffffffffff1602179055508260015f6101000a81548173ffffffffffffffffffffffffffffffffffffffff021916908373ffffffffffffffffffffffffffffffffffffffff1602179055508160025f6101000a81548173ffffffffffffffffffffffffffffffffffffffff021916908373ffffffffffffffffffffffffffffffffffffffff1602179055508060035f6101000a81548173ffffffffffffffffffffffffffffffffffffffff021916908373ffffffffffffffffffffffffffffffffffffffff16021790555050505050620002ec565b5f80fd5b5f73ffffffffffffffffffffffffffffffffffffffff82169050919050565b5f6200016e8262000143565b9050919050565b5f620001818262000162565b9050919050565b620001938162000175565b81146200019e575f80fd5b50565b5f81519050620001b18162000188565b92915050565b5f620001c38262000162565b9050919050565b620001d581620001b7565b8114620001e0575f80fd5b50565b5f81519050620001f381620001ca565b92915050565b5f620002058262000162565b9050919050565b6200021781620001f9565b811462000222575f80fd5b50565b5f8151905062000235816200020c565b92915050565b5f620002478262000162565b9050919050565b62000259816200023b565b811462000264575f80fd5b50565b5f8151905062000277816200024e565b92915050565b5f805f80608085870312156200029857620002976200013f565b5b5f620002a787828801620001a1565b9450506020620002ba87828801620001e3565b9350506040620002cd8782880162000225565b9250506060620002e08782880162000267565b91505092959194509250565b61176180620002fa5f395ff3fe608060405234801561000f575f80fd5b50600436106100f3575f3560e01c80633add60ab11610095578063b6b55f2511610064578063b6b55f251461025f578063c5ebeaec1461027b578063e0bf211714610297578063f3fdb15a146102c7576100f3565b80633add60ab146101d55780634a417a53146102055780634c19386c14610223578063630fd0ac14610241576100f3565b8063275972ca116100d1578063275972ca146101515780632e1a7d4d146101815780632f8655681461019d578063371fd8e6146101b9576100f3565b80631083f761146100f75780631ef3a04c1461011557806323be345c14610133575b5f80fd5b6100ff6102e5565b60405161010c91906110be565b60405180910390f35b61011d610308565b60405161012a91906110f7565b60405180910390f35b61013b61032d565b6040516101489190611130565b60405180910390f35b61016b60048036038101906101669190611188565b610352565b60405161017891906111cb565b60405180910390f35b61019b6004803603810190610196919061120e565b610367565b005b6101b760048036038101906101b29190611188565b6104d8565b005b6101d360048036038101906101ce919061120e565b61084d565b005b6101ef60048036038101906101ea9190611188565b6109c0565b6040516101fc91906111cb565b60405180910390f35b61020d6109d5565b60405161021a91906111cb565b60405180910390f35b61022b610a02565b60405161023891906111cb565b60405180910390f35b610249610ab2565b60405161025691906111cb565b60405180910390f35b6102796004803603810190610274919061120e565b610b50565b005b6102956004803603810190610290919061120e565b610c43565b005b6102b160048036038101906102ac919061120e565b610f7e565b6040516102be91906111cb565b60405180910390f35b6102cf61101f565b6040516102dc9190611259565b60405180910390f35b5f8054906101000a900473ffffffffffffffffffffffffffffffffffffffff1681565b60035f9054906101000a900473ffffffffffffffffffffffffffffffffffffffff1681565b60025f9054906101000a900473ffffffffffffffffffffffffffffffffffffffff1681565b6005602052805f5260405f205f915090505481565b8060055f3373ffffffffffffffffffffffffffffffffffffffff1673ffffffffffffffffffffffffffffffffffffffff1681526020019081526020015f205410156103e7576040517f08c379a00000000000000000000000000000000000000000000000000000000081526004016103de906112cc565b60405180910390fd5b8060055f3373ffffffffffffffffffffffffffffffffffffffff1673ffffffffffffffffffffffffffffffffffffffff1681526020019081526020015f205f8282546104339190611317565b925050819055505f8054906101000a900473ffffffffffffffffffffffffffffffffffffffff1673ffffffffffffffffffffffffffffffffffffffff1663a9059cbb33836040518363ffffffff1660e01b8152600401610494929190611359565b6020604051808303815f875af11580156104b0573d5f803e3d5ffd5b505050506040513d601f19601f820116820180604052508101906104d491906113b5565b5050565b60025f9054906101000a900473ffffffffffffffffffffffffffffffffffffffff1673ffffffffffffffffffffffffffffffffffffffff166357867077825f8054906101000a900473ffffffffffffffffffffffffffffffffffffffff166040518363ffffffff1660e01b81526004016105539291906113e0565b602060405180830381865afa15801561056e573d5f803e3d5ffd5b505050506040513d601f19601f8201168201806040525081019061059291906113b5565b156105d2576040517f08c379a00000000000000000000000000000000000000000000000000000000081526004016105c990611477565b60405180910390fd5b5f60045f8373ffffffffffffffffffffffffffffffffffffffff1673ffffffffffffffffffffffffffffffffffffffff1681526020019081526020015f205490505f60035f9054906101000a900473ffffffffffffffffffffffffffffffffffffffff1673ffffffffffffffffffffffffffffffffffffffff16637b7c1f4c6040518163ffffffff1660e01b8152600401602060405180830381865afa15801561067e573d5f803e3d5ffd5b505050506040513d601f19601f820116820180604052508101906106a291906114a9565b90505f612710826127106106b691906114d4565b846106c19190611507565b6106cb9190611575565b90505f8054906101000a900473ffffffffffffffffffffffffffffffffffffffff1673ffffffffffffffffffffffffffffffffffffffff1663a9059cbb33836040518363ffffffff1660e01b8152600401610727929190611359565b6020604051808303815f875af1158015610743573d5f803e3d5ffd5b505050506040513d601f19601f8201168201806040525081019061076791906113b5565b505f8054906101000a900473ffffffffffffffffffffffffffffffffffffffff1673ffffffffffffffffffffffffffffffffffffffff166323b872dd3386866040518463ffffffff1660e01b81526004016107c4939291906115a5565b6020604051808303815f875af11580156107e0573d5f803e3d5ffd5b505050506040513d601f19601f8201168201806040525081019061080491906113b5565b505f60045f8673ffffffffffffffffffffffffffffffffffffffff1673ffffffffffffffffffffffffffffffffffffffff1681526020019081526020015f208190555050505050565b8060045f3373ffffffffffffffffffffffffffffffffffffffff1673ffffffffffffffffffffffffffffffffffffffff1681526020019081526020015f205410156108cd576040517f08c379a00000000000000000000000000000000000000000000000000000000081526004016108c490611624565b60405180910390fd5b5f8054906101000a900473ffffffffffffffffffffffffffffffffffffffff1673ffffffffffffffffffffffffffffffffffffffff166323b872dd3330846040518463ffffffff1660e01b8152600401610929939291906115a5565b6020604051808303815f875af1158015610945573d5f803e3d5ffd5b505050506040513d601f19601f8201168201806040525081019061096991906113b5565b508060045f3373ffffffffffffffffffffffffffffffffffffffff1673ffffffffffffffffffffffffffffffffffffffff1681526020019081526020015f205f8282546109b69190611317565b9250508190555050565b6004602052805f5260405f205f915090505481565b5f6109de610ab2565b6127106109e9610a02565b6109f39190611507565b6109fd9190611575565b905090565b5f805f9054906101000a900473ffffffffffffffffffffffffffffffffffffffff1673ffffffffffffffffffffffffffffffffffffffff166370a08231306040518263ffffffff1660e01b8152600401610a5c9190611642565b602060405180830381865afa158015610a77573d5f803e3d5ffd5b505050506040513d601f19601f82011682018060405250810190610a9b91906114a9565b610aa3610ab2565b610aad9190611317565b905090565b5f805f9054906101000a900473ffffffffffffffffffffffffffffffffffffffff1673ffffffffffffffffffffffffffffffffffffffff166370a08231306040518263ffffffff1660e01b8152600401610b0c9190611642565b602060405180830381865afa158015610b27573d5f803e3d5ffd5b505050506040513d601f19601f82011682018060405250810190610b4b91906114a9565b905090565b5f8054906101000a900473ffffffffffffffffffffffffffffffffffffffff1673ffffffffffffffffffffffffffffffffffffffff166323b872dd3330846040518463ffffffff1660e01b8152600401610bac939291906115a5565b6020604051808303815f875af1158015610bc8573d5f803e3d5ffd5b505050506040513d601f19601f82011682018060405250810190610bec91906113b5565b508060055f3373ffffffffffffffffffffffffffffffffffffffff1673ffffffffffffffffffffffffffffffffffffffff1681526020019081526020015f205f828254610c3991906114d4565b9250508190555050565b5f60015f9054906101000a900473ffffffffffffffffffffffffffffffffffffffff1673ffffffffffffffffffffffffffffffffffffffff16639fa83b5a610c896109d5565b6040518263ffffffff1660e01b8152600401610ca591906111cb565b602060405180830381865afa158015610cc0573d5f803e3d5ffd5b505050506040513d601f19601f82011682018060405250810190610ce491906114a9565b90505f6127108284610cf69190611507565b610d009190611575565b90505f8184610d0f91906114d4565b905060025f9054906101000a900473ffffffffffffffffffffffffffffffffffffffff1673ffffffffffffffffffffffffffffffffffffffff166357867077335f8054906101000a900473ffffffffffffffffffffffffffffffffffffffff166040518363ffffffff1660e01b8152600401610d8c9291906113e0565b602060405180830381865afa158015610da7573d5f803e3d5ffd5b505050506040513d601f19601f82011682018060405250810190610dcb91906113b5565b610e0a576040517f08c379a0000000000000000000000000000000000000000000000000000000008152600401610e01906116a5565b60405180910390fd5b8060055f3073ffffffffffffffffffffffffffffffffffffffff1673ffffffffffffffffffffffffffffffffffffffff1681526020019081526020015f20541015610e8a576040517f08c379a0000000000000000000000000000000000000000000000000000000008152600401610e819061170d565b60405180910390fd5b5f8054906101000a900473ffffffffffffffffffffffffffffffffffffffff1673ffffffffffffffffffffffffffffffffffffffff1663a9059cbb33866040518363ffffffff1660e01b8152600401610ee4929190611359565b6020604051808303815f875af1158015610f00573d5f803e3d5ffd5b505050506040513d601f19601f82011682018060405250810190610f2491906113b5565b508060045f3373ffffffffffffffffffffffffffffffffffffffff1673ffffffffffffffffffffffffffffffffffffffff1681526020019081526020015f205f828254610f7191906114d4565b9250508190555050505050565b5f60015f9054906101000a900473ffffffffffffffffffffffffffffffffffffffff1673ffffffffffffffffffffffffffffffffffffffff16639fa83b5a836040518263ffffffff1660e01b8152600401610fd991906111cb565b602060405180830381865afa158015610ff4573d5f803e3d5ffd5b505050506040513d601f19601f8201168201806040525081019061101891906114a9565b9050919050565b60015f9054906101000a900473ffffffffffffffffffffffffffffffffffffffff1681565b5f73ffffffffffffffffffffffffffffffffffffffff82169050919050565b5f819050919050565b5f61108661108161107c84611044565b611063565b611044565b9050919050565b5f6110978261106c565b9050919050565b5f6110a88261108d565b9050919050565b6110b88161109e565b82525050565b5f6020820190506110d15f8301846110af565b92915050565b5f6110e18261108d565b9050919050565b6110f1816110d7565b82525050565b5f60208201905061110a5f8301846110e8565b92915050565b5f61111a8261108d565b9050919050565b61112a81611110565b82525050565b5f6020820190506111435f830184611121565b92915050565b5f80fd5b5f61115782611044565b9050919050565b6111678161114d565b8114611171575f80fd5b50565b5f813590506111828161115e565b92915050565b5f6020828403121561119d5761119c611149565b5b5f6111aa84828501611174565b91505092915050565b5f819050919050565b6111c5816111b3565b82525050565b5f6020820190506111de5f8301846111bc565b92915050565b6111ed816111b3565b81146111f7575f80fd5b50565b5f81359050611208816111e4565b92915050565b5f6020828403121561122357611222611149565b5b5f611230848285016111fa565b91505092915050565b5f6112438261108d565b9050919050565b61125381611239565b82525050565b5f60208201905061126c5f83018461124a565b92915050565b5f82825260208201905092915050565b7f496e73756666696369656e742062616c616e63650000000000000000000000005f82015250565b5f6112b6601483611272565b91506112c182611282565b602082019050919050565b5f6020820190508181035f8301526112e3816112aa565b9050919050565b7f4e487b71000000000000000000000000000000000000000000000000000000005f52601160045260245ffd5b5f611321826111b3565b915061132c836111b3565b9250828203905081811115611344576113436112ea565b5b92915050565b6113538161114d565b82525050565b5f60408201905061136c5f83018561134a565b61137960208301846111bc565b9392505050565b5f8115159050919050565b61139481611380565b811461139e575f80fd5b50565b5f815190506113af8161138b565b92915050565b5f602082840312156113ca576113c9611149565b5b5f6113d7848285016113a1565b91505092915050565b5f6040820190506113f35f83018561134a565b611400602083018461134a565b9392505050565b7f426f72726f776572206973206e6f7420756e646572636f6c6c61746572616c695f8201527f7a65640000000000000000000000000000000000000000000000000000000000602082015250565b5f611461602383611272565b915061146c82611407565b604082019050919050565b5f6020820190508181035f83015261148e81611455565b9050919050565b5f815190506114a3816111e4565b92915050565b5f602082840312156114be576114bd611149565b5b5f6114cb84828501611495565b91505092915050565b5f6114de826111b3565b91506114e9836111b3565b9250828201905080821115611501576115006112ea565b5b92915050565b5f611511826111b3565b915061151c836111b3565b925082820261152a816111b3565b91508282048414831517611541576115406112ea565b5b5092915050565b7f4e487b71000000000000000000000000000000000000000000000000000000005f52601260045260245ffd5b5f61157f826111b3565b915061158a836111b3565b92508261159a57611599611548565b5b828204905092915050565b5f6060820190506115b85f83018661134a565b6115c5602083018561134a565b6115d260408301846111bc565b949350505050565b7f416d6f756e7420657863656564732064656274000000000000000000000000005f82015250565b5f61160e601383611272565b9150611619826115da565b602082019050919050565b5f6020820190508181035f83015261163b81611602565b9050919050565b5f6020820190506116555f83018461134a565b92915050565b7f496e73756666696369656e7420636f6c6c61746572616c0000000000000000005f82015250565b5f61168f601783611272565b915061169a8261165b565b602082019050919050565b5f6020820190508181035f8301526116bc81611683565b9050919050565b7f4e6f7420656e6f756768206c69717569646974790000000000000000000000005f82015250565b5f6116f7601483611272565b9150611702826116c3565b602082019050919050565b5f6020820190508181035f830152611724816116eb565b905091905056fea26469706673582212205df1cae395ad5427b4cdc95e34253a9783f3cb7d3a68166e857655f9bd3114d264736f6c63430008140033",
  "immutableReferences": {},
  "source": "// SPDX-License-Identifier: MIT\npragma solidity ^0.8.0;\n\nimport \"./ERC20Token.sol\";\nimport \"./InterestRateModel.sol\";\nimport \"./CollateralManager.sol\";\nimport \"./LiquidationManager.sol\";\nimport \"@openzeppelin/contracts/token/ERC20/IERC20.sol\";\n\ncontract LendingPool {\n    ERC20Token public assetToken;\n    InterestRateModel public interestRateModel;\n    CollateralManager public collateralManager;\n    LiquidationManager public liquidationManager;\n\n    mapping(address => uint256) public borrowerDebt; // borrower address => total borrowed amount\n    mapping(address => uint256) public lenderBalance; // lender address => total deposited amount\n\n    constructor(\n        ERC20Token _assetToken,\n        InterestRateModel _interestRateModel,\n        CollateralManager _collateralManager,\n        LiquidationManager _liquidationManager\n    ) {\n        assetToken = _assetToken;\n        interestRateModel = _interestRateModel;\n        collateralManager = _collateralManager;\n        liquidationManager = _liquidationManager;\n    }\n\n    function deposit(uint256 amount) external {\n        assetToken.transferFrom(msg.sender, address(this), amount);\n        lenderBalance[msg.sender] += amount;\n    }\n\n    function withdraw(uint256 amount) external {\n        require(lenderBalance[msg.sender] >= amount, \"Insufficient balance\");\n        lenderBalance[msg.sender] -= amount;\n        assetToken.transfer(msg.sender, amount);\n    }\n\n    function borrow(uint256 amount) external {\n        uint256 borrowRate = interestRateModel.getBorrowRate(getUtilizationRate());\n        uint256 interest = (amount * borrowRate) / 1e4;\n        uint256 totalAmount = amount + interest;\n\n        require(collateralManager.isCollateralSufficient(msg.sender, address(assetToken)), \"Insufficient collateral\");\n\n        // Ensure lender has enough balance\n        require(lenderBalance[address(this)] >= totalAmount, \"Not enough liquidity\");\n\n        // Transfer borrowed amount to borrower\n        assetToken.transfer(msg.sender, amount);\n\n        // Update borrower's debt\n        borrowerDebt[msg.sender] += totalAmount;\n    }\n\n    function repay(uint256 amount) external {\n        require(borrowerDebt[msg.sender] >= amount, \"Amount exceeds debt\");\n\n        // Transfer repaid amount from borrower to contract\n        assetToken.transferFrom(msg.sender, address(this), amount);\n\n        // Update borrower's debt\n        borrowerDebt[msg.sender] -= amount;\n    }\n\n    function liquidate(address borrower) external {\n        require(!collateralManager.isCollateralSufficient(borrower, address(assetToken)), \"Borrower is not undercollateralized\");\n\n        uint256 borrowedAmount = borrowerDebt[borrower];\n        uint256 liquidationBonus = liquidationManager.liquidationBonus();\n        uint256 liquidationAmount = (borrowedAmount * (1e4 + liquidationBonus)) / 1e4;\n\n        // Transfer collateral tokens to liquidator\n        assetToken.transfer(msg.sender, liquidationAmount);\n\n        // Transfer borrowed tokens from liquidator to borrower\n        assetToken.transferFrom(msg.sender, borrower, borrowedAmount);\n\n        // Reset borrower's debt\n        borrowerDebt[borrower] = 0;\n    }\n\n    function calculateBorrowRate(uint256 utilizationRate) external view returns (uint256) {\n        return interestRateModel.getBorrowRate(utilizationRate);\n    }\n\n    function getUtilizationRate() public view returns (uint256) {\n        return (totalBorrowed() * 1e4) / totalSupplied();\n    }\n\n    function totalSupplied() public view returns (uint256) {\n        return assetToken.balanceOf(address(this));\n    }\n\n    function totalBorrowed() public view returns (uint256) {\n        return totalSupplied() - assetToken.balanceOf(address(this));\n    }\n}\n",
  "sourcePath": "/home/lothbrok/Documents/projects/DeFi/contracts/LendingPool.sol",
  "compiler": {
    "name": "solc",
    "version": "0.8.20+commit.a1b79de6.Emscripten.clang"
  },
  "schemaVersion": "3.4.16",
  "updatedAt": "2024-03-09T09:30:16.901Z",
  "devdoc": {
    "kind": "dev",
    "methods": {},
    "version": 1
  },
  "userdoc": {
    "kind": "user",
    "methods": {},
    "version": 1
  }
}