{
  "contractName": "LendingPool",
  "abi": [
    {
      "inputs": [
        {
          "internalType": "contract ERC20Token",
          "name": "_assetToken",
          "type": "address"
        },
        {
          "internalType": "contract InterestRateModel",
          "name": "_interestRateModel",
          "type": "address"
        },
        {
          "internalType": "contract CollateralManager",
          "name": "_collateralManager",
          "type": "address"
        },
        {
          "internalType": "contract LiquidationManager",
          "name": "_liquidationManager",
          "type": "address"
        }
      ],
      "stateMutability": "nonpayable",
      "type": "constructor"
    },
    {
      "inputs": [],
      "name": "assetToken",
      "outputs": [
        {
          "internalType": "contract ERC20Token",
          "name": "",
          "type": "address"
        }
      ],
      "stateMutability": "view",
      "type": "function",
      "constant": true
    },
    {
      "inputs": [
        {
          "internalType": "address",
          "name": "",
          "type": "address"
        }
      ],
      "name": "borrowerDebt",
      "outputs": [
        {
          "internalType": "uint256",
          "name": "",
          "type": "uint256"
        }
      ],
      "stateMutability": "view",
      "type": "function",
      "constant": true
    },
    {
      "inputs": [],
      "name": "collateralManager",
      "outputs": [
        {
          "internalType": "contract CollateralManager",
          "name": "",
          "type": "address"
        }
      ],
      "stateMutability": "view",
      "type": "function",
      "constant": true
    },
    {
      "inputs": [],
      "name": "interestRateModel",
      "outputs": [
        {
          "internalType": "contract InterestRateModel",
          "name": "",
          "type": "address"
        }
      ],
      "stateMutability": "view",
      "type": "function",
      "constant": true
    },
    {
      "inputs": [
        {
          "internalType": "address",
          "name": "",
          "type": "address"
        }
      ],
      "name": "lenderBalance",
      "outputs": [
        {
          "internalType": "uint256",
          "name": "",
          "type": "uint256"
        }
      ],
      "stateMutability": "view",
      "type": "function",
      "constant": true
    },
    {
      "inputs": [],
      "name": "liquidationManager",
      "outputs": [
        {
          "internalType": "contract LiquidationManager",
          "name": "",
          "type": "address"
        }
      ],
      "stateMutability": "view",
      "type": "function",
      "constant": true
    },
    {
      "inputs": [
        {
          "internalType": "uint256",
          "name": "amount",
          "type": "uint256"
        }
      ],
      "name": "deposit",
      "outputs": [],
      "stateMutability": "nonpayable",
      "type": "function"
    },
    {
      "inputs": [
        {
          "internalType": "uint256",
          "name": "amount",
          "type": "uint256"
        }
      ],
      "name": "withdraw",
      "outputs": [],
      "stateMutability": "nonpayable",
      "type": "function"
    },
    {
      "inputs": [
        {
          "internalType": "uint256",
          "name": "amount",
          "type": "uint256"
        }
      ],
      "name": "borrow",
      "outputs": [],
      "stateMutability": "nonpayable",
      "type": "function"
    },
    {
      "inputs": [
        {
          "internalType": "uint256",
          "name": "amount",
          "type": "uint256"
        }
      ],
      "name": "repay",
      "outputs": [],
      "stateMutability": "nonpayable",
      "type": "function"
    },
    {
      "inputs": [
        {
          "internalType": "address",
          "name": "borrower",
          "type": "address"
        }
      ],
      "name": "liquidate",
      "outputs": [],
      "stateMutability": "nonpayable",
      "type": "function"
    },
    {
      "inputs": [
        {
          "internalType": "uint256",
          "name": "utilizationRate",
          "type": "uint256"
        }
      ],
      "name": "calculateBorrowRate",
      "outputs": [
        {
          "internalType": "uint256",
          "name": "",
          "type": "uint256"
        }
      ],
      "stateMutability": "view",
      "type": "function",
      "constant": true
    },
    {
      "inputs": [],
      "name": "getUtilizationRate",
      "outputs": [
        {
          "internalType": "uint256",
          "name": "",
          "type": "uint256"
        }
      ],
      "stateMutability": "view",
      "type": "function",
      "constant": true
    },
    {
      "inputs": [],
      "name": "totalSupplied",
      "outputs": [
        {
          "internalType": "uint256",
          "name": "",
          "type": "uint256"
        }
      ],
      "stateMutability": "view",
      "type": "function",
      "constant": true
    },
    {
      "inputs": [],
      "name": "totalBorrowed",
      "outputs": [
        {
          "internalType": "uint256",
          "name": "",
          "type": "uint256"
        }
      ],
      "stateMutability": "view",
      "type": "function",
      "constant": true
    }
  ],
  "bytecode": "0x608060405234801561001057600080fd5b50604051610d80380380610d8083398101604081905261002f9161009a565b600080546001600160a01b039586166001600160a01b03199182161790915560018054948616948216949094179093556002805492851692841692909217909155600380549190931691161790556100f9565b6001600160a01b038116811461009757600080fd5b50565b600080600080608085870312156100b057600080fd5b84516100bb81610082565b60208601519094506100cc81610082565b60408601519093506100dd81610082565b60608601519092506100ee81610082565b939692955090935050565b610c78806101086000396000f3fe608060405234801561001057600080fd5b50600436106100f55760003560e01c80633add60ab11610097578063b6b55f2511610066578063b6b55f25146101f1578063c5ebeaec14610204578063e0bf211714610217578063f3fdb15a1461022a57600080fd5b80633add60ab146101b95780634a417a53146101d95780634c19386c146101e1578063630fd0ac146101e957600080fd5b8063275972ca116100d3578063275972ca146101505780632e1a7d4d1461017e5780632f86556814610193578063371fd8e6146101a657600080fd5b80631083f761146100fa5780631ef3a04c1461012a57806323be345c1461013d575b600080fd5b60005461010d906001600160a01b031681565b6040516001600160a01b0390911681526020015b60405180910390f35b60035461010d906001600160a01b031681565b60025461010d906001600160a01b031681565b61017061015e366004610b38565b60056020526000908152604090205481565b604051908152602001610121565b61019161018c366004610b68565b61023d565b005b6101916101a1366004610b38565b610335565b6101916101b4366004610b68565b6105ba565b6101706101c7366004610b38565b60046020526000908152604090205481565b6101706106b2565b6101706106df565b61017061075e565b6101916101ff366004610b68565b6107cb565b610191610212366004610b68565b610866565b610170610225366004610b68565b610ac4565b60015461010d906001600160a01b031681565b336000908152600560205260409020548111156102985760405162461bcd60e51b8152602060048201526014602482015273496e73756666696369656e742062616c616e636560601b60448201526064015b60405180910390fd5b33600090815260056020526040812080548392906102b7908490610b97565b909155505060005460405163a9059cbb60e01b8152336004820152602481018390526001600160a01b039091169063a9059cbb906044016020604051808303816000875af115801561030d573d6000803e3d6000fd5b505050506040513d601f19601f820116820180604052508101906103319190610bae565b5050565b600254600054604051635786707760e01b81526001600160a01b0384811660048301529182166024820152911690635786707790604401602060405180830381865afa158015610389573d6000803e3d6000fd5b505050506040513d601f19601f820116820180604052508101906103ad9190610bae565b156104065760405162461bcd60e51b815260206004820152602360248201527f426f72726f776572206973206e6f7420756e646572636f6c6c61746572616c696044820152621e995960ea1b606482015260840161028f565b6001600160a01b038082166000908152600460208181526040808420546003548251631edf07d360e21b8152925191961693637b7c1f4c9383820193909291908290030181865afa15801561045f573d6000803e3d6000fd5b505050506040513d601f19601f820116820180604052508101906104839190610bd0565b905060006127106104948382610be9565b61049e9085610c01565b6104a89190610c20565b60005460405163a9059cbb60e01b8152336004820152602481018390529192506001600160a01b03169063a9059cbb906044016020604051808303816000875af11580156104fa573d6000803e3d6000fd5b505050506040513d601f19601f8201168201806040525081019061051e9190610bae565b506000546040516323b872dd60e01b81523360048201526001600160a01b03868116602483015260448201869052909116906323b872dd906064016020604051808303816000875af1158015610578573d6000803e3d6000fd5b505050506040513d601f19601f8201168201806040525081019061059c9190610bae565b505050506001600160a01b0316600090815260046020526040812055565b3360009081526004602052604090205481111561060f5760405162461bcd60e51b8152602060048201526013602482015272105b5bdd5b9d08195e18d959591cc81919589d606a1b604482015260640161028f565b6000546040516323b872dd60e01b8152336004820152306024820152604481018390526001600160a01b03909116906323b872dd906064016020604051808303816000875af1158015610666573d6000803e3d6000fd5b505050506040513d601f19601f8201168201806040525081019061068a9190610bae565b5033600090815260046020526040812080548392906106aa908490610b97565b909155505050565b60006106bc61075e565b6106c46106df565b6106d090612710610c01565b6106da9190610c20565b905090565b600080546040516370a0823160e01b81523060048201526001600160a01b03909116906370a0823190602401602060405180830381865afa158015610728573d6000803e3d6000fd5b505050506040513d601f19601f8201168201806040525081019061074c9190610bd0565b61075461075e565b6106da9190610b97565b600080546040516370a0823160e01b81523060048201526001600160a01b03909116906370a0823190602401602060405180830381865afa1580156107a7573d6000803e3d6000fd5b505050506040513d601f19601f820116820180604052508101906106da9190610bd0565b6000546040516323b872dd60e01b8152336004820152306024820152604481018390526001600160a01b03909116906323b872dd906064016020604051808303816000875af1158015610822573d6000803e3d6000fd5b505050506040513d601f19601f820116820180604052508101906108469190610bae565b5033600090815260056020526040812080548392906106aa908490610be9565b6001546000906001600160a01b0316639fa83b5a6108826106b2565b6040518263ffffffff1660e01b81526004016108a091815260200190565b602060405180830381865afa1580156108bd573d6000803e3d6000fd5b505050506040513d601f19601f820116820180604052508101906108e19190610bd0565b905060006127106108f28385610c01565b6108fc9190610c20565b9050600061090a8285610be9565b600254600054604051635786707760e01b81523360048201526001600160a01b0391821660248201529293501690635786707790604401602060405180830381865afa15801561095e573d6000803e3d6000fd5b505050506040513d601f19601f820116820180604052508101906109829190610bae565b6109ce5760405162461bcd60e51b815260206004820152601760248201527f496e73756666696369656e7420636f6c6c61746572616c000000000000000000604482015260640161028f565b30600090815260056020526040902054811115610a245760405162461bcd60e51b81526020600482015260146024820152734e6f7420656e6f756768206c697175696469747960601b604482015260640161028f565b60005460405163a9059cbb60e01b8152336004820152602481018690526001600160a01b039091169063a9059cbb906044016020604051808303816000875af1158015610a75573d6000803e3d6000fd5b505050506040513d601f19601f82011682018060405250810190610a999190610bae565b503360009081526004602052604081208054839290610ab9908490610be9565b909155505050505050565b600154604051634fd41dad60e11b8152600481018390526000916001600160a01b031690639fa83b5a90602401602060405180830381865afa158015610b0e573d6000803e3d6000fd5b505050506040513d601f19601f82011682018060405250810190610b329190610bd0565b92915050565b600060208284031215610b4a57600080fd5b81356001600160a01b0381168114610b6157600080fd5b9392505050565b600060208284031215610b7a57600080fd5b5035919050565b634e487b7160e01b600052601160045260246000fd5b600082821015610ba957610ba9610b81565b500390565b600060208284031215610bc057600080fd5b81518015158114610b6157600080fd5b600060208284031215610be257600080fd5b5051919050565b60008219821115610bfc57610bfc610b81565b500190565b6000816000190483118215151615610c1b57610c1b610b81565b500290565b600082610c3d57634e487b7160e01b600052601260045260246000fd5b50049056fea2646970667358221220080aa3f3f5ea3507c69bde3c24a34676c806bfd8c6a8d90c6126fd850d6ea72864736f6c634300080d0033",
  "immutableReferences": {},
  "source": "// SPDX-License-Identifier: MIT\npragma solidity ^0.8.13;\n\nimport \"./ERC20Token.sol\";\nimport \"./InterestRateModel.sol\";\nimport \"./CollateralManager.sol\";\nimport \"./LiquidationManager.sol\";\nimport \"@openzeppelin/contracts/token/ERC20/IERC20.sol\";\n\ncontract LendingPool {\n    ERC20Token public assetToken;\n    InterestRateModel public interestRateModel;\n    CollateralManager public collateralManager;\n    LiquidationManager public liquidationManager;\n\n    mapping(address => uint256) public borrowerDebt; // borrower address => total borrowed amount\n    mapping(address => uint256) public lenderBalance; // lender address => total deposited amount\n\n    constructor(\n        ERC20Token _assetToken,\n        InterestRateModel _interestRateModel,\n        CollateralManager _collateralManager,\n        LiquidationManager _liquidationManager\n    ) {\n        assetToken = _assetToken;\n        interestRateModel = _interestRateModel;\n        collateralManager = _collateralManager;\n        liquidationManager = _liquidationManager;\n    }\n\n    function deposit(uint256 amount) external {\n        assetToken.transferFrom(msg.sender, address(this), amount);\n        lenderBalance[msg.sender] += amount;\n    }\n\n    function withdraw(uint256 amount) external {\n        require(lenderBalance[msg.sender] >= amount, \"Insufficient balance\");\n        lenderBalance[msg.sender] -= amount;\n        assetToken.transfer(msg.sender, amount);\n    }\n\n    function borrow(uint256 amount) external {\n        uint256 borrowRate = interestRateModel.getBorrowRate(getUtilizationRate());\n        uint256 interest = (amount * borrowRate) / 1e4;\n        uint256 totalAmount = amount + interest;\n\n        require(collateralManager.isCollateralSufficient(msg.sender, address(assetToken)), \"Insufficient collateral\");\n\n        // Ensure lender has enough balance\n        require(lenderBalance[address(this)] >= totalAmount, \"Not enough liquidity\");\n\n        // Transfer borrowed amount to borrower\n        assetToken.transfer(msg.sender, amount);\n\n        // Update borrower's debt\n        borrowerDebt[msg.sender] += totalAmount;\n    }\n\n    function repay(uint256 amount) external {\n        require(borrowerDebt[msg.sender] >= amount, \"Amount exceeds debt\");\n\n        // Transfer repaid amount from borrower to contract\n        assetToken.transferFrom(msg.sender, address(this), amount);\n\n        // Update borrower's debt\n        borrowerDebt[msg.sender] -= amount;\n    }\n\n    function liquidate(address borrower) external {\n        require(!collateralManager.isCollateralSufficient(borrower, address(assetToken)), \"Borrower is not undercollateralized\");\n\n        uint256 borrowedAmount = borrowerDebt[borrower];\n        uint256 liquidationBonus = liquidationManager.liquidationBonus();\n        uint256 liquidationAmount = (borrowedAmount * (1e4 + liquidationBonus)) / 1e4;\n\n        // Transfer collateral tokens to liquidator\n        assetToken.transfer(msg.sender, liquidationAmount);\n\n        // Transfer borrowed tokens from liquidator to borrower\n        assetToken.transferFrom(msg.sender, borrower, borrowedAmount);\n\n        // Reset borrower's debt\n        borrowerDebt[borrower] = 0;\n    }\n\n    function calculateBorrowRate(uint256 utilizationRate) external view returns (uint256) {\n        return interestRateModel.getBorrowRate(utilizationRate);\n    }\n\n    function getUtilizationRate() public view returns (uint256) {\n        return (totalBorrowed() * 1e4) / totalSupplied();\n    }\n\n    function totalSupplied() public view returns (uint256) {\n        return assetToken.balanceOf(address(this));\n    }\n\n    function totalBorrowed() public view returns (uint256) {\n        return totalSupplied() - assetToken.balanceOf(address(this));\n    }\n}\n",
  "sourcePath": "/home/lothbrok/Documents/projects/DeFi/contracts/LendingPool.sol",
  "compiler": {
    "name": "solc",
    "version": "0.8.13+commit.abaa5c0e.Emscripten.clang"
  },
  "schemaVersion": "3.4.16",
  "updatedAt": "2024-03-10T12:08:24.104Z",
  "networkType": "ethereum",
  "devdoc": {
    "kind": "dev",
    "methods": {},
    "version": 1
  },
  "userdoc": {
    "kind": "user",
    "methods": {},
    "version": 1
  }
}