{
  "contractName": "LiquidationManager",
  "abi": [
    {
      "inputs": [
        {
          "internalType": "uint256",
          "name": "_liquidationBonus",
          "type": "uint256"
        }
      ],
      "stateMutability": "nonpayable",
      "type": "constructor"
    },
    {
      "inputs": [],
      "name": "liquidationBonus",
      "outputs": [
        {
          "internalType": "uint256",
          "name": "",
          "type": "uint256"
        }
      ],
      "stateMutability": "view",
      "type": "function"
    },
    {
      "inputs": [],
      "name": "owner",
      "outputs": [
        {
          "internalType": "address",
          "name": "",
          "type": "address"
        }
      ],
      "stateMutability": "view",
      "type": "function"
    },
    {
      "inputs": [
        {
          "internalType": "uint256",
          "name": "_liquidationBonus",
          "type": "uint256"
        }
      ],
      "name": "setLiquidationBonus",
      "outputs": [],
      "stateMutability": "nonpayable",
      "type": "function"
    },
    {
      "inputs": [
        {
          "internalType": "address",
          "name": "borrower",
          "type": "address"
        },
        {
          "internalType": "address",
          "name": "collateralToken",
          "type": "address"
        },
        {
          "internalType": "address",
          "name": "borrowedToken",
          "type": "address"
        },
        {
          "internalType": "uint256",
          "name": "borrowedAmount",
          "type": "uint256"
        }
      ],
      "name": "liquidatePosition",
      "outputs": [],
      "stateMutability": "nonpayable",
      "type": "function"
    }
  ],
  "bytecode": "0x608060405234801561000f575f80fd5b506040516103e63803806103e683398101604081905261002e91610047565b5f80546001600160a01b0319163317905560015561005e565b5f60208284031215610057575f80fd5b5051919050565b61037b8061006b5f395ff3fe608060405234801561000f575f80fd5b506004361061004a575f3560e01c806328842d4f1461004e5780637b7c1f4c1461006357806380ec2eea1461007f5780638da5cb5b14610092575b5f80fd5b61006161005c366004610242565b6100bc565b005b61006c60015481565b6040519081526020015b60405180910390f35b61006161008d366004610274565b61012a565b5f546100a4906001600160a01b031681565b6040516001600160a01b039091168152602001610076565b5f546001600160a01b031633146101255760405162461bcd60e51b8152602060048201526024808201527f4f6e6c79206f776e65722063616e20736574206c69717569646174696f6e20626044820152636f6e757360e01b606482015260840160405180910390fd5b600155565b5f61271060015461271061013e91906102d0565b61014890846102e9565b6101529190610300565b60405163a9059cbb60e01b8152336004820152602481018290529091506001600160a01b0385169063a9059cbb906044016020604051808303815f875af115801561019f573d5f803e3d5ffd5b505050506040513d601f19601f820116820180604052508101906101c3919061031f565b506040516323b872dd60e01b81523360048201526001600160a01b038681166024830152604482018490528416906323b872dd906064016020604051808303815f875af1158015610216573d5f803e3d5ffd5b505050506040513d601f19601f8201168201806040525081019061023a919061031f565b505050505050565b5f60208284031215610252575f80fd5b5035919050565b80356001600160a01b038116811461026f575f80fd5b919050565b5f805f8060808587031215610287575f80fd5b61029085610259565b935061029e60208601610259565b92506102ac60408601610259565b9396929550929360600135925050565b634e487b7160e01b5f52601160045260245ffd5b808201808211156102e3576102e36102bc565b92915050565b80820281158282048414176102e3576102e36102bc565b5f8261031a57634e487b7160e01b5f52601260045260245ffd5b500490565b5f6020828403121561032f575f80fd5b8151801515811461033e575f80fd5b939250505056fea26469706673582212207e808250073e58f88ae87ceef200edd105fa669162b6f56aad7649c6b5fba6c664736f6c63430008180033",
  "immutableReferences": {},
  "source": "// SPDX-License-Identifier: MIT\npragma solidity ^0.8.0;\n\nimport \"@openzeppelin/contracts/token/ERC20/IERC20.sol\";\n\ncontract LiquidationManager {\n    address public owner;\n    uint256 public liquidationBonus; // Liquidation bonus percentage (in basis points)\n\n    constructor(uint256 _liquidationBonus) {\n        owner = msg.sender;\n        liquidationBonus = _liquidationBonus;\n    }\n\n    function setLiquidationBonus(uint256 _liquidationBonus) external {\n        require(msg.sender == owner, \"Only owner can set liquidation bonus\");\n        liquidationBonus = _liquidationBonus;\n    }\n\n    function liquidatePosition(address borrower, address collateralToken, address borrowedToken, uint256 borrowedAmount) external {\n        // TODO: Implement liquidation logic\n        // For now, we'll assume liquidation is successful and transfer assets accordingly\n\n        // Calculate liquidation amount\n        uint256 liquidationAmount = borrowedAmount * (1e4 + liquidationBonus) / 1e4;\n\n        // Transfer collateral tokens to liquidator\n        IERC20(collateralToken).transfer(msg.sender, liquidationAmount);\n\n        // Transfer borrowed tokens from liquidator to borrower\n        IERC20(borrowedToken).transferFrom(msg.sender, borrower, borrowedAmount);\n\n        // Reset borrower's position\n        // For simplicity, we'll set collateral and borrowed amounts to zero\n        // In a real implementation, you'd likely update the borrower's position in CollateralManager.sol\n    }\n}\n",
  "sourcePath": "/home/lothbrok/Documents/projects/DeFi/contracts/LiquidationManager.sol",
  "compiler": {
    "name": "solc",
    "version": "0.8.24+commit.e11b9ed9.Emscripten.clang"
  },
  "schemaVersion": "3.4.16",
  "updatedAt": "2024-03-09T08:36:12.748Z",
  "devdoc": {
    "kind": "dev",
    "methods": {},
    "version": 1
  },
  "userdoc": {
    "kind": "user",
    "methods": {},
    "version": 1
  }
}