{
  "contractName": "PriceOracle",
  "abi": [
    {
      "inputs": [
        {
          "internalType": "address",
          "name": "",
          "type": "address"
        }
      ],
      "name": "assetToAggregator",
      "outputs": [
        {
          "internalType": "address",
          "name": "",
          "type": "address"
        }
      ],
      "stateMutability": "view",
      "type": "function"
    },
    {
      "inputs": [
        {
          "internalType": "address",
          "name": "asset",
          "type": "address"
        },
        {
          "internalType": "address",
          "name": "aggregator",
          "type": "address"
        }
      ],
      "name": "setAggregator",
      "outputs": [],
      "stateMutability": "nonpayable",
      "type": "function"
    },
    {
      "inputs": [
        {
          "internalType": "address",
          "name": "asset",
          "type": "address"
        }
      ],
      "name": "getPrice",
      "outputs": [
        {
          "internalType": "uint256",
          "name": "",
          "type": "uint256"
        }
      ],
      "stateMutability": "view",
      "type": "function"
    }
  ],
  "bytecode": "0x608060405234801561000f575f80fd5b506103288061001d5f395ff3fe608060405234801561000f575f80fd5b506004361061003f575f3560e01c806341976e09146100435780637394a7f614610069578063ddcc2763146100a6575b5f80fd5b610056610051366004610254565b6100e6565b6040519081526020015b60405180910390f35b6100a4610077366004610274565b6001600160a01b039182165f90815260208190526040902080546001600160a01b03191691909216179055565b005b6100ce6100b4366004610254565b5f602081905290815260409020546001600160a01b031681565b6040516001600160a01b039091168152602001610060565b6001600160a01b038181165f908152602081905260408120549091166101535760405162461bcd60e51b815260206004820181905260248201527f4e6f2061676772656761746f722073657420666f72207468697320617373657460448201526064015b60405180910390fd5b6001600160a01b038083165f90815260208190526040808220548151633fabe5a360e21b815291519316928291829182918291879163feaf968c9160048083019260a09291908290030181865afa1580156101b0573d5f803e3d5ffd5b505050506040513d601f19601f820116820180604052508101906101d491906102a5565b945094509450945094505f841361022d5760405162461bcd60e51b815260206004820152601e60248201527f496e76616c696420707269636520646174612066726f6d206f7261636c650000604482015260640161014a565b50919695505050505050565b80356001600160a01b038116811461024f575f80fd5b919050565b5f60208284031215610264575f80fd5b61026d82610239565b9392505050565b5f8060408385031215610285575f80fd5b61028e83610239565b915061029c60208401610239565b90509250929050565b5f805f805f60a086880312156102b9575f80fd5b855194506020860151935060408601519250606086015191506080860151805f0b81146102e4575f80fd5b80915050929550929590935056fea264697066735822122008d4b97969cbfafc8ad2b2fd891b30d2c12889b3713f3c4accd25fc85f717add64736f6c63430008180033",
  "immutableReferences": {},
  "source": "// SPDX-License-Identifier: MIT\n\npragma solidity ^0.8.0;\n\n// Interface for interacting with a decentralized oracle provider\ninterface AggregatorV3Interface {\n    function decimals() external view returns (uint8);\n\n    function latestRoundData()\n        external\n        view\n        returns (\n            int256 roundId,\n            int256 answer,\n            int256 startedAt,\n            int256 updatedAt,\n            int8 answeredInRound\n        );\n}\n\ncontract PriceOracle {\n    // Mapping to store asset addresses and their corresponding Chainlink aggregator contracts\n    mapping(address => address) public assetToAggregator;\n\n    // Function to set the Chainlink aggregator address for an asset\n    function setAggregator(address asset, address aggregator) public {\n        assetToAggregator[asset] = aggregator;\n    }\n\n    // Function to fetch the price of an asset from Chainlink\n    function getPrice(address asset) public view returns (uint256) {\n        require(\n            assetToAggregator[asset] != address(0),\n            \"No aggregator set for this asset\"\n        );\n        AggregatorV3Interface aggregator = AggregatorV3Interface(\n            assetToAggregator[asset]\n        );\n        (\n            int256 roundId,\n            int256 answer,\n            int256 startedAt,\n            int256 updatedAt,\n            int8 answeredInRound\n        ) = aggregator.latestRoundData();\n        require(answer > 0, \"Invalid price data from oracle\");\n        return uint256(answer);\n    }\n}\n",
  "sourcePath": "/home/lothbrok/Documents/projects/DeFi/contracts/PriceOracle.sol",
  "compiler": {
    "name": "solc",
    "version": "0.8.24+commit.e11b9ed9.Emscripten.clang"
  },
  "schemaVersion": "3.4.16",
  "updatedAt": "2024-03-09T08:58:01.840Z",
  "devdoc": {
    "kind": "dev",
    "methods": {},
    "version": 1
  },
  "userdoc": {
    "kind": "user",
    "methods": {},
    "version": 1
  }
}